:020000040000FA
:10000000F0020010D5000000E5000000DD00000057
:1000100000000000000000000000000000000000E0
:10002000000000000000000000000000DF000000F1
:100030000000000000000000E1000000E3000000FC
:10004000E5000000E500000000000000D90200000B
:10005000E90200005503000000000000000000005D
:10006000E5000000E500000091010000E50000004F
:10007000E5000000E500000000000000E5000000D1
:100080000000000000000000000000000000000070
:100090000000000000000000000000000000000060
:1000A000D9010000E3010000ED010000E5000000BF
:1000B000F7010000010200000B0200001502000021
:1000C0000348854600F052F800480047790C0000CC
:1000D000F00200100448804704480047FEE7FEE7AE
:1000E000FEE7FEE7FEE7000001030000C10000009C
:1000F00030B50B46014600202022012409E00D46C0
:10010000D5409D4205D31D469540491B2546954047
:1001100040191546521E002DF1DC30BD03460B433D
:100120009B0703D009E008C9121F08C0042AFAD2AD
:1001300003E00B78491C0370401C521EF9D2704733
:10014000421C0178401C0029FBD1801A704730B551
:1001500005460020034600E05B1C934205D2EC5CA0
:10016000C85C201A01D1002CF6D130BD064C012507
:10017000064E05E02046E36807C82B439847103435
:10018000B442F7D3FFF7A0FF7812000098120000E6
:100190000548C168C90705D00121C160034801684D
:1001A000491C016070470000004000400000001042
:1001B000C106C90E0120884001490860704700004F
:1001C00080E100E0C106C90E0120884001490860B5
:1001D0007047000000E100E000B5002000F020F8CA
:1001E00000BD00B5012000F01BF800BD00B50220E5
:1001F00000F016F800BD00B5042000F011F800BDB5
:1002000000B5052000F00CF800BD00B5062000F098
:1002100007F800BD00B5072000F002F800BD00009F
:10022000F0B52B4A810053585B1C5350294CA26AED
:10023000274DD30740352E46203601228240002B21
:1002400024D0236B4700C0190830C3405807400F23
:10025000030000F075F90813050505212113141397
:10026000E069104204D0E2616858401C685003E025
:1002700022627058401C7050E06AE062F0BD68581D
:10028000401C68507058401C7050F0BD606A1042AD
:10029000FBD02068104205D00D4820304258521C37
:1002A0004250F0BDE069104206D06068104203D0B1
:1002B0006858401C6850E261206A104206D02069EC
:1002C000104203D07058401C705022626262F0BD30
:1002D0002C000010004000A000B5024800F0EAF831
:1002E00000BD00000040064000B5024800F0E2F802
:1002F00000BD00000080064070470000FFFFFFFFC8
:1003000030B511480168114A114301600E480021BF
:1003100040380160012141604268D207FCD00A4A9E
:100320004123803A93600A4B9C6B8025AC439C63CD
:10033000D368DB07FCD0032202634163426BD20720
:10034000FCD0816330BD0000808004408000040048
:100350000082044000B5024800F0ACF800BD000087
:1003600000C0064070B51A4D01216961184C194B47
:10037000803C194A194998420AD10320FFF718FF17
:10038000286801218903084328606168082018E073
:1003900090420AD10420FFF70BFF28680121C9030E
:1003A00008432860616810200BE088420ED10520C8
:1003B000FFF7FEFE286801210904084328606168F0
:1003C00020208143616061680143616070BD00006D
:1003D00080800440004006400080064000C0064087
:1003E000F3B50446224881B0012606702046FFF787
:1003F000B9FF204D696920480068FFF779FE0421A4
:1004000021606969002920D0070938460299FFF761
:100410006FFE401E2062174DFF2040352863296B78
:100420003846491C4843216A029A491C5143FFF748
:100430005FFE296B401A401E686341204001A060A6
:100440000E48844202D1032009E0FEE70C488442B2
:1004500001D1042003E00B48844202D10520FFF7BC
:10046000B1FE0948E060206830432060FEBD000016
:10047000040000108080044020000010004006406E
:100480000080064000C006400508000070B500244A
:10049000074B042508E01E78F607FCD00E78491CAF
:1004A000C6611C70C560521E002AF4D170BD0000E8
:1004B0000400001070B516494A69521C4A618468EC
:1004C0000126E207002A1CD04269D30505D54368FE
:1004D0005B0702D5D305DB0D0B614B680D4DED18A5
:1004E0005B1C4B602A704A68202A02D100224A60B5
:1004F000CE60426803231B021A4342608A68521C82
:100500008A60620702D50E700421016170BD00008F
:1005100004000010AC0000100FB410B504A9074B84
:1005200002AA039800F028F8044602A9002000F06F
:1005300007F9204610BC08BC04B01847410700006A
:1005400030B47446641E2578641CAB4200D21D464C
:10055000635D5B00E31830BC184702E008C8121F57
:1005600008C1002AFAD17047002001E001C1121F22
:10057000002AFBD170470000FFB58DB00F4605463D
:100580000026D4E0252836D100246D1C6B4A0121B9
:1005900000942B780846203B98400346134202D033
:1005A00004436D1CF5E728782E2815D10420044358
:1005B0006D1C28782A280AD101CF6D1C00900BE011
:1005C00000990A225143303940186D1C0090287858
:1005D000014630390929F3D92878692843D006DC47
:1005E000002871D063280BD0642804D13BE0732825
:1005F00010D0752850D0109A0F999047761C95E02E
:100600003878694608720020487202A83F1D0190A0
:10061000012003E001CF01900020C04361070CD509
:10062000002400E0641C00998C420FDA8442F9DB5C
:100630000199095D0029F5D108E0002400E0641C5F
:100640008442FCDB0199095D0029F8D1361907E0E5
:10065000019801990078491C0191109A0F999047CF
:10066000641EF5D262E00A20019001CF002802DA70
:1006700040422D2102E0210504D52B216A4611724A
:10068000012103E0E10705D02021F7E70C910BA938
:100690000B910EE00021F9E70A20019001CFF9E764
:1006A0000199FFF725FD0A460B993032491E0B913F
:1006B0000A700028F4D10B9803A9081A2030019081
:1006C000600702D5009802E035E001200090019912
:1006D000884203DD01460198081A00E0002000244A
:1006E000009006E002A8109A005D0F999047761CD2
:1006F000641C0C988442F5DB04E0109A30200F99BA
:100700009047761C0099481E00900029F5DC08E00F
:100710000B980B990078491C0B91109A0F999047F0
:10072000761C0199481E01900029F1DC6D1C287887
:10073000002800D026E7304611B0F0BD092801009E
:100740000A68531C0B601070704700000FB4F0B5BE
:1007500093B01CA98F4D1DA80026079108901A99E7
:1007600019984418285D1C2852D017DC072845D05A
:1007700007DC0300FFF7E4FE072AE6E63A3C3E40CA
:10078000E600122824D004DC082839D010281ED115
:10079000C5E01A2836D01B28F9D136E060287ED073
:1007A0000CDC3C2856D004DC1D2834D03B28EED18C
:1007B00044E03D285AD03E28E9D164E0B138030036
:1007C000FFF7BEFE06DD8EC0909CC4C0641CB9E07D
:1007D000281940780690182268460799FFF79EFC72
:1007E00019A90EC909A800F034FCA5E0069615E089
:1007F000012012E0022010E003200EE004200CE0B3
:1008000005200AE01C98006807E01C98406804E096
:100810001C98806801E01C98C06806901822684601
:100820000799FFF77BFC19A90EC909A800F0E4FBA2
:10083000242209A919A8FFF771FCC7E7142268460A
:100840000899FFF76BFC19A80FC800F04DF91C9927
:100850000860BBE7142268460899FFF75FFC19A8F7
:100860000FC800F041F91C994860AFE714226846B0
:100870000899FFF753FC19A80FC800F035F91C9927
:100880008860A3E70BE0142268460899FFF746FC4E
:1008900019A80FC800F028F91C99C86096E7641CD5
:1008A000142268460899FFF739FC19A80FC800F010
:1008B0001BF90746142268460899FFF72FFC19A870
:1008C0000FC800F011F938180690182268460799E9
:1008D000FFF724FC19A90EC909A800F08DFB31E02F
:1008E000E41C2FE0E41C182268460799FFF716FC69
:1008F00019A90EC909A800F0CBF80AE0E41C1822D7
:1009000068460799FFF70AFC19A90EC909A800F063
:1009100053FA242209A919A8FFF700FC12E02819AC
:1009200040780690182268460799FFF7F7FB19A947
:100930000EC909A800F060FB242209A919A8FFF735
:10094000EDFBA41C1998201A1A9008E72819417881
:100950008078090209180EA800F022FB14220EA9C3
:1009600009A8FFF7DBFB0D9805901422684608994B
:10097000FFF7D4FB19A80FC800F058F9B0E72422FC
:1009800019A91A961898FFF7C9FB13B0F0BC08BC58
:1009900004B01847D410000010B5002823D0124B23
:1009A000001F0022196803E0814203D80A46496803
:1009B0000029F9D1002A0AD01368841A9C4204D174
:1009C000006818181060104602E0506000E01860DF
:1009D000002907D002680B1A934203D10B68D21882
:1009E00002604968416010BD24000010F3B51D206D
:1009F000244F85B0002201250E463860002901D021
:100A00001D2E02DB0020019034E01F4CA118887AD3
:100A1000009000F09BF8431C04D1C87A0B7B0002C5
:100A2000C01C1818B54205D03B686D1C9D4201DA08
:100A30001218EBE7A018C07A0B7B0002C0180190D7
:100A4000487B8B7B0002C018029000980A32039208
:100A50000300FFF775FD070F050F050505050F00DE
:100A60000D310A48019AFFF759FB0848019A002105
:100A700081540490142269460598FFF74FFB07B094
:100A8000F0BD00001C000010D4100000CC000010CD
:100A90000FB410B5002105E0089A8B00D258002A47
:100AA00003D0491C099A8A42F6DC099A521E8A42EE
:100AB00004D1089A8B00D258002A0DD1089C042238
:100AC0008B00E250079C0022E250099B491C8B429C
:100AD00002D0089B89005A50242203A9FFF71EFB6D
:100AE00010BC08BC04B0184770B58CB00020119C35
:100AF000109A129904E08300E358002B10D0401C98
:100B00008142F8DC411E8000001F20580025032888
:100B100009D088002158012915D000200CB070BDE3
:100B20000028FBD0EEE78E00915906A800F018FAD5
:100B3000142206A96846FFF7F1FAA5510198029917
:100B400000044018EAE725501058E7E700B5030015
:100B5000FFF7F6FC131411140D0D0F0F0B0B0D0DF9
:100B60000D0D14140D0B140B1400032000BD0520F3
:100B700000BD092000BD0020C04300BD002000BD15
:100B800070B58CB00021119C109B129A149804E04F
:100B90008D006559002D10D0491C8A42F8DC4A1E90
:100BA0008900091F6158002503290BD09100625864
:100BB000012A14D0042A1AD001E00029EFD1002024
:100BC0000CB070BD9600995906A800F0C9F914221E
:100BD00006A901A8FFF7A2FAA5510598F0E765500C
:100BE0005A5805A10548FFF797FC0448E8E7002894
:100BF000E6D06550E4E7000025640000CC0000105A
:100C000006480168802211430160064904480860D3
:100C10004C200549C04308607047000080800440B4
:100C20000400FFFF00C00040C0C100400FB400B589
:100C300095B007220DA11F98FFF789FA002810D15F
:100C400014221AA96846FFF769FA16A80FC8FFF719
:100C500097FF024607A105A8FFF75EFC05A800F074
:100C60002DFA15B008BC04B0184700007072696E08
:100C7000746C6E002573000090B0FFF7C1FF4B202D
:100C8000C00100F013FA21A000F018FA24A000F02F
:100C900015FA242000F05AF80446042225A16846DB
:100CA00000F0B6F8242269462046FFF737FA0025FF
:100CB0002562E069800000F049F8E060A0698000EA
:100CC00000F044F86061A069800000F03FF8206106
:100CD00060692146056018220C316846FFF71EFA4C
:100CE00021460EC906A8FFF731FDE068FFF754FE64
:100CF0006069FFF751FE2069FFF74EFE2046FFF7BF
:100D00004BFE0EA000F0DAF9FEE700004C5043382D
:100D10003178204A564D2053746172740D0A0000D8
:100D2000706C6561736520776169742E2E2E0D0AD3
:100D30000D0A00006D61696E000000000D0A0D0AC9
:100D40004A564D2046696E0D0A000000F0B50B3082
:100D5000C108C900144F0026144A0FE003688B42F3
:100D60000BD38B4205D95C1A431845685D601C6043
:100D700000E04368136002C004E0021D1068002810
:100D8000ECD13046002803D13868002801D000207B
:100D9000F0BD064A06481060064A121AD208D20070
:100DA00044C001203860D7E728000010240000105C
:100DB000F4000010F00000100FB410B586B0044627
:100DC00014220DA96846FFF7A9F909A80FC8FFF773
:100DD000D7FE05901198002813D0FFF7DDFD059888
:100DE000FFF7AEF9024605A911A8FFF797F92422EB
:100DF00009A92046FFF792F906B010BC08BC04B060
:100E000018470598FFF79CF9FFF7A0FF1190E6E758
:100E1000F7B59AB000200D904F48016814A8491EFC
:100E2000FFF7E4FD142214A904A8FFF777F904984A
:100E3000012826D0C0B2FFF789FE07990818801D47
:100E4000009046480099009A411849788A180099FC
:100E5000415C0902891C5118009141184978009A97
:100E60008A180099415C0902891C51180091009A66
:100E7000415C8018407809020D18901C00240090F5
:100E800060E00598C01CD8E7801C344E00900099A3
:100E9000305C711849780002411814A8FFF7A6FDCC
:100EA000142214A904A8FFF739F91C9A1B99089871
:100EB000FFF74DF984460098801C801C0090009933
:100EC000305C71184978000243180098801C00219A
:100ED000009034E0801C214A00901618105CF778CE
:100EE000000638187778B6783F043602BE1986199E
:100EF0000098001D0090604600281CD10098105CEE
:100F0000070200981218507838181190907807024C
:100F1000D078381812901079D77900063F18507998
:100F2000927900041202801838180D900098083049
:100F30000B9000200C9000988019491C0090994259
:100F4000C8DB641CAC429FDB24220BA91A98FFF774
:100F5000E5F81DB0F0BD00001C000010D41000002A
:100F600010B58AB0044605A8FFF740FD142205A974
:100F70006846FFF7D3F80098072801D0082808D161
:100F800005A80199FFF732FD142205A96846FFF76D
:100F9000C5F8142269462046FFF7C0F80AB010BD14
:100FA00010B58AB0044605A8FFF720FD142205A954
:100FB0006846FFF7B3F80098092804D00A2802D041
:100FC0000C2812D108E005A80299FFF70FFD1422A2
:100FD00005A96846FFF7A2F805A80199FFF7C0FF29
:100FE000142205A96846FFF799F81422694620469D
:100FF000FFF794F80AB010BD0FB470B500210E9B36
:1010000005E00A9A8C001259002A03D0491C0B9A59
:101010008A42F6DC0B9A521E8A4204D10A9A8C004C
:101020001259002A0DD10A9D01248A00AC50099C56
:10103000491CA3500B9A8A4203D000220A9B8900C4
:101040005A50242205A9FFF769F870BC08BC04B007
:1010500018470FB470B500210E9B05E00A9A8C006A
:101060001259002A03D0491C0B9A8A42F6DC0B9ACB
:10107000521E8A4204D10A9A8C001259002A0DD1BC
:101080000A9D03248A00AC50099C491CA3500B9A6A
:101090008A4203D000220A9B89005A50242205A9C3
:1010A000FFF73CF870BC08BC04B0184710B5014607
:1010B0000148FFF795F910BD0040064010B5044601
:1010C000FFF73EF8024621460148FFF7DFF910BD61
:1010D00000400640CAFEBABE00000032001D0A00F1
:1010E00006000F09001000110800120A0013001476
:1010F0000700150700160100063C696E69743E0181
:101100000003282956010004436F646501000F4C59
:10111000696E654E756D6265725461626C65010041
:10112000046D61696E010016285B4C6A6176612F5F
:101130006C616E672F537472696E673B29560100AC
:101140000A536F7572636546696C6501000A4865EC
:101150006C6C6F2E6A6176610C000700080700173F
:101160000C0018001901000B68656C6C6F20776F1C
:10117000726C6407001A0C001B001C010005486516
:101180006C6C6F0100106A6176612F6C616E672F65
:101190004F626A6563740100106A6176612F6C6149
:1011A0006E672F53797374656D0100036F75740159
:1011B00000154C6A6176612F696F2F5072696E74E9
:1011C00053747265616D3B0100136A6176612F692A
:1011D0006F2F5072696E7453747265616D010007F0
:1011E0007072696E746C6E010015284C6A617661CC
:1011F0002F6C616E672F537472696E673B295600BE
:1012000020000500060000000000020000000700AA
:1012100008000100090000001D000100010000009D
:10122000052AB70001B100000001000A0000000615
:101230000001000000010009000B000C0001000982
:10124000000000250002000100000009B2000212A7
:1012500003B60004B100000001000A0000000A000B
:101260000200000003000800040001000D0000005F
:1012700002000E00000000009812000000000010A4
:101280002C0000005A050000C41200002C000010C1
:10129000C40200006805000000000000010000001A
:1012A000000000000000000000000000000000003E
:1012B000000000000000000000366E010000000089
:0412C000000000002A
:04000005000000C136
:00000001FF
