:020000040000FA
:10000000F0020010D5000000E5000000DD00000057
:1000100000000000000000000000000000000000E0
:10002000000000000000000000000000DF000000F1
:100030000000000000000000E1000000E3000000FC
:10004000E5000000E500000000000000D90200000B
:10005000E90200005503000000000000000000005D
:10006000E5000000E500000091010000E50000004F
:10007000E5000000E500000000000000E5000000D1
:100080000000000000000000000000000000000070
:100090000000000000000000000000000000000060
:1000A000D9010000E3010000ED010000E5000000BF
:1000B000F7010000010200000B0200001502000021
:1000C0000348854600F052F800480047F108000058
:1000D000F00200100448804704480047FEE7FEE7AE
:1000E000FEE7FEE7FEE7000001030000C10000009C
:1000F00030B50B46014600202022012409E00D46C0
:10010000D5409D4205D31D469540491B2546954047
:1001100040191546521E002DF1DC30BD03460B433D
:100120009B0703D009E008C9121F08C0042AFAD2AD
:1001300003E00B78491C0370401C521EF9D2704733
:10014000421C0178401C0029FBD1801A704730B551
:1001500005460020034600E05B1C934205D2EC5CA0
:10016000C85C201A01D1002CF6D130BD064C012507
:10017000064E05E02046E36807C82B439847103435
:10018000B442F7D3FFF7A0FF3C0E00005C0E000066
:100190000548C168C90705D00121C160034801684D
:1001A000491C016070470000004000400000001042
:1001B000C106C90E0120884001490860704700004F
:1001C00080E100E0C106C90E0120884001490860B5
:1001D0007047000000E100E000B5002000F020F8CA
:1001E00000BD00B5012000F01BF800BD00B50220E5
:1001F00000F016F800BD00B5042000F011F800BDB5
:1002000000B5052000F00CF800BD00B5062000F098
:1002100007F800BD00B5072000F002F800BD00009F
:10022000F0B52B4A810053585B1C5350294CA26AED
:10023000274DD30740352E46203601228240002B21
:1002400024D0236B4700C0190830C3405807400F23
:10025000030000F075F90813050505212113141397
:10026000E069104204D0E2616858401C685003E025
:1002700022627058401C7050E06AE062F0BD68581D
:10028000401C68507058401C7050F0BD606A1042AD
:10029000FBD02068104205D00D4820304258521C37
:1002A0004250F0BDE069104206D06068104203D0B1
:1002B0006858401C6850E261206A104206D02069EC
:1002C000104203D07058401C705022626262F0BD30
:1002D0002C000010004000A000B5024800F0EAF831
:1002E00000BD00000040064000B5024800F0E2F802
:1002F00000BD00000080064070470000FFFFFFFFC8
:1003000030B511480168114A114301600E480021BF
:1003100040380160012141604268D207FCD00A4A9E
:100320004123803A93600A4B9C6B8025AC439C63CD
:10033000D368DB07FCD0032202634163426BD20720
:10034000FCD0816330BD0000808004408000040048
:100350000082044000B5024800F0ACF800BD000087
:1003600000C0064070B51A4D01216961184C194B47
:10037000803C194A194998420AD10320FFF718FF17
:10038000286801218903084328606168082018E073
:1003900090420AD10420FFF70BFF28680121C9030E
:1003A00008432860616810200BE088420ED10520C8
:1003B000FFF7FEFE286801210904084328606168F0
:1003C00020208143616061680143616070BD00006D
:1003D00080800440004006400080064000C0064087
:1003E000F3B50446224881B0012606702046FFF787
:1003F000B9FF204D696920480068FFF779FE0421A4
:1004000021606969002920D0070938460299FFF761
:100410006FFE401E2062174DFF2040352863296B78
:100420003846491C4843216A029A491C5143FFF748
:100430005FFE296B401A401E686341204001A060A6
:100440000E48844202D1032009E0FEE70C488442B2
:1004500001D1042003E00B48844202D10520FFF7BC
:10046000B1FE0948E060206830432060FEBD000016
:10047000040000108080044020000010004006406E
:100480000080064000C006400508000070B500244A
:10049000074B042508E01E78F607FCD00E78491CAF
:1004A000C6611C70C560521E002AF4D170BD0000E8
:1004B0000400001070B516494A69521C4A618468EC
:1004C0000126E207002A1CD04269D30505D54368FE
:1004D0005B0702D5D305DB0D0B614B680D4DED18A5
:1004E0005B1C4B602A704A68202A02D100224A60B5
:1004F000CE60426803231B021A4342608A68521C82
:100500008A60620702D50E700421016170BD00008F
:1005100004000010AC0000100FB410B504A9074B84
:1005200002AA039800F027F8044602A9002000F070
:1005300087F8204610BC08BC04B0184741060000EC
:1005400030B47446641E2578641CAB4200D21D464C
:10055000635D5B00E31830BC184702E008C8121F57
:1005600008C1002AFAD17047002001E001C1121F22
:10057000002AFBD17047FFB581B00546002759E03E
:10058000252801D0039922E06D1C0022297810460D
:100590002E2913D16D1C297804222A2909D1029908
:1005A0006D1C01C9029109E00A235843303808182C
:1005B0006D1C29780B46303B092BF5D92B78002B85
:1005C0003BD0632B07D0732B10D003991846049AA5
:1005D00090477F1C2DE002996C460B78091D237013
:1005E0000291002161706E46012104E0029940C928
:1005F00002910021C94352070AD5002400E0641C7F
:1006000084420DDA8C42FADB325D002AF7D107E032
:10061000002400E0641C8C42FCDB305D0028F9D132
:100620003F1904E03078049A761C03999047641EC1
:10063000F8D26D1C28780028A2D1384605B0F0BD4C
:100640000A68531C0B601070704700000FB470B53F
:10065000294D92B00646189917984418285DB1287C
:100660003ED004DC002807D012281CD106E0B228B6
:1006700018D0B62817D11AE0641C14E02819407865
:10068000059014221AA96846FFF748FD17A90EC95C
:1006900007A800F0BFFA202207A917A8FFF73EFD20
:1006A000A41C00E0E41C1798201A1890D3E728191E
:1006B00041788078090209180CA800F07FFA14220A
:1006C0000CA907A8FFF72AFD0B9804901BA80FC8D8
:1006D00003936B4607C317A80FC800F0E3F8E1E7E0
:1006E00000201890202217A93046FFF717FD12B0FE
:1006F00070BC08BC04B01847980C000010B5002866
:1007000023D0124B001F0022196803E0814203D856
:100710000A4649680029F9D1002A0AD01368841AC8
:100720009C4204D1006818181060104602E0506026
:1007300000E01860002907D002680B1A934203D129
:100740000B68D21802604968416010BD2400001097
:10075000F3B51D20244F85B0002201250E463860D8
:10076000002901D01D2E02DB0020019034E01F4C37
:10077000A118887A009000F03DF8431C04D1C87A93
:100780000B7B0002C01C1818B54205D03B686D1CDD
:100790009D4201DA1218EBE7A018C07A0B7B000229
:1007A000C0180190487B8B7B0002C0180290009813
:1007B0000A3203920300FFF7C3FE070F050F05057A
:1007C00005050F000D310A48019AFFF7A7FC0848FC
:1007D000019A002181540490142269460598FFF77C
:1007E0009DFC07B0F0BD00001C000010980C00003C
:1007F000CC00001000B50300FFF7A2FE1314111483
:100800000D0D0F0F0B0B0D0D0D0D14140D0B140B07
:100810001400032000BD052000BD092000BD0020FC
:10082000C04300BD002000BD30B58BB000200F9C40
:100830000E9A109904E08300E358002B0BD0401C63
:100840008142F8DC411E8000001F2058032805D09B
:1008500000200BB030BD0028FBD0F3E78D005159CC
:1008600006A800F08BF9142206A901A8FFF756FC90
:10087000002060510598ECE706480168802211438A
:1008800001600649044808604C200549C0430860DF
:1008900070470000808004400400FFFF00C000405B
:1008A000C0C100400FB4F0B595B01EACF0CC07222B
:1008B0000CA12298FFF74BFC00280DD16846F0C030
:1008C0001AA80FC8FFF7B0FF024608A104A8FFF757
:1008D00023FE04A800F0D4F915B0F0BC08BC04B0A5
:1008E000184700007072696E746C6E00257300000A
:1008F0008EB0FFF7C1FF4B20C00100F0B9F920A076
:1009000000F0BEF923A000F0BBF9202000F058F859
:100910000446042224A1684600F088F82022694693
:100920002046FFF7FBFBE069800000F049F8E0603B
:10093000A069800000F044F86061A069800000F0C8
:100940003FF82061616900200860214614220C31C3
:100950006846FFF7E3FB21460EC905A8FFF776FEC0
:10096000E068FFF7CBFE6069FFF7C8FE2069FFF77C
:10097000C5FE2046FFF7C2FE0DA000F081F9FEE79C
:100980004C5043383178204A564D2053746172746C
:100990000D0A0000706C6561736520776169742EC3
:1009A0002E2E0D0A0D0A00006D61696E0000000018
:1009B0000D0A0D0A4A564D2046696E0D0A000000C8
:1009C000F0B50B30C108C900144F0026144A0FE0DF
:1009D00003688B420BD38B4205D95C1A43184568D8
:1009E0005D601C6000E04368136002C004E0021D0B
:1009F00010680028ECD13046002803D13868002860
:100A000001D00020F0BD064A06481060064A121ABE
:100A1000D208D20044C001203860D7E72800001077
:100A200024000010F4000010F0000010F7B598B09A
:100A300000200D904F48016813A8491EFFF788FE5B
:100A4000142213A904A8FFF769FB0498012826D0F3
:100A5000C0B2FFF7CFFE07990818801D00904648E6
:100A60000099009A411849788A180099415C090256
:100A7000891C5118009141184978009A8A180099E8
:100A8000415C0902891C51180091009A415C801850
:100A9000407809020D18901C0024009060E0059831
:100AA000C01CD8E7801C344E00900099305C71184F
:100AB00049780002411813A8FFF74AFE142213A92F
:100AC00004A8FFF72BFB1A9A19990898FFF73FFB28
:100AD00084460098801C801C00900099305C71183E
:100AE0004978000243180098801C0021009034E0EF
:100AF000801C214A00901618105CF7780006381800
:100B00007778B6783F043602BE1986190098001D22
:100B10000090604600281CD10098105C07020098E5
:100B2000121850783818119090780702D078381839
:100B300012901079D77900063F1850799279000405
:100B40001202801838180D90009808300B90002081
:100B50000C9000988019491C00909942C8DB641CD5
:100B6000AC429FDB20220BA91898FFF7D7FA1BB0E5
:100B7000F0BD00001C000010980C000010B58AB0F9
:100B8000044605A8FFF7E4FD142205A96846FFF70F
:100B9000C5FA0098072801D0082808D105A80199AE
:100BA000FFF7D6FD142205A96846FFF7B7FA14220D
:100BB00069462046FFF7B2FA0AB010BD10B58AB0F8
:100BC000044605A8FFF7C4FD142205A96846FFF7EF
:100BD000A5FA0098092804D00A2802D00C2812D1BE
:100BE00008E005A80299FFF7B3FD142205A968469D
:100BF000FFF794FA05A80199FFF7C0FF142205A991
:100C00006846FFF78BFA142269462046FFF786FAFA
:100C10000AB010BD0FB470B500210D9B05E00A9A13
:100C20008C001259002A03D0491C0B9A8A42F6DC28
:100C30000B9A521E8A4204D10A9A8C001259002A39
:100C40000DD10A9D03248A00AC50099C491CA35075
:100C50000B9A8A4203D000220A9B89005A50202214
:100C600005A9FFF75BFA70BC08BC04B01847000088
:100C700010B501460148FFF7B3FB10BD0040064028
:100C800010B50446FFF75CFA024621460148FFF71B
:100C9000FDFB10BD00400640CAFEBABE0000003297
:100CA000001D0A0006000F09001000110800120ABA
:100CB000001300140700150700160100063C696EBA
:100CC00069743E010003282956010004436F6465DE
:100CD00001000F4C696E654E756D626572546162FC
:100CE0006C650100046D61696E010016285B4C6A39
:100CF0006176612F6C616E672F537472696E673B0A
:100D0000295601000A536F7572636546696C650167
:100D1000000A48656C6C6F2E6A6176610C000700F2
:100D2000080700170C0018001901000B68656C6CAF
:100D30006F20776F726C6407001A0C001B001C0197
:100D4000000548656C6C6F0100106A6176612F6C5C
:100D5000616E672F4F626A6563740100106A617685
:100D6000612F6C616E672F53797374656D01000399
:100D70006F75740100154C6A6176612F696F2F5091
:100D800072696E7453747265616D3B0100136A6120
:100D900076612F696F2F5072696E7453747265613A
:100DA0006D0100077072696E746C6E010015284C3D
:100DB0006A6176612F6C616E672F537472696E671A
:100DC0003B2956002000050006000000000002003C
:100DD0000000070008000100090000001D000100DC
:100DE00001000000052AB70001B100000001000A5F
:100DF000000000060001000000010009000B000CCB
:100E000000010009000000250002000100000009A7
:100E1000B200021203B60004B100000001000A0093
:100E200000000A00020000000300080004000100A6
:100E30000D00000002000E00000000005C0E00002B
:100E4000000000102C0000005A050000880E000071
:100E50002C000010C4020000680500000000000023
:100E60000100000000000000000000000000000081
:100E700000000000000000000000000000366E01CD
:080E800000000000000000006A
:04000005000000C136
:00000001FF
