:020000040000FA
:1000000010050010D5000000E5000000DD00000034
:1000100000000000000000000000000000000000E0
:10002000000000000000000000000000DF000000F1
:100030000000000000000000E1000000D902000004
:10004000E5000000E500000000000000E9020000FB
:10005000AD040000BD04000000000000000000002E
:10006000E5000000E500000091010000E50000004F
:10007000E5000000E500000000000000E5000000D1
:100080000000000000000000000000000000000070
:100090000000000000000000000000000000000060
:1000A000D9010000E3010000ED010000E5000000BF
:1000B000F7010000010200000B0200001502000021
:1000C0000348854600F052F800480047D11200006E
:1000D000100500100448804704480047FEE7FEE78B
:1000E000FEE7FEE7FEE7000059040000C100000043
:1000F00030B50B46014600202022012409E00D46C0
:10010000D5409D4205D31D469540491B2546954047
:1001100040191546521E002DF1DC30BD03460B433D
:100120009B0703D009E008C9121F08C0042AFAD2AD
:1001300003E00B78491C0370401C521EF9D2704733
:10014000421C0178401C0029FBD1801A704730B551
:1001500005460020034600E05B1C934205D2EC5CA0
:10016000C85C201A01D1002CF6D130BD064C012507
:10017000064E05E02046E36807C82B439847103435
:10018000B442F7D3FFF7A0FFE01B0000001C000003
:100190000548C168C90705D00121C160034801684D
:1001A000491C016070470000004000400000001042
:1001B000C106C90E0120884001490860704700004F
:1001C00080E100E0C106C90E0120884001490860B5
:1001D0007047000000E100E000B5002000F020F8CA
:1001E00000BD00B5012000F01BF800BD00B50220E5
:1001F00000F016F800BD00B5042000F011F800BDB5
:1002000000B5052000F00CF800BD00B5062000F098
:1002100007F800BD00B5072000F002F800BD00009F
:10022000F0B52B4A810053585B1C5350294CA26AED
:10023000274DD30740352E46203601228240002B21
:1002400024D0236B4700C0190830C3405807400F23
:10025000030000F029FA08130505052121131413E2
:10026000E069104204D0E2616858401C685003E025
:1002700022627058401C7050E06AE062F0BD68581D
:10028000401C68507058401C7050F0BD606A1042AD
:10029000FBD02068104205D00D4820304258521C37
:1002A0004250F0BDE069104206D06068104203D0B1
:1002B0006858401C6850E261206A104206D02069EC
:1002C000104203D07058401C705022626262F0BD30
:1002D00030000010004000A002480168491C016085
:1002E000704700001C00001000B5024800F096F9AD
:1002F00000BD00000040064070470000FFFFFFFF08
:100300000A4910B5401E884201D9012010BD084994
:10031000486108480722C3691B021B0A4C04234397
:10032000C361002088610A6110BD0000FFFFFF006B
:1003300000E000E004ED00E070B5354D0020696A92
:10034000C905090F0B0000F0AFF91026090B0D0FBE
:1003500011131517191B1D1F212325262D481AE0DF
:100360002D4818E02D4816E02D4814E02D4812E0E5
:100370002D4810E02D480EE02D480CE02D480AE0F5
:100380002D4808E02D4806E02D4804E02D4802E005
:100390002D4800E02D48696AC906890E891CFFF7BF
:1003A000A7FE1B4940310A6B2A4C9607284AB60F14
:1003B00011D00023012E04D0022E0ED0032E1AD10C
:1003C0000DE008688007800F05D0012803D00228BF
:1003D00010D003280FD122600DE020600BE00868E8
:1003E0008007800F0DD001280BD0022802D00328EF
:1003F00001D106E02360896B2068FFF779FE206059
:1004000070BDA868124AC006C00E401C5043E4E705
:100410000080044020A1070000350C00E0C8100057
:10042000C05C1500006A180040771B0080841E0025
:10043000C0912100009F240040AC2700E032290039
:1004400020402C00604D2F0000D4300040E13300EC
:10045000001BB7002400001030B511480168114A94
:10046000114301600E4800214038016001214160C4
:100470004268D207FCD00A4A4123803A93600A4B73
:100480009C6B8025AC439C63D368DB07FCD00322C4
:1004900002634163426BD207FCD0816330BD000030
:1004A00080800440800004000082044000B50248BF
:1004B00000F0B4F800BD00000080064000B502481E
:1004C00000F0ACF800BD000000C0064070B51A4D49
:1004D00001216961184C194B803C194A194998420D
:1004E0000AD10320FFF764FE28680121890308432D
:1004F00028606168082018E090420AD10420FFF7C4
:1005000057FE28680121C90308432860616810204C
:100510000BE088420ED10520FFF74AFE2868012132
:100520000904084328606168202081436160616894
:100530000143616070BD00008080044000400640BF
:100540000080064000C00640F3B50446224881B052
:10055000012606702046FFF7B9FF204D6969204843
:100560000068FFF7C5FD042121606969002920D0DA
:10057000070938460299FFF7BBFD401E2062174D60
:10058000FF2040352863296B3846491C4843216ABF
:10059000029A491C5143FFF7ABFD296B401A401EDC
:1005A000686341204001A0600E48844202D10320CC
:1005B00009E0FEE70C48844201D1042003E00B4827
:1005C000844202D10520FFF7FDFD0948E060206864
:1005D00030432060FEBD0000040000108080044015
:1005E00024000010004006400080064000C0064085
:1005F0000508000070B50024074B042508E01E78AC
:10060000F607FCD00E78491CC6611C70C560521EEE
:10061000002AF4D170BD00000400001070B5164926
:100620004A69521C4A6184680126E207002A1CD0EC
:100630004269D30505D543685B0702D5D305DB0DB9
:100640000B614B680D4DED185B1C4B602A704A68BE
:10065000202A02D100224A60CE60426803231B0296
:100660001A4342608A68521C8A60620702D50E7083
:100670000421016170BD000004000010B0000010F2
:100680000FB410B504A9074B02AA039800F07EF836
:10069000044602A9002000F05DF9204610BC08BC09
:1006A00004B018475509000030B47446641E25781C
:1006B000641CAB4200D21D46635D5B00E31830BC96
:1006C0001847000030B5002805D0164C021F2068DE
:1006D0000023014605E0084630BD904203D803469A
:1006E00040680028F9D1002B00D05968002B0AD0AF
:1006F0001C68D51AA54204D11268A4181A461C60B9
:1007000002E05A6000E02260002807D01468851AD1
:10071000A54203D10568641914604068506018460A
:1007200030BD000028000010F1B50E4C0F480C4EF3
:10073000001B0D4FC508ED0000221146009800F087
:10074000C7FC002803D13068002801D00020F8BD84
:100750003C6000202560606001203060ECE7000014
:100760002C000010140100102800001010030010CD
:1007700002E008C8121F08C1002AFAD17047002001
:1007800001E001C1121F002AFBD17047FFB58DB0F7
:100790000F4605460026D4E0252836D100246D1CDE
:1007A0006B4A012100942B780846203B9840034671
:1007B000134202D004436D1CF5E728782E2815D18A
:1007C000042004436D1C28782A280AD101CF6D1C0F
:1007D00000900BE000990A225143303940186D1CFB
:1007E00000902878014630390929F3D928786928FA
:1007F00043D006DC002871D063280BD0642804D1D4
:100800003BE0732810D0752850D0109A0F9990476C
:10081000761C95E03878694608720020487202A874
:100820003F1D0190012003E001CF01900020C04353
:1008300061070CD5002400E0641C00998C420FDA9B
:100840008442F9DB0199095D0029F5D108E0002413
:1008500000E0641C8442FCDB0199095D0029F8D1A9
:10086000361907E0019801990078491C0191109A06
:100870000F999047641EF5D262E00A20019001CFE3
:10088000002802DA40422D2102E0210504D52B2167
:100890006A461172012103E0E10705D02021F7E744
:1008A0000C910BA90B910EE00021F9E70A200190B1
:1008B00001CFF9E70199FFF71BFC0A460B9930328B
:1008C000491E0B910A700028F4D10B9803A9081A4D
:1008D00020300190600702D5009802E035E0012049
:1008E00000900199884203DD01460198081A00E052
:1008F00000200024009006E002A8109A005D0F99E5
:100900009047761C641C0C988442F5DB04E0109A36
:1009100030200F999047761C0099481E00900029BE
:10092000F5DC08E00B980B990078491C0B91109AA4
:100930000F999047761C0199481E01900029F1DC1F
:100940006D1C2878002800D026E7304611B0F0BD95
:10095000092801000A68531C0B60107070470000E2
:100960000A46044910B509180348FFF7D7FB0248A7
:1009700010BD0000E0180000F00000100FB410B52A
:1009800000210F9A05E0089B8C001B59002B03D017
:10099000491C099B8B42F6DC8900089B091F5A50B1
:1009A000302203A9FFF7BAFB10BC08BC04B01847FB
:1009B0000FB4F0B5A3B02A99299844180121204614
:1009C000FFF7CEFF0078002201232CAD2DAE3C288E
:1009D0007DD02CDC14284FD014DC062878D008DC1D
:1009E000002847D0032879D0042879D0052842D19F
:1009F00078E007287AD008287DD010286DD01228FA
:100A0000F5D153E02A2835D008DC1A2875D01B28E8
:100A100076D01C2877D01D28E9D177E02B2829D063
:100A20002C2827D02D2825D03B28E0D186E0A728E8
:100A30007DD014DC4D281DD008DC3D2878D03E2820
:100A400077D04B2816D04C28D1D113E04E2811D0A6
:100A500059280FD060286DD09228C8D1DEE0B13877
:100A60000300FFF721FE0BF9BC08BECAF8BCF7086B
:100A700008BC0800641C58E10121601CFFF770FFEE
:100A8000007801210602A01CFFF76AFF00782422EB
:100A90003018099029466846FFF740FB29A90EC97E
:100AA0000CA800F0B8FE30220CA90FE10121601C57
:100AB000FFF756FF00780990242229466846FFF781
:100AC0002DFB29A90EC90CA800F0A5FED5E041E038
:100AD0000AE003E004E009E00DE0BEE0099218E05E
:100AE000099316E0022013E0032011E004200FE038
:100AF00003E005E007E005200AE02C98006807E025
:100B00002C98406804E02C98806801E02C98C0681C
:100B10000990242229466846FFF700FB29A90EC93F
:100B20000CA800F04BFE30220CA929A803E082E0BB
:100B30001CE027E032E0FFF7F1FA9BE72022314684
:100B40006846FFF7EBFA29A80FC800F00FFA2C99B6
:100B500008608FE7202231466846FFF7DFFA29A8B0
:100B60000FC800F003FA2C99486083E72022314631
:100B70006846FFF7D3FA29A80FC800F0F7F92C99B7
:100B8000886077E7202231466846FFF7C7FA29A830
:100B90000FC800F0EBF92C99C8606BE7641C2022A9
:100BA00031466846FFF7BAFA29A80FC800F0DEF907
:100BB0000746202231466846FFF7B0FA29A80FC839
:100BC00000F0D4F938180990242229466846FFF726
:100BD000A5FA29A90EC90CA800F0F0FDA5E0E41CB7
:100BE000A3E0E41C242229466846FFF797FA29A9C6
:100BF0000EC90CA800F08EF90AE0E41C2422294654
:100C00006846FFF78BFA29A90EC90CA800F026FC4C
:100C100030220CA929A8FFF781FA86E0641C24225F
:100C2000294668460993FFF779FA29A90EC90CA845
:100C3000FFF7A4FEECE70121601CFFF791FE0078AE
:100C400001210502A01CFFF78BFE0078281800B2D6
:100C500004196AE03EE017E065E00121601CFFF73F
:100C60007FFE00780990242229466846FFF756FA4D
:100C700029A90EC90CA800F0A1FD30220CA929A8B1
:100C8000FFF74CFAA41C50E00121601CFFF768FE3E
:100C9000007801210602A01CFFF762FE00783118DF
:100CA0001DA800F05FFD14221DA90CA8FFF736FA5D
:100CB00010980990242229466846FFF72FFA29A99F
:100CC0000EC911A800F07AFA302211A929A8FFF75D
:100CD00025FA84E70121601CFFF742FE007801211C
:100CE0000602A01CFFF73CFE007831181DA800F09A
:100CF00039FD14221DA90CA8FFF710FA10980990CD
:100D0000242229466846FFF709FA29A90EC911A825
:100D100000F006FA302211A929A8FFF7FFF92A9955
:100D20002998441801E02A92339229983022201AF7
:100D30002A9029A92898FFF7F1F923B0F0BC08BC44
:100D400004B01847F3B50E46012587B000242946A4
:100D50000820FFF705FE0078012107020920FFF7B0
:100D6000FFFD007839186948002E016001D08E42DD
:100D700001DB002086E020460A3001210746FFF70C
:100D8000EFFD0078029001213846FFF7E9FD007879
:100D900000F022F9411C0ED1204601210C30FFF752
:100DA000DFFD0778204601210B30FFF7D9FD0078E1
:100DB0000002C01C3818B5420DD00299052908D090
:100DC000062906D06D1C514909688D4203DA2418A2
:100DD000D1E7AD1CF7E720460B3001210646FFF7AF
:100DE000BFFD00780121050220460C300090FFF77E
:100DF000B7FD007801212818039020460D3001909E
:100E0000FFF7AEFD00780121070220460E300546AF
:100E1000FFF7A6FD00783818049020460A300590A8
:100E200002980300FFF740FC076A056A141430308B
:100E30006A0003990198FFF793FD01463448039A2D
:100E4000FFF76CF93248039A00218154069055E06F
:100E500001212846FFF784FD047801213046FFF781
:100E60007FFD00780121000624180098FFF778FD27
:100E70000078012105040198FFF772FD0078000257
:100E800028182018039039E001212846FFF768FD53
:100E9000057801213046FFF763FD00780121000647
:100EA0002D180098FFF75CFD0078012106040198D9
:100EB000FFF756FD00780121000230182818039032
:100EC00020461230FFF74CFD0578204601210F30F7
:100ED000FFF746FD0078012100062D18204610304E
:100EE000FFF73EFD00780121060420461130FFF790
:100EF00037FD00780002301828180490142202A947
:100F00000798FFF70BF909B0F0BD000020000010B2
:100F1000D00000100FB410B5002105E0089A8B0036
:100F2000D258002A03D0491C099A8A42F6DC099A51
:100F3000521E8A4204D1089A8B00D258002A0DD141
:100F4000089C05228B00E250079C0022E250099B7E
:100F5000491C8B4202D0089B89005A50302203A9B9
:100F6000FFF7DCF810BC08BC04B0184770B58AB0B5
:100F700000200F9C0E9A109904E08300E358002B88
:100F800010D0401C8142F8DC411E8000001F205818
:100F90000025042809D088002158022919D00020F2
:100FA0000AB070BD0028FBD0EEE78E00915905A86D
:100FB00000F0B8FB142205A96846FFF7AFF8A55169
:100FC0000098052803D0062801D00198E8E7029888
:100FD000E6E725501058E3E700B50300FFF764FB90
:100FE000131411140D0D0F0F0B0B0D0D0D0D14140B
:100FF0000D0B140B1400032000BD052000BD0920BB
:1010000000BD0020C04300BD002000BD70B58CB005
:101010000021119C129B109A149804E08D006559D0
:10102000002D12D0491C8B42F8DC4B1E8900091F91
:101030006158002504290DD099006358022B16D061
:10104000012B18D0052B1ED001E00029EDD1002086
:101050000CB070BD9E00915906A800F063FB1422ED
:1010600006A901A8FFF75AF8A5510598F0E76550C1
:10107000525807A102E06550525C06A10648FFF7EE
:10108000FFFA0548E4E70028E2D06550E0E70000F9
:101090002564000025630000D000001010B5FFF7A4
:1010A0004BF9074801688022114301600649054851
:1010B00008604C200549C043086000F0D9FB10BD12
:1010C000808004400400FFFF00C00040C0C1004019
:1010D000F8B50B30C608F600104D19E02068B04294
:1010E00015D3B0420BD96368871B201D0093FFF70F
:1010F00015F8A019009B07604360286004E0606851
:101100002860201DFFF70AF8201D2660F8BD251D68
:101110002C68002CE2D10020F8BD0000280000104F
:101120000FB470B596B00646052222A12798FFF7A6
:101130000EF8002820D120221FA96846FEF7EEFFF6
:101140001BA80FC8FFF712FF044625981EAD012803
:1011500002D0032824D105E00320259000F09EFB57
:1011600026900DE000F09AFB2699401AA04207DB7A
:1011700001202590002026901C98C01C1C900FE098
:101180002422294668460994FEF7C8FF1BA90EC908
:101190000AA800F013FB30220AA91BA8FEF7BEFF25
:1011A00030221BA93046FEF7B9FF16B070BC08BC50
:1011B00004B01847736C6565700000000FB470B51B
:1011C00098B0299E0546072235A13046FEF7BFFF9D
:1011D00021AC00281DD0052233A13046FEF7B7FF11
:1011E000002829D0042232A13046FEF7B0FF20ACFF
:1011F000002833D0052230A13046FEF7A8FF002892
:101200002FD007222EA13046FEF7A1FF00282BD0B9
:101210003BE0202221466846FEF780FF1DA80FC84C
:10122000FFF7F4FE024628A108A8FFF729FA08A84C
:1012300000F042FB25A00EE0202221466846FEF782
:101240006DFF1DA80FC8FFF7E1FE02461EA108A80A
:10125000FFF716FA08A800F02FFB16E000F038FBA5
:1012600003E00220279010E02698099024222146CE
:101270006846FEF753FF1DA90EC90AA800F09EFAA2
:1012800030220AA91DA8FEF749FF30221DA92846D1
:10129000FEF744FF18B070BC08BC04B0184700004B
:1012A0007072696E746C6E007072696E740000000A
:1012B0007265616400000000737461727400000064
:1012C0006765744E616D6500257300000D0A0000AE
:1012D00096B0FFF7E3FE4B20C00100F0E5FA50A006
:1012E00000F0EAFA53A000F0E7FA00263020FFF7FA
:1012F0001BFA0446042254A1684600F015F9302276
:1013000069462046FEF70AFF00252562E069800055
:10131000FFF70AFAE060A0698000FFF705FA606154
:10132000A0698000FFF700FA206160690560012074
:101330006562A06200276EE03020784300190990B2
:10134000806A002831D0099924220C316846FEF7C2
:10135000E5FE0998082141180A78057913464A786C
:10136000120213438A78C978120413432A46457936
:1013700009062D022A4385790B432D04C1792A439E
:10138000090605780A43294645782D0229438578C0
:10139000C0782D042943000601430AA8FFF708FB83
:1013A00030220AA90998FEF7B9FEA06A022831D1B5
:1013B0000120761CA062711C30204143204600F0C1
:1013C00079F8040002D122A000F076FA032222A1CB
:1013D000684600F0A9F830207043051930226946AC
:1013E0002846FEF79BFE00202862E8698000FFF790
:1013F0009BF9E860A8698000FFF796F96861A86921
:101400008000FFF791F928616969002008600120D8
:101410006E62A8627F1C701C87428BDA8CE700002A
:101420004C5043383178204A564D205374617274C1
:101430000D0A0000706C6561736520776169742E18
:101440002E2E0D0A0D0A00006D61696E000000006D
:101450006572726F7221000072756E000FB410B564
:101460008AB00446202211A96846FEF757FE0DA84F
:101470000FC8FFF7CBFD08901598002801D0FFF7A3
:1014800021F90898FEF75CFEFFF74EF915900898D1
:10149000FEF756FE024608A915A8FEF73FFE3022C9
:1014A0000DA92046FEF73AFE0AB010BC08BC04B0F5
:1014B00018470000F3B583B005001AD028680190E2
:1014C000284640380290C76B04983E1F864200D9D8
:1014D00006462846FFF7F6F80446009132462946AC
:1014E0000498FFF7F5FD0199002806D0016005B0CA
:1014F000F0BD0498FFF718F9F9E729600299002C6C
:10150000CF630AD021686218291F8A4202D9291B99
:10151000091F216000996160E9E7024A00991160A2
:10152000E5E7000028000010F7B59CB000200D9002
:101530007B48016817A8491EFFF704FC142217A96D
:1015400004A8FEF7EBFD0498012838D0C0B2FFF7DD
:1015500043FD07990818801D00900121401CFFF7EA
:10156000FFF900780099441801210098FFF7F8F975
:10157000007801210002801C20180090401CFFF719
:10158000EFF900780099441801210098FFF7E8F975
:10159000007801210002801C20180090FFF7E0F97C
:1015A0000078012104020098401CFFF7D9F9007867
:1015B00020180A900098801C00240090A5E005984F
:1015C000C01CC6E700980121801C0090FFF7C8F9F5
:1015D0000078012105020098401CFFF7C1F900784E
:1015E000291817A8FFF7AEFB142217A904A8FEF7C5
:1015F00095FD1E9A1D990898FEF7A9FD1790009871
:101600000121801C801C0090FFF7AAF900780121BD
:1016100005020098401CFFF7A3F9007828180990EC
:101620000098801C002500906BE000980121801C30
:101630000090C01CFFF794F9067801210098FFF78D
:101640008FF900780121000636180098401CFFF73A
:1016500087F90078012107040098801CFFF780F9C2
:10166000007800023818301801900098001D009092
:101670001798002840D101210098FFF771F90078F0
:10168000012106020098401CFFF76AF90078012149
:10169000301811900098801CFFF762F90078012142
:1016A00006020098C01CFFF75BF900780121301892
:1016B00012900098C01DFFF753F906780098012199
:1016C000001DFFF74DF9007801210006361800983B
:1016D000401DFFF745F90078012107040098801D9F
:1016E000FFF73EF900780002381830180D90009886
:1016F00008300B9000200C900099019808186D1C80
:1017000000900998854290DB641C0A98844200DAB4
:1017100058E730220BA91C98FEF700FD1FB0F0BD62
:101720002000001010B58AB0044605A8FFF70AFB98
:10173000142205A96846FEF7F1FC0098072801D09D
:10174000082808D105A80199FFF7FCFA142205A979
:101750006846FEF7E3FC142269462046FEF7DEFCED
:101760000AB010BD10B58AB0044605A8FFF7EAFA22
:10177000142205A96846FEF7D1FC0098092804D078
:101780000A2802D00C2812D108E005A80299FFF718
:10179000D9FA142205A96846FEF7C0FC05A80199EC
:1017A000FFF7C0FF142205A96846FEF7B7FC142214
:1017B00069462046FEF7B2FC0AB010BD0FB470B502
:1017C0000021119B05E00A9A8C001259002A03D0CF
:1017D000491C0B9A8A42F6DC0B9A521E8A4204D1AB
:1017E0000A9A8C001259002A0DD10A9D02248A00FF
:1017F000AC50099C491CA3500B9A8A4203D000228A
:101800000A9B89005A50302205A9FEF787FC70BC5C
:1018100008BC04B018470FB470B50021119B05E057
:101820000A9A8C001259002A03D0491C0B9A8A424A
:10183000F6DC0B9A521E8A4204D10A9A8C00125985
:10184000002A0DD10A9D04248A00AC50099C491C31
:10185000A3500B9A8A4203D000220A9B89005A5057
:10186000302205A9FEF75AFC70BC08BC04B018472A
:1018700010B50848016901221143016106487D2124
:10188000C9000068FEF734FCFEF73AFD002800D0DE
:10189000FEE710BD00E000E02400001001480068F1
:1018A000704700001C00001010B501460148FEF70B
:1018B0004BFE10BD0040064010B50446FEF740FC4C
:1018C000024621460148FEF795FE10BD0040064045
:1018D00002488168C907FCD0406970470040064053
:1018E000CAFEBABE0000003200350A000F001B0914
:1018F000001C001D08001E0A001F00200A000C002A
:10190000210A001F00220500000000000003E80A71
:10191000000C00230700240800250700260A000CFD
:10192000001B0A000C00270700280100063C696E16
:1019300069743E010003282956010004436F646561
:1019400001000F4C696E654E756D6265725461627F
:101950006C6501000372756E01000D537461636B59
:101960004D61705461626C650700240100046D6173
:10197000696E010016285B4C6A6176612F6C616E9E
:10198000672F537472696E673B295601000A536FC3
:101990007572636546696C6501000A686F67653139
:1019A0002E6A6176610C001000110700290C002AD4
:1019B000002B01000E746872656164204E756D62C3
:1019C00065723D07002C0C002D002E0C002F0030FE
:1019D0000C0031002E0C0032003301001E6A6176CB
:1019E000612F6C616E672F496E74657272757074C9
:1019F0006564457863657074696F6E01000B5468A7
:101A0000726561642074657374010005686F6765B1
:101A1000310C003400110100106A6176612F6C6195
:101A20006E672F5468726561640100106A617661A7
:101A30002F6C616E672F53797374656D0100036FAE
:101A400075740100154C6A6176612F696F2F5072B1
:101A5000696E7453747265616D3B0100136A61763F
:101A6000612F696F2F5072696E7453747265616D66
:101A70000100057072696E74010015284C6A617668
:101A8000612F6C616E672F537472696E673B2956C4
:101A90000100076765744E616D6501001428294CCB
:101AA0006A6176612F6C616E672F537472696E671D
:101AB0003B0100077072696E746C6E010005736CF7
:101AC000656570010004284A295601000573746198
:101AD00072740020000C000F0000000000030000E2
:101AE00000100011000100120000001D00010001A3
:101AF000000000052AB70001B1000000010013003A
:101B000000000600010000000100010014001100A7
:101B100001001200000060000200020000001FB27D
:101B200000021203B60004B200022AB60005B60095
:101B300006140007B80009A7FFE84CA7FFE400015E
:101B400000120018001B000A000200130000001A17
:101B5000000600000005000800060012000800183A
:101B6000000A001B0009001C000A00150000000705
:101B70000002005A070016000900170018000100B3
:101B8000120000004D0002000300000021B200021C
:101B9000120BB60006BB000C59B7000D4CBB000C75
:101BA00059B7000D4D2BB6000E2CB6000EB100003B
:101BB000000100130000001A0006000000100008D9
:101BC00000120010001300180015001C0016002061
:101BD00000170001001900000002001A00000000B8
:101BE000001C000000000010300000007007000022
:101BF000301C000030000010E00400007E070000F0
:101C000000000000010000000000000000000000D3
:101C100000000000000000000000000000000000C4
:101C20000000000000366E0100000000000000000F
:04000005000000C136
:00000001FF
