:020000040000FA
:1000000018050010D5000000E5000000DD0000002C
:1000100000000000000000000000000000000000E0
:10002000000000000000000000000000DF000000F1
:100030000000000000000000E1000000D902000004
:10004000E5000000E500000000000000E9020000FB
:10005000AD040000BD04000000000000000000002E
:10006000E5000000E500000091010000E50000004F
:10007000E5000000E500000000000000E5000000D1
:100080000000000000000000000000000000000070
:100090000000000000000000000000000000000060
:1000A000D9010000E3010000ED010000E5000000BF
:1000B000F7010000010200000B0200001502000021
:1000C0000348854600F052F800480047311300000D
:1000D000180500100448804704480047FEE7FEE783
:1000E000FEE7FEE7FEE7000059040000C100000043
:1000F00030B50B46014600202022012409E00D46C0
:10010000D5409D4205D31D469540491B2546954047
:1001100040191546521E002DF1DC30BD03460B433D
:100120009B0703D009E008C9121F08C0042AFAD2AD
:1001300003E00B78491C0370401C521EF9D2704733
:10014000421C0178401C0029FBD1801A704730B551
:1001500005460020034600E05B1C934205D2EC5CA0
:10016000C85C201A01D1002CF6D130BD064C012507
:10017000064E05E02046E36807C82B439847103435
:10018000B442F7D3FFF7A0FFB41D0000D41D000058
:100190000548C168C90705D00121C160034801684D
:1001A000491C016070470000004000400000001042
:1001B000C106C90E0120884001490860704700004F
:1001C00080E100E0C106C90E0120884001490860B5
:1001D0007047000000E100E000B5002000F020F8CA
:1001E00000BD00B5012000F01BF800BD00B50220E5
:1001F00000F016F800BD00B5042000F011F800BDB5
:1002000000B5052000F00CF800BD00B5062000F098
:1002100007F800BD00B5072000F002F800BD00009F
:10022000F0B52B4A810053585B1C5350294CA26AED
:10023000274DD30740352E46203601228240002B21
:1002400024D0236B4700C0190830C3405807400F23
:10025000030000F029FA08130505052121131413E2
:10026000E069104204D0E2616858401C685003E025
:1002700022627058401C7050E06AE062F0BD68581D
:10028000401C68507058401C7050F0BD606A1042AD
:10029000FBD02068104205D00D4820304258521C37
:1002A0004250F0BDE069104206D06068104203D0B1
:1002B0006858401C6850E261206A104206D02069EC
:1002C000104203D07058401C705022626262F0BD30
:1002D00034000010004000A002480168491C016081
:1002E000704700001C00001000B5024800F096F9AD
:1002F00000BD00000040064070470000FFFFFFFF08
:100300000A4910B5401E884201D9012010BD084994
:10031000486108480722C3691B021B0A4C04234397
:10032000C361002088610A6110BD0000FFFFFF006B
:1003300000E000E004ED00E070B5354D0020696A92
:10034000C905090F0B0000F0AFF91026090B0D0FBE
:1003500011131517191B1D1F212325262D481AE0DF
:100360002D4818E02D4816E02D4814E02D4812E0E5
:100370002D4810E02D480EE02D480CE02D480AE0F5
:100380002D4808E02D4806E02D4804E02D4802E005
:100390002D4800E02D48696AC906890E891CFFF7BF
:1003A000A7FE1B4940310A6B2A4C9607284AB60F14
:1003B00011D00023012E04D0022E0ED0032E1AD10C
:1003C0000DE008688007800F05D0012803D00228BF
:1003D00010D003280FD122600DE020600BE00868E8
:1003E0008007800F0DD001280BD0022802D00328EF
:1003F00001D106E02360896B2068FFF779FE206059
:1004000070BDA868124AC006C00E401C5043E4E705
:100410000080044020A1070000350C00E0C8100057
:10042000C05C1500006A180040771B0080841E0025
:10043000C0912100009F240040AC2700E032290039
:1004400020402C00604D2F0000D4300040E13300EC
:10045000001BB7002800001030B511480168114A90
:10046000114301600E4800214038016001214160C4
:100470004268D207FCD00A4A4123803A93600A4B73
:100480009C6B8025AC439C63D368DB07FCD00322C4
:1004900002634163426BD207FCD0816330BD000030
:1004A00080800440800004000082044000B50248BF
:1004B00000F0B4F800BD00000080064000B502481E
:1004C00000F0ACF800BD000000C0064070B51A4D49
:1004D00001216961184C194B803C194A194998420D
:1004E0000AD10320FFF764FE28680121890308432D
:1004F00028606168082018E090420AD10420FFF7C4
:1005000057FE28680121C90308432860616810204C
:100510000BE088420ED10520FFF74AFE2868012132
:100520000904084328606168202081436160616894
:100530000143616070BD00008080044000400640BF
:100540000080064000C00640F3B50446224881B052
:10055000012606702046FFF7B9FF204D6969204843
:100560000068FFF7C5FD042121606969002920D0DA
:10057000070938460299FFF7BBFD401E2062174D60
:10058000FF2040352863296B3846491C4843216ABF
:10059000029A491C5143FFF7ABFD296B401A401EDC
:1005A000686341204001A0600E48844202D10320CC
:1005B00009E0FEE70C48844201D1042003E00B4827
:1005C000844202D10520FFF7FDFD0948E060206864
:1005D00030432060FEBD0000040000108080044015
:1005E00028000010004006400080064000C0064081
:1005F0000508000070B50024074B042508E01E78AC
:10060000F607FCD00E78491CC6611C70C560521EEE
:10061000002AF4D170BD00000400001070B5164926
:100620004A69521C4A6184680126E207002A1CD0EC
:100630004269D30505D543685B0702D5D305DB0DB9
:100640000B614B680D4DED185B1C4B602A704A68BE
:10065000202A02D100224A60CE60426803231B0296
:100660001A4342608A68521C8A60620702D50E7083
:100670000421016170BD000004000010B4000010EE
:100680000FB410B504A9074B02AA039800F07EF836
:10069000044602A9002000F05DF9204610BC08BC09
:1006A00004B018475509000030B47446641E25781C
:1006B000641CAB4200D21D46635D5B00E31830BC96
:1006C0001847000030B5002805D0164C021F2068DE
:1006D0000023014605E0084630BD904203D803469A
:1006E00040680028F9D1002B00D05968002B0AD0AF
:1006F0001C68D51AA54204D11268A4181A461C60B9
:1007000002E05A6000E02260002807D01468851AD1
:10071000A54203D10568641914604068506018460A
:1007200030BD00002C000010F1B50E4C0F480C4EEF
:10073000001B0D4FC508ED0000221146009800F087
:10074000E5FC002803D13068002801D00020F8BD66
:100750003C6000202560606001203060ECE7000014
:10076000300000101C0100102C00001018030010B5
:1007700002E008C8121F08C1002AFAD17047002001
:1007800001E001C1121F002AFBD17047FFB58DB0F7
:100790000F4605460026D4E0252836D100246D1CDE
:1007A0006B4A012100942B780846203B9840034671
:1007B000134202D004436D1CF5E728782E2815D18A
:1007C000042004436D1C28782A280AD101CF6D1C0F
:1007D00000900BE000990A225143303940186D1CFB
:1007E00000902878014630390929F3D928786928FA
:1007F00043D006DC002871D063280BD0642804D1D4
:100800003BE0732810D0752850D0109A0F9990476C
:10081000761C95E03878694608720020487202A874
:100820003F1D0190012003E001CF01900020C04353
:1008300061070CD5002400E0641C00998C420FDA9B
:100840008442F9DB0199095D0029F5D108E0002413
:1008500000E0641C8442FCDB0199095D0029F8D1A9
:10086000361907E0019801990078491C0191109A06
:100870000F999047641EF5D262E00A20019001CFE3
:10088000002802DA40422D2102E0210504D52B2167
:100890006A461172012103E0E10705D02021F7E744
:1008A0000C910BA90B910EE00021F9E70A200190B1
:1008B00001CFF9E70199FFF71BFC0A460B9930328B
:1008C000491E0B910A700028F4D10B9803A9081A4D
:1008D00020300190600702D5009802E035E0012049
:1008E00000900199884203DD01460198081A00E052
:1008F00000200024009006E002A8109A005D0F99E5
:100900009047761C641C0C988442F5DB04E0109A36
:1009100030200F999047761C0099481E00900029BE
:10092000F5DC08E00B980B990078491C0B91109AA4
:100930000F999047761C0199481E01900029F1DC1F
:100940006D1C2878002800D026E7304611B0F0BD95
:10095000092801000A68531C0B60107070470000E2
:100960000A46044910B509180348FFF7D7FB0248A7
:1009700010BD0000B41A0000F40000100FB410B550
:100980000021119A05E0089B8C001B59002B03D015
:10099000491C099B8B42F6DC8900089B091F5A50B1
:1009A000382203A9FFF7BAFB10BC08BC04B01847F3
:1009B0000FB4F0B59BB0229921984418012120462C
:1009C000FFF7CEFF00780022012324AD25AE3C289E
:1009D0007BD02CDC14284FD014DC062876D008DC21
:1009E000002847D0032877D0042877D0052842D1A3
:1009F00076E0072878D0082878D010286BD0122805
:100A0000F5D151E02A2835D008DC1A2873D01B28EC
:100A100074D01C2875D01D28E9D175E02B2829D069
:100A20002C2827D02D2825D03B28E0D183E0A728EB
:100A30007DD014DC4D281DD008DC3D2878D03E2820
:100A400077D04B2816D04C28D1D113E04E2811D0A6
:100A500059280FD060286DD09228C8D1F8E0B1385D
:100A60000300FFF721FE0BF4B908BBD4F3B9F20879
:100A700008B90800641C5DE10121601CFFF770FFEC
:100A8000007801210602A01CFFF76AFF00782C22E3
:100A900030180B9029466846FFF740FB21A90EC984
:100AA0000CA800F0A2FF1DE10121601CFFF758FF18
:100AB00000780B902C2229466846FFF72FFB21A9CE
:100AC0000EC90CA800F091FFEEE040E00AE003E060
:100AD00004E009E00AE0D7E00B9218E00B9316E07F
:100AE000022013E0032011E004200FE005200DE0B8
:100AF00001E003E005E02498006807E024984068DE
:100B000004E02498806801E02498C0680B902C22AF
:100B100029466846FFF702FB21A90EC90CA800F080
:100B200037FF38220CA921A8FFF7F8FAA2E79CE0CA
:100B300019E024E02FE0282231466846FFF7EEFA5C
:100B400021A80FC800F038FA2499086092E72822FB
:100B500031466846FFF7E2FA21A80FC800F02CFAE8
:100B60002499486086E7282231466846FFF7D6FA7E
:100B700021A80FC800F020FA249988607AE728227B
:100B800031466846FFF7CAFA21A80FC800F014FAE8
:100B90002499C8606EE7641C282231466846FFF736
:100BA000BDFA21A80FC800F007FA074628223146EF
:100BB0006846FFF7B3FA21A80FC800F0FDF938180E
:100BC0000B902C2229466846FFF7A8FA21A90EC9E6
:100BD0000CA800F0DDFEADE0E41CABE0E41C01215C
:100BE000601CFFF7BDFE007801210602A01CFFF784
:100BF000B7FE00782C2230180B9029466846FFF784
:100C00008DFA21A90EC90CA800F08AF917E0E41C9E
:100C10000121601CFFF7A4FE007801210602A01C40
:100C2000FFF79EFE00782C2230180B90294668466C
:100C3000FFF774FA21A90EC90CA800F06FFC382246
:100C40000CA921A8FFF76AFA74E051E033E06FE0E5
:100C5000641C2C22294668460B93FFF75FFA21A9F2
:100C60000EC90CA8FFF78AFEE9E70121601CFFF717
:100C700077FE007801210502A01CFFF771FE0078C5
:100C8000281800B2041955E00121601CFFF768FE26
:100C900000780B902C2229466846FFF73FFA21A9DD
:100CA0000EC90CA800F074FE38220CA921A8FFF789
:100CB00035FAA41C3EE00121601CFFF751FE0078CC
:100CC00001210602A01CFFF74BFE00782C223018F1
:100CD0000B9029466846FFF721FA21A90EC90CA8F6
:100CE00000F094FA38220CA921A8FFF717FA73E74D
:100CF0000121601CFFF734FE007801210602A01CD0
:100D0000FFF72EFE00782C2230180B9029466846FB
:100D1000FFF704FA21A90EC90CA800F01FFA382227
:100D20000CA921A8FFF7FAF922992198441801E0AB
:100D300022922D9221983822201A229021A92098BF
:100D4000FFF7ECF91BB0F0BC08BC04B0184700007A
:100D5000F3B50E46012587B0002429460820FFF789
:100D6000FFFD0078012107020920FFF7F9FD007857
:100D700039186948002E016001D08E4201DB002045
:100D800086E020460A3001210746FFF7E9FD00789A
:100D9000029001213846FFF7E3FD007800F042F9A8
:100DA000411C0ED1204601210C30FFF7D9FD0778F8
:100DB000204601210B30FFF7D3FD00780002C01C54
:100DC0003818B5420DD00299052908D0062906D059
:100DD0006D1C514909688D4203DA2418D1E7AD1C16
:100DE000F7E720460B3001210646FFF7B9FD0078F2
:100DF0000121050220460C300090FFF7B1FD00787C
:100E000001212818039020460D300190FFF7A8FD1E
:100E100000780121070220460E300546FFF7A0FDAD
:100E200000783818049020460A3005900298030094
:100E3000FFF73AFC076A056A141430306A00039918
:100E40000198FFF78DFD01463448039AFFF766F9D4
:100E50003248039A00218154069055E0012128462A
:100E6000FFF77EFD047801213046FFF779FD007819
:100E70000121000624180098FFF772FD0078012177
:100E800005040198FFF76CFD00780002281820186F
:100E9000039039E001212846FFF762FD0578012122
:100EA0003046FFF75DFD0078012100062D180098FF
:100EB000FFF756FD0078012106040198FFF750FD69
:100EC00000780121000230182818039020461230C3
:100ED000FFF746FD0578204601210F30FFF740FD62
:100EE0000078012100062D1820461030FFF738FD4C
:100EF00000780121060420461130FFF731FD00780B
:100F00000002301828180490142202A90798FFF74D
:100F100005F909B0F0BD000020000010D400001059
:100F20000FB430B59BB02D9C05462146684600F0B5
:100F3000D7FC1422694605A8FFF7F0F8012218A192
:100F40000998FFF704F900281AD01FE028998200B9
:100F50008958A14213D12799800008580B902C2260
:100F600022A96846FFF7DAF81FA90EC90CA800F0FD
:100F70000FFD38220CA91FA8FFF7D0F806E0401C8F
:100F800029998142E2DC07A000F080FD38221FA9E8
:100F90002846FFF7C3F81BB030BC08BC04B01847A4
:100FA000490000006765744669656C64206572726B
:100FB0006F720D0A0000000070B58AB000200F9C0F
:100FC0000E9A109904E08300E358002B10D0401CC7
:100FD0008142F8DC411E8000001F205800250428B3
:100FE00009D088002158022919D000200AB070BD0C
:100FF0000028FBD0EEE78E00915905A800F050FCC8
:10100000142205A96846FFF789F8A551009805281C
:1010100003D0062801D00198E8E70298E6E72550BA
:101020001058E3E700B50300FFF73EFB131411145B
:101030000D0D0F0F0B0B0D0D0D0D14140D0B140BCF
:101040001400032000BD052000BD092000BD0020C4
:10105000C04300BD002000BD70B58CB00020119CC5
:10106000129A109904E08300E358002B12D0401C20
:101070008242F8DC421E8000001F20580025042810
:101080000BD090002258022A14D0012A16D000203A
:101090000CB070BD0028FBD0ECE79600895906A87B
:1010A00000F0FEFB142206A901A8FFF737F8A551AE
:1010B0000598EDE725500A5804A102E025500A5C86
:1010C00003A10448FFF7DCFA0248E1E725640000C9
:1010D00025630000D400001010B5FFF72DF9074874
:1010E00001688022114301600649054808604C20D0
:1010F0000549C043086000F0A5FC10BD8080044095
:101100000400FFFF00C00040C0C10040F8B50B3034
:10111000C608F600104D19E02068B04215D3B04261
:101120000BD96368871B201D0093FEF7F7FFA019FA
:10113000009B07604360286004E060682860201D11
:10114000FEF7ECFF201D2660F8BD251D2C68002C45
:10115000E2D10020F8BD00002C0000100FB470B5E3
:101160009AB0064668462D9900F0E6FB14226946BF
:1011700005A8FEF7D3FF052222A10998FEF7E7FF95
:10118000002820D1282223A96846FEF7C7FF1FA800
:101190000FC8FFF711FF04462B9822AD012802D09B
:1011A000062824D105E006202B9000F061FC2C904D
:1011B0000DE000F05DFC2C99401AA04207DB0120F5
:1011C0002B9000202C902098C01C20900FE02C2207
:1011D000294668460B94FEF7A1FF1FA90EC90CA86B
:1011E00000F0D6FB38220CA91FA8FEF797FF382283
:1011F0001FA93046FEF792FF1AB070BC08BC04B0BD
:1012000018470000736C6565700000000FB470B57E
:101210009AB0054668462D9900F08EFB1422694667
:1012200005A8FEF77BFF099E072235A13046FEF791
:101230008EFF23AC00281DD0052233A13046FEF7D7
:1012400086FF002829D0042231A13046FEF77FFF17
:1012500022AC002833D005222FA13046FEF777FFBD
:1012600000282FD007222EA13046FEF770FF00285D
:101270002BD03BE0282221466846FEF74FFF1FA8EF
:101280000FC8FFF7E9FE024627A10AA8FFF7F8F901
:101290000AA800F0FBFB25A00EE0282221466846A4
:1012A000FEF73CFF1FA80FC8FFF7D6FE02461EA19F
:1012B0000AA8FFF7E5F90AA800F0E8FB16E000F03D
:1012C000F1FB03E002202B9010E02A980B902C22D7
:1012D00021466846FEF722FF1FA90EC90CA800F0A0
:1012E00057FB38220CA91FA8FEF718FF38221FA9A8
:1012F0002846FEF713FF1AB070BC08BC04B01847AC
:101300007072696E746C6E007072696E74000000A9
:101310007265616400000000737461727400000003
:101320006765744E616D6500257300000D0A00004D
:101330009AB0FFF7D1FE4B20C00100F09FFB64A0E4
:1013400000F0A4FB67A000F0A1FB00253820FFF708
:10135000EBF90446042268A1684600F089F93822B6
:1013600069462046FEF7DAFE00262662A662E0699C
:101370008000FFF7D9F9E060A0698000FFF7D4F999
:101380006061A0698000FFF7CFF9206160690660A5
:101390000120E662206300276FE0382078430019BF
:1013A0000B90006B002831D00B992C220C31684631
:1013B000FEF7B4FE0B98082141180A780679134607
:1013C0004A78120213438A78C978120413433246CA
:1013D000467909063602324386790B433604C179D1
:1013E0003243090606780A433146467836023143CD
:1013F0008678C07836043143000601430CA8FFF715
:10140000D7FA38220CA90B98FEF788FE206B022829
:1014100032D101206D1C2063691C382041432046D5
:1014200000F0ECF8040002D135A000F02FFB0322FD
:1014300035A1684600F01CF93820684306193822A7
:1014400069463046FEF76AFE00203062B062F069FD
:101450008000FFF769F9F060B0698000FFF764F978
:101460007061B0698000FFF75FF930617169002039
:1014700008600120F56230637F1C6E1CB7428CDB74
:101480000021084607E0382242431219126B002A55
:1014900000D0491C401CB042F5DB002900D07AE79F
:1014A00000250CE0382068430719F868FFF70AF9AF
:1014B0007869FFF707F93869FFF704F96D1CB54241
:1014C000F0DB2046FFF7FEF810A000F0DFFAFEE7A1
:1014D0004C5043383178204A564D20537461727411
:1014E0000D0A0000706C6561736520776169742E68
:1014F0002E2E0D0A0D0A00006D61696E00000000BD
:101500006572726F7221000072756E000D0A0D0A0D
:101510004A564D2046696E0D0A0000000FB4F0B522
:101520008BB01F9D07462946684600F0D9F9142262
:10153000694605A8FEF7F2FD01222FA10998FEF7E2
:1015400006FE00284ED11B9815AE002801D00024BD
:101550002AE00420FFF7E8F819900420FFF7E4F8E8
:101560001A9001201B90282231466846FEF7D6FDCE
:1015700011A80FC8FFF720FD199908601A98056097
:1015800030E01A98A1004058A8420CD128223146D8
:101590006846FEF7C3FD11A80FC8FFF70DFD1999A6
:1015A000A20088501EE0641C1B98A042E9DC401C8D
:1015B00084001B902146199800F020F819902146CC
:1015C0001A9800F01BF81A90282231466846FEF758
:1015D000A5FD11A80FC8FFF7EFFC1999241F0851AA
:1015E0001A980551382211A93846FEF797FD0BB01D
:1015F000F0BC08BC04B0184749000000F3B583B044
:1016000005001AD028680190284640380290C76B20
:1016100004983E1F864200D906462846FFF752F836
:1016200004460091324629460498FFF76FFD019960
:10163000002806D0016005B0F0BD0498FFF774F8EB
:10164000F9E729600299002CCF630AD0216862185B
:10165000291F8A4202D9291B091F21600099616054
:10166000E9E7024A00991160E5E700002C0000104C
:10167000F7B59EB00020894C0C9021686846491E41
:10168000FFF766FB1422694605A8FEF747FD05989B
:10169000012829D0C0B2FFF7C5FC08990818801DA1
:1016A00000900121401CFFF75BF900780099451874
:1016B00001210098FFF754F9007801210002801CF5
:1016C00028180090FFF74CF90078012105020098D6
:1016D000401CFFF745F900782E180098801C0090F8
:1016E000002E19D0002515E00698C01CD5E7801DF6
:1016F00001210090FFF734F90078012107020098DA
:10170000401CFFF72DF9007800993818891C08183B
:101710006D1C0090B542EADB0121FFF721F900784A
:10172000012105020098401CFFF71AF900782818DB
:1017300060600098801C00250090A2E000980121C4
:10174000801C0090FFF70CF900780121040200983A
:10175000401CFFF705F90078211818A8FFF7F8FAE0
:10176000142218A905A8FEF7D9FC209A1F990998F8
:10177000FEF7EDFC189000980121801C801C009061
:10178000FFF7EEF80078012104020098401CFFF7F3
:10179000E7F80078201802900098801C0024009040
:1017A0006BE000980121801C0090C01CFFF7D8F866
:1017B000067801210098FFF7D3F800780121000690
:1017C00036180098401CFFF7CBF800780121070479
:1017D0000098801CFFF7C4F8007800023818301811
:1017E00001900098001D00901898002840D1012118
:1017F0000098FFF7B5F80078012106020098401C18
:10180000FFF7AEF800780121301810900098801C86
:10181000FFF7A6F80078012106020098C01CFFF728
:101820009FF800780121301811900098C01DFFF733
:1018300097F8067800980121001DFFF791F80078CD
:101840000121000636180098401DFFF789F800783E
:10185000012107040098801DFFF782F8007800023C
:10186000381830180C90009808300A9000200B901F
:10187000009901980818641C00900298844290DB3B
:101880006D1C06484068854200DA57E738220AA9ED
:101890001E98FEF743FC21B0F0BD000020000010B0
:1018A00010B58AB0044605A8FFF752FA142205A91C
:1018B0006846FEF733FC0098072801D0082808D1B5
:1018C00005A80199FFF744FA142205A96846FEF716
:1018D00025FC142269462046FEF720FC0AB010BD04
:1018E00010B58AB0044605A8FFF732FA142205A9FC
:1018F0006846FEF713FC0098092804D00A2802D095
:101900000C2812D108E005A80299FFF721FA142249
:1019100005A96846FEF702FC05A80299FFF7C0FF7B
:10192000142205A96846FEF7F9FB142269462046F1
:10193000FEF7F4FB0AB010BD10B58AB0044605A846
:10194000FFF706FA142205A96846FEF7E7FB0098A0
:10195000092804D00A2802D00C2812D108E005A8D2
:101960000299FFF7F5F9142205A96846FEF7D6FBA0
:1019700005A80199FFF794FF142205A96846FEF710
:10198000CDFB142269462046FEF7C8FB0AB010BD05
:101990000FB470B50021139B05E00A9A8C00125910
:1019A000002A03D0491C0B9A8A42F6DC0B9A521E7D
:1019B0008A4204D10A9A8C001259002A0DD10A9D3C
:1019C00002248A00AC50099C491CA3500B9A8A42FD
:1019D00003D000220A9B89005A50382205A9FEF73D
:1019E0009DFB70BC08BC04B018470FB470B5002153
:1019F000139B05E00A9A8C001259002A03D0491C57
:101A00000B9A8A42F6DC0B9A521E8A4204D10A9A39
:101A10008C001259002A0DD10A9D04248A00AC5072
:101A2000099C491CA3500B9A8A4203D000220A9BAE
:101A300089005A50382205A9FEF770FB70BC08BC1B
:101A400004B0184710B5084801690122114301612B
:101A500006487D21C9000068FEF74AFBFEF750FCEE
:101A6000002800D0FEE710BD00E000E028000010D4
:101A700001480068704700001C00001010B50146C6
:101A80000148FEF761FD10BD0040064010B5044658
:101A9000FEF756FB024621460148FEF7ABFD10BD9E
:101AA0000040064002488168C907FCD04069704781
:101AB00000400640CAFEBABE0000003200350A00EF
:101AC0000F001B09001C001D08001E0A001F00203B
:101AD0000A000B00210A001F002205000000000080
:101AE0000003E80A000B00230700240700250A0072
:101AF0000B001B0A000B0026080027070028010026
:101B0000063C696E69743E010003282956010004F1
:101B1000436F646501000F4C696E654E756D6265BB
:101B2000725461626C6501000372756E01000D53A1
:101B30007461636B4D61705461626C6507002401D0
:101B400000046D61696E010016285B4C6A61766164
:101B50002F6C616E672F537472696E673B29560153
:101B6000000A536F7572636546696C6501000A6807
:101B70006F6765312E6A6176610C001000110700F5
:101B8000290C002A002B01000E7468726561642024
:101B90004E756D6265723D07002C0C002D002E0CF9
:101BA000002F00300C0031002E0C003200330100F9
:101BB0001E6A6176612F6C616E672F496E74657263
:101BC000727570746564457863657074696F6E01D1
:101BD0000005686F6765310C0034001101000B547B
:101BE000687265616420746573740100106A6176BF
:101BF000612F6C616E672F5468726561640100101B
:101C00006A6176612F6C616E672F53797374656DAD
:101C10000100036F75740100154C6A6176612F69CC
:101C20006F2F5072696E7453747265616D3B010061
:101C3000136A6176612F696F2F5072696E745374E5
:101C40007265616D0100057072696E74010015287E
:101C50004C6A6176612F6C616E672F537472696E86
:101C6000673B29560100076765744E616D65010089
:101C70001428294C6A6176612F6C616E672F53744A
:101C800072696E673B0100077072696E746C6E0159
:101C90000005736C656570010004284A295601002F
:101CA0000573746172740020000B000F00000000C7
:101CB0000003000000100011000100120000001DD0
:101CC00000010001000000052AB70001B10000007A
:101CD00001001300000006000100000001000100E7
:101CE0001400110001001200000060000200020058
:101CF00000001FB200021203B60004B200022AB6AE
:101D00000005B60006140007B80009A7FFE84CA7B5
:101D1000FFE4000100120018001B000A000200137B
:101D20000000001A0006000000050008000600126E
:101D300000080018000A001B0009001C000A00151A
:101D4000000000070002005A0700160009001700F3
:101D500018000100120000004D0002000300000006
:101D600021BB000B59B7000C4CBB000B59B7000C42
:101D70004D2BB6000D2CB6000DB20002120EB600AF
:101D800006B10000000100130000001A0006000068
:101D900000110008001200100014001400150018B3
:101DA0000017002000180001001900000002001AAE
:101DB00000000000D41D00000000001034000000EE
:101DC00070070000081E000034000010E40400004A
:101DD0007E0700000000000001000000000000007D
:101DE00000000000000000000000000000000000F3
:101DF00000000000000000000000000000366E013E
:081E00000000000000000000DA
:04000005000000C136
:00000001FF
