:020000040000FA
:1000000010040010D5000000E5000000DD00000035
:1000100000000000000000000000000000000000E0
:10002000000000000000000000000000DF000000F1
:100030000000000000000000E1000000E3000000FC
:10004000E5000000E500000000000000D90200000B
:10005000E90200005503000000000000000000005D
:10006000E5000000E500000091010000E50000004F
:10007000E5000000E500000000000000E5000000D1
:100080000000000000000000000000000000000070
:100090000000000000000000000000000000000060
:1000A000D9010000E3010000ED010000E5000000BF
:1000B000F7010000010200000B0200001502000021
:1000C0000348854600F052F800480047390E00000A
:1000D000100400100448804704480047FEE7FEE78C
:1000E000FEE7FEE7FEE7000001030000C10000009C
:1000F00030B50B46014600202022012409E00D46C0
:10010000D5409D4205D31D469540491B2546954047
:1001100040191546521E002DF1DC30BD03460B433D
:100120009B0703D009E008C9121F08C0042AFAD2AD
:1001300003E00B78491C0370401C521EF9D2704733
:10014000421C0178401C0029FBD1801A704730B551
:1001500005460020034600E05B1C934205D2EC5CA0
:10016000C85C201A01D1002CF6D130BD064C012507
:10017000064E05E02046E36807C82B439847103435
:10018000B442F7D3FFF7A0FFF415000014160000E7
:100190000548C168C90705D00121C160034801684D
:1001A000491C016070470000004000400000001042
:1001B000C106C90E0120884001490860704700004F
:1001C00080E100E0C106C90E0120884001490860B5
:1001D0007047000000E100E000B5002000F020F8CA
:1001E00000BD00B5012000F01BF800BD00B50220E5
:1001F00000F016F800BD00B5042000F011F800BDB5
:1002000000B5052000F00CF800BD00B5062000F098
:1002100007F800BD00B5072000F002F800BD00009F
:10022000F0B52B4A810053585B1C5350294CA26AED
:10023000274DD30740352E46203601228240002B21
:1002400024D0236B4700C0190830C3405807400F23
:10025000030000F075F90813050505212113141397
:10026000E069104204D0E2616858401C685003E025
:1002700022627058401C7050E06AE062F0BD68581D
:10028000401C68507058401C7050F0BD606A1042AD
:10029000FBD02068104205D00D4820304258521C37
:1002A0004250F0BDE069104206D06068104203D0B1
:1002B0006858401C6850E261206A104206D02069EC
:1002C000104203D07058401C705022626262F0BD30
:1002D0002C000010004000A000B5024800F0EAF831
:1002E00000BD00000040064000B5024800F0E2F802
:1002F00000BD00000080064070470000FFFFFFFFC8
:1003000030B511480168114A114301600E480021BF
:1003100040380160012141604268D207FCD00A4A9E
:100320004123803A93600A4B9C6B8025AC439C63CD
:10033000D368DB07FCD0032202634163426BD20720
:10034000FCD0816330BD0000808004408000040048
:100350000082044000B5024800F0ACF800BD000087
:1003600000C0064070B51A4D01216961184C194B47
:10037000803C194A194998420AD10320FFF718FF17
:10038000286801218903084328606168082018E073
:1003900090420AD10420FFF70BFF28680121C9030E
:1003A00008432860616810200BE088420ED10520C8
:1003B000FFF7FEFE286801210904084328606168F0
:1003C00020208143616061680143616070BD00006D
:1003D00080800440004006400080064000C0064087
:1003E000F3B50446224881B0012606702046FFF787
:1003F000B9FF204D696920480068FFF779FE0421A4
:1004000021606969002920D0070938460299FFF761
:100410006FFE401E2062174DFF2040352863296B78
:100420003846491C4843216A029A491C5143FFF748
:100430005FFE296B401A401E686341204001A060A6
:100440000E48844202D1032009E0FEE70C488442B2
:1004500001D1042003E00B48844202D10520FFF7BC
:10046000B1FE0948E060206830432060FEBD000016
:10047000040000108080044020000010004006406E
:100480000080064000C006400508000070B500244A
:10049000074B042508E01E78F607FCD00E78491CAF
:1004A000C6611C70C560521E002AF4D170BD0000E8
:1004B0000400001070B516494A69521C4A618468EC
:1004C0000126E207002A1CD04269D30505D54368FE
:1004D0005B0702D5D305DB0D0B614B680D4DED18A5
:1004E0005B1C4B602A704A68202A02D100224A60B5
:1004F000CE60426803231B021A4342608A68521C82
:100500008A60620702D50E700421016170BD00008F
:1005100004000010AC0000100FB410B504A9074B84
:1005200002AA039800F028F8044602A9002000F06F
:1005300007F9204610BC08BC04B01847410700006A
:1005400030B47446641E2578641CAB4200D21D464C
:10055000635D5B00E31830BC184702E008C8121F57
:1005600008C1002AFAD17047002001E001C1121F22
:10057000002AFBD170470000FFB58DB00F4605463D
:100580000026D4E0252836D100246D1C6B4A0121B9
:1005900000942B780846203B98400346134202D033
:1005A00004436D1CF5E728782E2815D10420044358
:1005B0006D1C28782A280AD101CF6D1C00900BE011
:1005C00000990A225143303940186D1C0090287858
:1005D000014630390929F3D92878692843D006DC47
:1005E000002871D063280BD0642804D13BE0732825
:1005F00010D0752850D0109A0F999047761C95E02E
:100600003878694608720020487202A83F1D0190A0
:10061000012003E001CF01900020C04361070CD509
:10062000002400E0641C00998C420FDA8442F9DB5C
:100630000199095D0029F5D108E0002400E0641C5F
:100640008442FCDB0199095D0029F8D1361907E0E5
:10065000019801990078491C0191109A0F999047CF
:10066000641EF5D262E00A20019001CF002802DA70
:1006700040422D2102E0210504D52B216A4611724A
:10068000012103E0E10705D02021F7E70C910BA938
:100690000B910EE00021F9E70A20019001CFF9E764
:1006A0000199FFF725FD0A460B993032491E0B913F
:1006B0000A700028F4D10B9803A9081A2030019081
:1006C000600702D5009802E035E001200090019912
:1006D000884203DD01460198081A00E0002000244A
:1006E000009006E002A8109A005D0F999047761CD2
:1006F000641C0C988442F5DB04E0109A30200F99BA
:100700009047761C0099481E00900029F5DC08E00F
:100710000B980B990078491C0B91109A0F999047F0
:10072000761C0199481E01900029F1DC6D1C287887
:10073000002800D026E7304611B0F0BD092801009E
:100740000A68531C0B601070704700000A46044989
:1007500010B509180348FFF7E1FC024810BD00007E
:1007600050130000EC0000100FB410B500210C9ADB
:1007700005E0089B8C001B59002B03D0491C099BEA
:100780008B42F6DC8900089B091F5A50242203A9DA
:10079000FFF7C4FC10BC08BC04B018470FB4F0B598
:1007A0009BB024A8002525AE0790229921984418D3
:1007B00001212046FFF7CAFF00781D285AD017DC18
:1007C00008284CD007DC0300FFF7BAFE082C2D2DBB
:1007D0003F414345472D1A2843D004DC102874D0EC
:1007E000122820D120E01B283ED01C28F9D13EE061
:1007F000A7286BD00EDC3E2876D006DC3B284CD0F8
:100800003C2856D03D28ECD162E0602879D092286F
:10081000E7D1B6E0B1380300FFF792FE06FD94E69B
:1008200096A2EAE6641CDFE00121601CFFF78EFF60
:1008300000780690182268460799FFF76FFC21A9F7
:100840000EC908A800F03BFDC8E0069515E00120A0
:1008500012E0022010E003200EE004200CE005204E
:100860000AE02498006807E02498406804E024988F
:10087000806801E02498C0680690182268460799AD
:10088000FFF74CFC21A90EC908A800F0EBFC2422BC
:1008900008A921A8FFF742FCC4E7142231466846A4
:1008A000FFF73CFC21A80FC800F0AEF924990860BE
:1008B000B8E7142231466846FFF730FC21A80FC87C
:1008C00000F0A2F924994860ACE777E067E00BE01C
:1008D000142231466846FFF721FC21A80FC800F01A
:1008E00093F9249988609DE7142231466846FFF702
:1008F00015FC21A80FC800F087F92499C86091E77A
:10090000FFE7641C142231466846FFF707FC21A864
:100910000FC800F079F90746142231466846FFF700
:10092000FDFB21A80FC800F06FF9381806901822B7
:1009300068460799FFF7F2FB21A90EC908A800F045
:1009400091FC51E0E41C4FE0E41C18226846079932
:10095000FFF7E4FB21A90EC908A800F029F90AE075
:10096000E41C182268460799FFF7D8FB21A90EC995
:1009700008A800F001FB242208A921A8FFF7CEFB5C
:1009800032E001200690641C182268460799FFF7A0
:10099000C5FB21A90EC908A8FFF7E6FEEBE7012178
:1009A000601CFFF7D3FE007801210702A01CFFF7AF
:1009B000CDFE0078381800B2041915E00121601C42
:1009C000FFF7C4FE00780690182268460799FFF7E3
:1009D000A5FB21A90EC908A800F044FC242208A9FF
:1009E00021A8FFF79BFBA41C2198201A2290DCE68B
:1009F0000121601CFFF7AAFE007801210702A01C5C
:100A0000FFF7A4FE007839180DA800F0FFFB1422B0
:100A10000DA908A800E00EE0FFF780FB0C980690F7
:100A2000182268460799FFF779FB21A90EC912A879
:100A300000F094F986E7242221A922952098FFF757
:100A40006DFB1BB0F0BC08BC04B0184710B5002803
:100A500023D0124B001F0022196803E0814203D803
:100A60000A4649680029F9D1002A0AD01368841A75
:100A70009C4204D1006818181060104602E05060D3
:100A800000E01860002907D002680B1A934203D1D6
:100A90000B68D21802604968416010BD2400001044
:100AA000F3B50E46012585B0002429460820FFF73E
:100AB0004DFE0078012107020920FFF747FE00786C
:100AC00039183948002E016001D08E4202DB002027
:100AD000019061E020460A3001210746FFF736FE0B
:100AE0000078009001213846FFF730FE007800F0D2
:100AF000BDF8411C0ED1204601210C30FFF726FE27
:100B00000778204601210B30FFF720FE0078000215
:100B1000C01C3818B5420DD00099052908D0062907
:100B200006D06D1C204909688D4203DA2418D1E7EC
:100B3000AD1CF7E7204601210B30FFF707FE0078D8
:100B40000121050220460C30FFF700FE007801214C
:100B50002818019020460D300546FFF7F7FD007874
:100B60000121060220460E30FFF7F0FD00780A341E
:100B7000301802900098039401280DD1284601995D
:100B8000FFF7E4FD01460948019AFFF7C7FA074855
:100B9000019A002181540490142269460598FFF7B8
:100BA000BDFA07B0F0BD00001C000010CC00001022
:100BB0000FB410B5002105E0089A8B00D258002A26
:100BC00003D0491C099A8A42F6DC099A521E8A42CD
:100BD00004D1089A8B00D258002A0DD1089C052216
:100BE0008B00E250079C0022E250099B491C8B427B
:100BF00002D0089B89005A50242203A9FFF78EFADD
:100C000010BC08BC04B0184770B58CB00020119C13
:100C1000109A129904E08300E358002B10D0401C76
:100C20008142F8DC411E8000001F20580025042866
:100C300009D088002158022915D000200CB070BDC1
:100C40000028FBD0EEE78E00915906A800F0BEFA0E
:100C5000142206A96846FFF761FAA5510198029986
:100C600000044018EAE725501058E7E700B50300F4
:100C7000FFF766FC131411140D0D0F0F0B0B0D0D68
:100C80000D0D14140D0B140B1400032000BD0520D2
:100C900000BD092000BD0020C04300BD002000BDF4
:100CA00070B58CB00021119C129B109A149804E02E
:100CB0008D006559002D12D0491C8B42F8DC4B1E6B
:100CC0008900091F6158002504290DD09900635837
:100CD000022B16D0012B18D0052B1ED001E00029C5
:100CE000EDD100200CB070BD9E00915906A800F017
:100CF0006DFA142206A901A8FFF710FAA55105986C
:100D0000F0E76550525807A102E06550525C06A119
:100D10000648FFF701FC0548E4E70028E2D06550EB
:100D2000E0E700002564000025630000CC0000100F
:100D300006480168802211430160064904480860A2
:100D40004C200549C0430860704700008080044083
:100D50000400FFFF00C00040C0C100400FB470B5E8
:100D600096B0249E054607222BA13046FFF7EFF9E7
:100D70001FAC00280ED0052229A13046FFF7E7F965
:100D800000281AD0042228A13046FFF7E0F90028F5
:100D900025D036E0142221466846FFF7BFF91BA88C
:100DA0000FC8FFF77DFF024621A105A8FFF7B4FB9E
:100DB00005A800F0B9FA1FA00EE0142221466846EB
:100DC000FFF7ACF91BA80FC8FFF76AFF024618A18E
:100DD00005A8FFF7A1FB05A800F0A6FA11E000F0B6
:100DE000AFFA069018221EA96846FFF797F91BA9CB
:100DF0000EC907A800F036FA242207A91BA8FFF79E
:100E00008DF924221BA92846FFF788F916B070BC7B
:100E100008BC04B0184700007072696E746C6E00F4
:100E20007072696E740000007265616400000000F9
:100E3000257300000D0A000090B0FFF779FF4B20EA
:100E4000C00100F069FA21A000F06EFA24A000F0C1
:100E50006BFA242000F05AF80446042225A16846C3
:100E600000F0B6F8242269462046FFF757F900251E
:100E70002562E069800000F049F8E060A069800028
:100E800000F044F86061A069800000F03FF8206144
:100E900060692146056018220C316846FFF73EF96B
:100EA00021460EC906A8FFF779FCE068FFF7CEFDE2
:100EB0006069FFF7CBFD2069FFF7C8FD2046FFF70B
:100EC000C5FD0EA000F030FAFEE700004C5043389C
:100ED0003178204A564D2053746172740D0A000017
:100EE000706C6561736520776169742E2E2E0D0A12
:100EF0000D0A00006D61696E000000000D0A0D0A08
:100F00004A564D2046696E0D0A000000F0B50B30C0
:100F1000C108C900144F0026144A0FE003688B4231
:100F20000BD38B4205D95C1A431845685D601C6081
:100F300000E04368136002C004E0021D106800284E
:100F4000ECD13046002803D13868002801D00020B9
:100F5000F0BD064A06481060064A121AD208D200AE
:100F600044C001203860D7E728000010240000109A
:100F700014010010100200100FB410B586B0044622
:100F800014220DA96846FFF7C9F809A80FC8FFF792
:100F900087FE05901198002801D0FFF757FD0598AE
:100FA000FFF7CEF8FFF7B2FF11900598FFF7C8F8EA
:100FB000024605A911A8FFF7B1F8242209A9204685
:100FC000FFF7ACF806B010BC08BC04B0184700002E
:100FD000F7B59AB000200D907B48016814A8491E0F
:100FE000FFF75EFD142214A904A8FFF797F80498F0
:100FF000012838D0C0B2FFF739FE07990818801DC4
:1010000000900121401CFFF7A1FB007800994418D3
:1010100001210098FFF79AFB007801210002801C53
:1010200020180090401CFFF791FB007800994418AD
:1010300001210098FFF78AFB007801210002801C43
:1010400020180090FFF782FB00780121040200982D
:10105000401CFFF77BFB007820180A900098801C4A
:1010600000240090A5E00598C01CC6E70098012167
:10107000801C0090FFF76AFB0078012105020098B0
:10108000401CFFF763FB0078291814A8FFF708FD40
:10109000142214A904A8FFF741F81C9A1B99089878
:1010A000FFF755F8149000980121801C801C0090D7
:1010B000FFF74CFB0078012105020098401CFFF768
:1010C00045FB0078281809900098801C00250090A6
:1010D0006BE000980121801C0090C01CFFF736FBDC
:1010E000067801210098FFF731FB00780121000606
:1010F00036180098401CFFF729FB007801210704EF
:101100000098801CFFF722FB007800023818301886
:1011100001900098001D00901498002840D10121F2
:101120000098FFF713FB0078012106020098401C8D
:10113000FFF70CFB00780121301811900098801CFB
:10114000FFF704FB0078012106020098C01CFFF79E
:10115000FDFA00780121301812900098C01DFFF7A9
:10116000F5FA067800980121001DFFF7EFFA0078E4
:101170000121000636180098401DFFF7E7FA0078B5
:10118000012107040098801DFFF7E0FA00780002B3
:10119000381830180D90009808300B9000200C90F3
:1011A0000099019808186D1C00900998854290DB01
:1011B000641C0A98844200DA58E724220BA91A9882
:1011C000FEF7ACFF1DB0F0BD1C00001010B58AB0DA
:1011D000044605A8FFF764FC142205A96846FEF73B
:1011E0009DFF0098072801D0082808D105A801997B
:1011F000FFF756FC142205A96846FEF78FFF14225C
:1012000069462046FEF78AFF0AB010BD10B58AB0C5
:10121000044605A8FFF744FC142205A96846FEF71A
:101220007DFF0098092804D00A2802D00C2812D18A
:1012300008E005A80299FFF733FC142205A96846C7
:10124000FEF76CFF05A80199FFF7C0FF142205A95E
:101250006846FEF763FF142269462046FEF75EFFEC
:101260000AB010BD0FB470B500210E9B05E00A9ABC
:101270008C001259002A03D0491C0B9A8A42F6DCD2
:101280000B9A521E8A4204D10A9A8C001259002AE3
:101290000DD10A9D02248A00AC50099C491CA35020
:1012A0000B9A8A4203D000220A9B89005A502422BA
:1012B00005A9FEF733FF70BC08BC04B018470FB493
:1012C00070B500210E9B05E00A9A8C001259002A85
:1012D00003D0491C0B9A8A42F6DC0B9A521E8A42B2
:1012E00004D10A9A8C001259002A0DD10A9D0424B7
:1012F0008A00AC50099C491CA3500B9A8A4203D027
:1013000000220A9B89005A50242205A9FEF706FFF5
:1013100070BC08BC04B0184710B501460148FFF77F
:101320005FF810BD0040064010B50446FEF708FF08
:10133000024621460148FFF7A9F810BD00400640CB
:1013400002488168C907FCD04069704700400640E8
:10135000CAFEBABE0000003200340A000C001709B1
:101360000018001908001A0A001B001C09001800C8
:101370001D0A001E001F0A001B0020070021090093
:101380001800220800230700240700250100063C5E
:10139000696E69743E010003282956010004436FF9
:1013A000646501000F4C696E654E756D626572541F
:1013B00061626C650100046D61696E010016285B55
:1013C0004C6A6176612F6C616E672F537472696E1F
:1013D000673B295601000D537461636B4D61705476
:1013E00061626C6507002101000A536F75726365C5
:1013F00046696C6501000A686F6765312E6A61761F
:10140000610C000D000E0700260C002700280100CB
:101410000D656E74657220616E79206B65790700C9
:10142000290C002A002B0C002C002D07002E0C008C
:101430002F00300C003100320100136A6176612FF9
:10144000696F2F494F457863657074696F6E0C0042
:101450003300280100056572726F72010005686F24
:101460006765310100106A6176612F6C616E672FCC
:101470004F626A6563740100106A6176612F6C6166
:101480006E672F53797374656D0100036F75740176
:1014900000154C6A6176612F696F2F5072696E7406
:1014A00053747265616D3B0100136A6176612F6947
:1014B0006F2F5072696E7453747265616D0100070D
:1014C0007072696E746C6E010015284C6A617661E9
:1014D0002F6C616E672F537472696E673B295601DA
:1014E0000002696E0100154C6A6176612F696F2FE9
:1014F000496E70757453747265616D3B0100136AB7
:101500006176612F696F2F496E70757453747265BF
:10151000616D0100047265616401000328294901BD
:1015200000057072696E7401000428432956010099
:10153000036572720020000B000C00000000000226
:101540000000000D000E0001000F0000001D000152
:101550000001000000052AB70001B10000000100F1
:101560001000000006000100000003000900110047
:10157000120001000F0000006B00020003000000D9
:1015800026B200021203B60004B20005B600063C03
:10159000B200021B92B60007A7FFF14DB20009127C
:1015A0000AB60004A7FFE5000100080017001A00B2
:1015B00008000200100000001E00070000000600E6
:1015C000080009000F000A0017000E001A000C00A6
:1015D0001B000D0023000E0013000000070002088E
:1015E0005107001400010015000000020016000061
:1015F0000000000014160000000000102C00000085
:101600005A050000401600002C000010E403000002
:10161000680500000000000001000000000000005C
:1016200000000000000000000000000000000000BA
:101630000000000000366E01000000000000000005
:04000005000000C136
:00000001FF
