:020000040000FA
:1000000018050010D5000000E5000000DD0000002C
:1000100000000000000000000000000000000000E0
:10002000000000000000000000000000DF000000F1
:100030000000000000000000E1000000D902000004
:10004000E5000000E500000000000000E9020000FB
:10005000AD040000BD04000000000000000000002E
:10006000E5000000E500000091010000E50000004F
:10007000E5000000E500000000000000E5000000D1
:100080000000000000000000000000000000000070
:100090000000000000000000000000000000000060
:1000A000D9010000E3010000ED010000E5000000BF
:1000B000F7010000010200000B0200001502000021
:1000C0000348854600F052F8004800478D110000B3
:1000D000180500100448804704480047FEE7FEE783
:1000E000FEE7FEE7FEE7000059040000C100000043
:1000F00030B50B46014600202022012409E00D46C0
:10010000D5409D4205D31D469540491B2546954047
:1001100040191546521E002DF1DC30BD03460B433D
:100120009B0703D009E008C9121F08C0042AFAD2AD
:1001300003E00B78491C0370401C521EF9D2704733
:10014000421C0178401C0029FBD1801A704730B551
:1001500005460020034600E05B1C934205D2EC5CA0
:10016000C85C201A01D1002CF6D130BD064C012507
:10017000064E05E02046E36807C82B439847103435
:10018000B442F7D3FFF7A0FF84190000A4190000C0
:100190000548C168C90705D00121C160034801684D
:1001A000491C016070470000004000400000001042
:1001B000C106C90E0120884001490860704700004F
:1001C00080E100E0C106C90E0120884001490860B5
:1001D0007047000000E100E000B5002000F020F8CA
:1001E00000BD00B5012000F01BF800BD00B50220E5
:1001F00000F016F800BD00B5042000F011F800BDB5
:1002000000B5052000F00CF800BD00B5062000F098
:1002100007F800BD00B5072000F002F800BD00009F
:10022000F0B52B4A810053585B1C5350294CA26AED
:10023000274DD30740352E46203601228240002B21
:1002400024D0236B4700C0190830C3405807400F23
:10025000030000F029FA08130505052121131413E2
:10026000E069104204D0E2616858401C685003E025
:1002700022627058401C7050E06AE062F0BD68581D
:10028000401C68507058401C7050F0BD606A1042AD
:10029000FBD02068104205D00D4820304258521C37
:1002A0004250F0BDE069104206D06068104203D0B1
:1002B0006858401C6850E261206A104206D02069EC
:1002C000104203D07058401C705022626262F0BD30
:1002D00038000010004000A002480168491C01607D
:1002E000704700001C00001000B5024800F096F9AD
:1002F00000BD00000040064070470000FFFFFFFF08
:100300000A4910B5401E884201D9012010BD084994
:10031000486108480722C3691B021B0A4C04234397
:10032000C361002088610A6110BD0000FFFFFF006B
:1003300000E000E004ED00E070B5354D0020696A92
:10034000C905090F0B0000F0AFF91026090B0D0FBE
:1003500011131517191B1D1F212325262D481AE0DF
:100360002D4818E02D4816E02D4814E02D4812E0E5
:100370002D4810E02D480EE02D480CE02D480AE0F5
:100380002D4808E02D4806E02D4804E02D4802E005
:100390002D4800E02D48696AC906890E891CFFF7BF
:1003A000A7FE1B4940310A6B2A4C9607284AB60F14
:1003B00011D00023012E04D0022E0ED0032E1AD10C
:1003C0000DE008688007800F05D0012803D00228BF
:1003D00010D003280FD122600DE020600BE00868E8
:1003E0008007800F0DD001280BD0022802D00328EF
:1003F00001D106E02360896B2068FFF779FE206059
:1004000070BDA868124AC006C00E401C5043E4E705
:100410000080044020A1070000350C00E0C8100057
:10042000C05C1500006A180040771B0080841E0025
:10043000C0912100009F240040AC2700E032290039
:1004400020402C00604D2F0000D4300040E13300EC
:10045000001BB7002C00001030B511480168114A8C
:10046000114301600E4800214038016001214160C4
:100470004268D207FCD00A4A4123803A93600A4B73
:100480009C6B8025AC439C63D368DB07FCD00322C4
:1004900002634163426BD207FCD0816330BD000030
:1004A00080800440800004000082044000B50248BF
:1004B00000F0B4F800BD00000080064000B502481E
:1004C00000F0ACF800BD000000C0064070B51A4D49
:1004D00001216961184C194B803C194A194998420D
:1004E0000AD10320FFF764FE28680121890308432D
:1004F00028606168082018E090420AD10420FFF7C4
:1005000057FE28680121C90308432860616810204C
:100510000BE088420ED10520FFF74AFE2868012132
:100520000904084328606168202081436160616894
:100530000143616070BD00008080044000400640BF
:100540000080064000C00640F3B50446224881B052
:10055000012606702046FFF7B9FF204D6969204843
:100560000068FFF7C5FD042121606969002920D0DA
:10057000070938460299FFF7BBFD401E2062174D60
:10058000FF2040352863296B3846491C4843216ABF
:10059000029A491C5143FFF7ABFD296B401A401EDC
:1005A000686341204001A0600E48844202D10320CC
:1005B00009E0FEE70C48844201D1042003E00B4827
:1005C000844202D10520FFF7FDFD0948E060206864
:1005D00030432060FEBD0000040000108080044015
:1005E0002C000010004006400080064000C006407D
:1005F0000508000070B50024074B042508E01E78AC
:10060000F607FCD00E78491CC6611C70C560521EEE
:10061000002AF4D170BD00000400001070B5164926
:100620004A69521C4A6184680126E207002A1CD0EC
:100630004269D30505D543685B0702D5D305DB0DB9
:100640000B614B680D4DED185B1C4B602A704A68BE
:10065000202A02D100224A60CE60426803231B0296
:100660001A4342608A68521C8A60620702D50E7083
:100670000421016170BD000004000010B8000010EA
:100680000FB410B504A9074B02AA039800F028F88C
:10069000044602A9002000F007F9204610BC08BC5F
:1006A00004B01847A908000030B47446641E2578C9
:1006B000641CAB4200D21D46635D5B00E31830BC96
:1006C000184702E008C8121F08C1002AFAD1704773
:1006D000002001E001C1121F002AFBD17047000079
:1006E000FFB58DB00F4605460026D4E0252836D14B
:1006F00000246D1C6B4A012100942B780846203B96
:1007000098400346134202D004436D1CF5E7287855
:100710002E2815D1042004436D1C28782A280AD1DC
:1007200001CF6D1C00900BE000990A225143303933
:1007300040186D1C00902878014630390929F3D9FA
:100740002878692843D006DC002871D063280BD0B4
:10075000642804D13BE0732810D0752850D0109A3B
:100760000F999047761C95E038786946087200200A
:10077000487202A83F1D0190012003E001CF0190C3
:100780000020C04361070CD5002400E0641C0099E0
:100790008C420FDA8442F9DB0199095D0029F5D119
:1007A00008E0002400E0641C8442FCDB0199095D40
:1007B0000029F8D1361907E0019801990078491C01
:1007C0000191109A0F999047641EF5D262E00A20B9
:1007D000019001CF002802DA40422D2102E02105DC
:1007E00004D52B216A461172012103E0E10705D0EF
:1007F0002021F7E70C910BA90B910EE00021F9E7FE
:100800000A20019001CFF9E70199FFF771FC0A4630
:100810000B993032491E0B910A700028F4D10B98C5
:1008200003A9081A20300190600702D5009802E061
:1008300035E0012000900199884203DD01460198CE
:10084000081A00E000200024009006E002A8109A98
:10085000005D0F999047761C641C0C988442F5DB70
:1008600004E0109A30200F999047761C0099481E9A
:1008700000900029F5DC08E00B980B990078491CE2
:100880000B91109A0F999047761C0199481E019080
:100890000029F1DC6D1C2878002800D026E73046BE
:1008A00011B0F0BD092801000A68531C0B601070DC
:1008B000704700000A46044910B509180348FFF7BD
:1008C0002DFC024810BD0000E0160000F8000010EA
:1008D0000FB410B500210F9A05E0089B8C001B593E
:1008E000002B03D0491C099B8B42F6DC8900089B36
:1008F000091F5A50302203A9FFF710FC10BC08BC96
:1009000004B018470FB4F0B5A1B02AA800252BAE4B
:100910000A9028992798441801212046FFF7CAFF1A
:1009200000783B2871D016DC10286FD008DC03005B
:10093000FFF7BAFE092C2D2D5C5E606264662D0007
:1009400012380300FFF7B0FE0C4123242323232396
:10095000235E63666923B12872D00EDC602870D0F4
:1009600006DC3C287DD03D286DD03E280FD190E09C
:10097000922869D0A728F9D1E5E0B2380300FFF743
:1009800093FE07B506B7C3F2B5F10600641C4BE150
:100990000121601CFFF78EFF007801210702A01CD7
:1009A000FFF788FF007824223818099068460A99D2
:1009B000FFF7B4FB27A90EC90BA800F02CFE3022CC
:1009C0000BA927A8FFF7AAFB90E00121601CFFF705
:1009D00071FF00780990242268460A99FFF79EFB70
:1009E00027A90EC90BA800F016FECDE0099517E067
:1009F000012014E0022012E0032010E004200EE0A9
:100A000005200CE02A98006809E01EE0ACE02A9876
:100A1000406804E02A98806801E02A98C06809903C
:100A2000242268460A99FFF779FB27A90EC90BA86B
:100A300000F0C4FD30220BA927A8FFF76FFBA5E744
:100A4000F6E032E00DE018E06FE020223146684623
:100A5000FFF764FB27A80FC800F034FA2A99086052
:100A600094E7202231466846FFF758FB27A80FC8B5
:100A700000F028FA2A99486088E720223146684623
:100A8000FFF74CFB27A80FC800F01CFA2A998860D2
:100A90007CE7202231466846FFF740FB27A80FC8B5
:100AA00000F010FA2A99C86070E7641C20223146D1
:100AB0006846FFF733FB27A80FC800F003FA074684
:100AC000202231466846FFF729FB27A80FC800F00F
:100AD000F9F938180990242268460A99FFF71EFB95
:100AE00027A90EC90BA800F069FD9DE0E41C9BE05E
:100AF000E41C242268460A99FFF710FB27A90EC9B7
:100B00000BA800F0B3F90AE0E41C242268460A9915
:100B1000FFF704FB27A90EC90BA800F0D9FB302270
:100B20000BA927A8FFF7FAFA7EE001200990641CC0
:100B3000242268460A99FFF7F1FA27A90EC90BA8E3
:100B4000FFF7C6FEEBE70121601CFFF7B3FE00785C
:100B500001210702A01CFFF7ADFE0078381800B293
:100B6000041961E038E016E00121601CFFF7A2FEE5
:100B700000780990242268460A99FFF7CFFA27A93E
:100B80000EC90BA800F01AFD30220BA927A8FFF709
:100B9000C5FAA41C48E00121601CFFF78BFE007819
:100BA00001210702A01CFFF785FE007839181CA858
:100BB00000F0D8FC14221CA90BA8FFF7AFFA0F987D
:100BC0000990242268460A99FFF7A8FA27A90EC9B6
:100BD00010A800F06DFA89E70121601CFFF76AFE9A
:100BE000007801210702A01CFFF764FE0078391885
:100BF0001CA800F0B7FC14221CA90BA8FFF78EFA62
:100C00000F980990242268460A99FFF787FA27A9C6
:100C10000EC910A800F008FA302210A927A8FFF783
:100C20007DFA2899279844182798201A289070E66A
:100C3000302227A928952698FFF770FA21B0F0BC3A
:100C400008BC04B01847000010B5002823D0124B90
:100C5000001F0022196803E0814203D80A46496850
:100C60000029F9D1002A0AD01368841A9C4204D1C1
:100C7000006818181060104602E0506000E018602C
:100C8000002907D002680B1A934203D10B68D218CF
:100C900002604968416010BD30000010F3B50E4697
:100CA000012587B0002429460820FFF703FE0078BD
:100CB000012107020920FFF7FDFD00783918694876
:100CC000002E016001D08E4201DB002086E020462C
:100CD0000A3001210746FFF7EDFD0078029001215F
:100CE0003846FFF7E7FD007800F022F9411C0ED1ED
:100CF000204601210C30FFF7DDFD07782046012159
:100D00000B30FFF7D7FD00780002C01C3818B54241
:100D10000DD00299052908D0062906D06D1C51492D
:100D200009688D4203DA2418D1E7AD1CF7E72046A5
:100D30000B3001210646FFF7BDFD007801210502B9
:100D400020460C300090FFF7B5FD007801212818EF
:100D5000039020460D300190FFF7ACFD0078012193
:100D6000070220460E300546FFF7A4FD007838182C
:100D7000049020460A30059002980300FFF794FC87
:100D8000076A056A141430306A0003990198FFF766
:100D900091FD01463448039AFFF7C0F93248039A9F
:100DA00000218154069055E001212846FFF782FD7D
:100DB000047801213046FFF77DFD0078012100060F
:100DC00024180098FFF776FD0078012105040198AA
:100DD000FFF770FD0078000228182018039039E012
:100DE00001212846FFF766FD057801213046FFF70F
:100DF00061FD0078012100062D180098FFF75AFDCB
:100E00000078012106040198FFF754FD00780121C4
:100E1000000230182818039020461230FFF74AFDD0
:100E20000578204601210F30FFF744FD00780121AD
:100E300000062D1820461030FFF73CFD00780121F8
:100E4000060420461130FFF735FD00780002301807
:100E500028180490142202A90798FFF75FF909B037
:100E6000F0BD000020000010D80000100FB410B535
:100E7000002105E0089A8B00D258002A03D0491CB3
:100E8000099A8A42F6DC099A521E8A4204D1089ACB
:100E90008B00D258002A0DD1089C05228B00E2500D
:100EA000079C0022E250099B491C8B4202D0089B00
:100EB00089005A50302203A9FFF730F910BC08BC52
:100EC00004B0184770B58AB000200F9C0E9A109994
:100ED00004E08300E358002B10D0401C8142F8DC72
:100EE000411E8000001F20580025042809D08800DA
:100EF0002158022919D000200AB070BD0028FBD06B
:100F0000EEE78E00915905A800F00CFB142205A90C
:100F10006846FFF703F9A5510098052803D0062875
:100F200001D00198E8E70298E6E725501058E3E77A
:100F300000B50300FFF7B8FB131411140D0D0F0FCC
:100F40000B0B0D0D0D0D14140D0B140B14000320C1
:100F500000BD052000BD092000BD0020C04300BD2C
:100F6000002000BD70B58CB00021119C129B109A1E
:100F7000149804E08D006559002D12D0491C8B4255
:100F8000F8DC4B1E8900091F6158002504290DD08B
:100F900099006358022B16D0012B18D0052B1ED0B8
:100FA00001E00029EDD100200CB070BD9E009159E8
:100FB00006A800F0B7FA142206A901A8FFF7AEF8B8
:100FC000A5510598F0E76550525807A102E0655019
:100FD000525C06A10648FFF753FB0548E4E70028EA
:100FE000E2D06550E0E700002564000025630000C2
:100FF000D800001010B5FFF79FF90748016880225C
:10100000114301600649054808604C200549C0436A
:10101000086000F02DFB10BD808004400400FFFF3D
:1010200000C00040C0C100400FB470B588B0064693
:1010300005221CA11998FFF78AF80E9DED1C0028C7
:1010400001D00E9523E01798184C012802D00328F0
:101050001DD10EE00320179000F020FB18902022F5
:1010600011A96846FFF75AF80DA80FC8FFF72AFF25
:101070000CE000F013FBA0601899401A61688842E8
:1010800005DB0120179000200E951890606030223B
:101090000DA93046FFF742F808B070BC08BC04B098
:1010A00018470000736C6565700000002000001098
:1010B0000FB470B598B0299E054607222BA1304683
:1010C000FFF745F821AC00280ED0052229A13046B3
:1010D000FFF73DF800281AD0042228A13046FFF778
:1010E00036F8002825D036E0202221466846FFF752
:1010F00015F81DA80FC8FFF735FF024621A108A863
:10110000FFF7BEFA08A800F0D7FA1FA00EE02022D1
:1011100021466846FFF702F81DA80FC8FFF722FF17
:10112000024618A108A8FFF7ABFA08A800F0C4FA15
:1011300011E000F0CDFA0990242220A96846FEF7BC
:10114000EDFF1DA90EC90AA800F038FA30220AA93D
:101150001DA8FEF7E3FF30221DA92846FEF7DEFF9B
:1011600018B070BC08BC04B0184700007072696EFB
:10117000746C6E007072696E740000007265616458
:1011800000000000257300000D0A000096B0FFF774
:1011900031FF4B20C00100F087FA22A000F08CFA4A
:1011A00025A000F089FA302000F05CF80446042203
:1011B00026A1684600F0B8F8302269462046FEF7BE
:1011C000ADFF00252562E069800000F04BF8E0608B
:1011D000A069800000F046F86061A069800000F01E
:1011E00041F820616069214605600120A062242247
:1011F0000C316846FEF792FF21460EC909A8FFF799
:1012000081FBE068FFF720FD6069FFF71DFD2069A5
:10121000FFF71AFD2046FFF717FD0EA000F04CFA6D
:10122000FEE700004C5043383178204A564D205399
:10123000746172740D0A0000706C656173652077CB
:101240006169742E2E2E0D0A0D0A00006D61696E03
:10125000000000000D0A0D0A4A564D2046696E0D29
:101260000A000000F0B50B30C108C900144F002679
:10127000144A0FE003688B420BD38B4205D95C1AEA
:10128000431845685D601C6000E04368136002C05D
:1012900004E0021D10680028ECD13046002803D17C
:1012A0003868002801D00020F0BD064A06481060CA
:1012B000064A121AD208D20044C001203860D7E78B
:1012C00034000010300000101C0100101803001042
:1012D0000FB410B58AB00446202211A96846FEF763
:1012E0001DFF0DA80FC8FFF73DFE089015980028B8
:1012F00001D0FFF7A9FC0898FEF722FFFFF7B2FF25
:1013000015900898FEF71CFF024608A915A8FEF7DD
:1013100005FF30220DA92046FEF700FF0AB010BCE1
:1013200008BC04B018470000F7B59CB000200D9031
:101330007B48016817A8491EFFF7B0FC142217A9C3
:1013400004A8FEF7EBFE0498012838D0C0B2FFF7DE
:10135000EFFD07990818801D00900121401CFFF740
:10136000A9FA00780099441801210098FFF7A2FA21
:10137000007801210002801C20180090401CFFF71B
:1013800099FA00780099441801210098FFF792FA21
:10139000007801210002801C20180090FFF78AFAD3
:1013A0000078012104020098401CFFF783FA0078BE
:1013B00020180A900098801C00240090A5E0059851
:1013C000C01CC6E700980121801C0090FFF772FA4C
:1013D0000078012105020098401CFFF76BFA0078A5
:1013E000291817A8FFF75AFC142217A904A8FEF71A
:1013F00095FE1E9A1D990898FEF7A9FE1790009871
:101400000121801C801C0090FFF754FA0078012114
:1014100005020098401CFFF74DFA00782818099043
:101420000098801C002500906BE000980121801C32
:101430000090C01CFFF73EFA067801210098FFF7E4
:1014400039FA00780121000636180098401CFFF791
:1014500031FA0078012107040098801CFFF72AFA6E
:10146000007800023818301801900098001D009094
:101470001798002840D101210098FFF71BFA007847
:10148000012106020098401CFFF714FA00780121A0
:10149000301811900098801CFFF70CFA0078012199
:1014A00006020098C01CFFF705FA007801213018E9
:1014B00012900098C01DFFF7FDF9067800980121F1
:1014C000001DFFF7F7F90078012100063618009893
:1014D000401DFFF7EFF90078012107040098801DF7
:1014E000FFF7E8F900780002381830180D900098DE
:1014F00008300B9000200C900099019808186D1C82
:1015000000900998854290DB641C0A98844200DAB6
:1015100058E730220BA91C98FEF700FE1FB0F0BD63
:101520002000001010B58AB0044605A8FFF7B6FBEE
:10153000142205A96846FEF7F1FD0098072801D09E
:10154000082808D105A80199FFF7A8FB142205A9CE
:101550006846FEF7E3FD142269462046FEF7DEFDED
:101560000AB010BD10B58AB0044605A8FFF796FB77
:10157000142205A96846FEF7D1FD0098092804D079
:101580000A2802D00C2812D108E005A80299FFF71A
:1015900085FB142205A96846FEF7C0FD05A8019940
:1015A000FFF7C0FF142205A96846FEF7B7FD142215
:1015B00069462046FEF7B2FD0AB010BD0FB470B503
:1015C0000021119B05E00A9A8C001259002A03D0D1
:1015D000491C0B9A8A42F6DC0B9A521E8A4204D1AD
:1015E0000A9A8C001259002A0DD10A9D02248A0001
:1015F000AC50099C491CA3500B9A8A4203D000228C
:101600000A9B89005A50302205A9FEF787FD70BC5D
:1016100008BC04B018470FB470B50021119B05E059
:101620000A9A8C001259002A03D0491C0B9A8A424C
:10163000F6DC0B9A521E8A4204D10A9A8C00125987
:10164000002A0DD10A9D04248A00AC50099C491C33
:10165000A3500B9A8A4203D000220A9B89005A5059
:10166000302205A9FEF75AFD70BC08BC04B018472B
:1016700010B50848016901221143016106487D2126
:10168000C9000068FEF734FDFEF73AFE002800D0DE
:10169000FEE710BD00E000E02C00001001480068EB
:1016A000704700001C00001010B501460148FEF70D
:1016B0004BFF10BD0040064010B50446FEF740FD4C
:1016C000024621460148FEF795FF10BD0040064046
:1016D00002488168C907FCD0406970470040064055
:1016E000CAFEBABE0000003200340A000C0017091E
:1016F0000018001908001A0A001B001C0900180035
:101700001D0A001E001F0A001B00200700210900FF
:101710001800220800230700240700250100063CCA
:10172000696E69743E010003282956010004436F65
:10173000646501000F4C696E654E756D626572548B
:1017400061626C650100046D61696E010016285BC1
:101750004C6A6176612F6C616E672F537472696E8B
:10176000673B295601000D537461636B4D617054E2
:1017700061626C6507002101000A536F7572636531
:1017800046696C6501000A686F6765312E6A61768B
:10179000610C000D000E0700260C00270028010038
:1017A0000D656E74657220616E79206B6579070036
:1017B000290C002A002B0C002C002D07002E0C00F9
:1017C0002F00300C003100320100136A6176612F66
:1017D000696F2F494F457863657074696F6E0C00AF
:1017E0003300280100056572726F72010005686F91
:1017F0006765310100106A6176612F6C616E672F39
:101800004F626A6563740100106A6176612F6C61D2
:101810006E672F53797374656D0100036F757401E2
:1018200000154C6A6176612F696F2F5072696E7472
:1018300053747265616D3B0100136A6176612F69B3
:101840006F2F5072696E7453747265616D01000779
:101850007072696E746C6E010015284C6A61766155
:101860002F6C616E672F537472696E673B29560146
:101870000002696E0100154C6A6176612F696F2F55
:10188000496E70757453747265616D3B0100136A23
:101890006176612F696F2F496E707574537472652C
:1018A000616D01000472656164010003282949012A
:1018B00000057072696E7401000428432956010006
:1018C000036572720020000B000C00000000000293
:1018D0000000000D000E0001000F0000001D0001BF
:1018E0000001000000052AB70001B100000001005E
:1018F00010000000060001000000030009001100B4
:10190000120001000F0000006B0002000300000045
:1019100026B200021203B60004B20005B600063C6F
:10192000B200021B92B60007A7FFF14DB2000912E8
:101930000AB60004A7FFE5000100080017001A001E
:1019400008000200100000001E0007000000060052
:10195000080009000F000A0017000E001A000C0012
:101960001B000D0023000E001300000007000208FA
:1019700051070014000100150000000200160000CD
:1019800000000000A4190000000000103800000052
:10199000C2060000DC19000038000010E00400005E
:1019A000D006000000000000010000000000000060
:1019B0000000000000000000000000000000000027
:1019C0000000000000000000000000000000000017
:0C19D00000366E01000000000000000066
:04000005000000C136
:00000001FF
