:020000040000FA
:10000000F0020010D5000000E5000000DD00000057
:1000100000000000000000000000000000000000E0
:10002000000000000000000000000000DF000000F1
:100030000000000000000000E1000000E3000000FC
:10004000E5000000E500000000000000D90200000B
:10005000E90200005503000000000000000000005D
:10006000E5000000E500000091010000E50000004F
:10007000E5000000E500000000000000E5000000D1
:100080000000000000000000000000000000000070
:100090000000000000000000000000000000000060
:1000A000D9010000E3010000ED010000E5000000BF
:1000B000F7010000010200000B0200001502000021
:1000C0000348854600F052F800480047C90B00007D
:1000D000F00200100448804704480047FEE7FEE7AE
:1000E000FEE7FEE7FEE7000001030000C10000009C
:1000F00030B50B46014600202022012409E00D46C0
:10010000D5409D4205D31D469540491B2546954047
:1001100040191546521E002DF1DC30BD03460B433D
:100120009B0703D009E008C9121F08C0042AFAD2AD
:1001300003E00B78491C0370401C521EF9D2704733
:10014000421C0178401C0029FBD1801A704730B551
:1001500005460020034600E05B1C934205D2EC5CA0
:10016000C85C201A01D1002CF6D130BD064C012507
:10017000064E05E02046E36807C82B439847103435
:10018000B442F7D3FFF7A0FF5C1100007C11000020
:100190000548C168C90705D00121C160034801684D
:1001A000491C016070470000004000400000001042
:1001B000C106C90E0120884001490860704700004F
:1001C00080E100E0C106C90E0120884001490860B5
:1001D0007047000000E100E000B5002000F020F8CA
:1001E00000BD00B5012000F01BF800BD00B50220E5
:1001F00000F016F800BD00B5042000F011F800BDB5
:1002000000B5052000F00CF800BD00B5062000F098
:1002100007F800BD00B5072000F002F800BD00009F
:10022000F0B52B4A810053585B1C5350294CA26AED
:10023000274DD30740352E46203601228240002B21
:1002400024D0236B4700C0190830C3405807400F23
:10025000030000F075F90813050505212113141397
:10026000E069104204D0E2616858401C685003E025
:1002700022627058401C7050E06AE062F0BD68581D
:10028000401C68507058401C7050F0BD606A1042AD
:10029000FBD02068104205D00D4820304258521C37
:1002A0004250F0BDE069104206D06068104203D0B1
:1002B0006858401C6850E261206A104206D02069EC
:1002C000104203D07058401C705022626262F0BD30
:1002D0002C000010004000A000B5024800F0EAF831
:1002E00000BD00000040064000B5024800F0E2F802
:1002F00000BD00000080064070470000FFFFFFFFC8
:1003000030B511480168114A114301600E480021BF
:1003100040380160012141604268D207FCD00A4A9E
:100320004123803A93600A4B9C6B8025AC439C63CD
:10033000D368DB07FCD0032202634163426BD20720
:10034000FCD0816330BD0000808004408000040048
:100350000082044000B5024800F0ACF800BD000087
:1003600000C0064070B51A4D01216961184C194B47
:10037000803C194A194998420AD10320FFF718FF17
:10038000286801218903084328606168082018E073
:1003900090420AD10420FFF70BFF28680121C9030E
:1003A00008432860616810200BE088420ED10520C8
:1003B000FFF7FEFE286801210904084328606168F0
:1003C00020208143616061680143616070BD00006D
:1003D00080800440004006400080064000C0064087
:1003E000F3B50446224881B0012606702046FFF787
:1003F000B9FF204D696920480068FFF779FE0421A4
:1004000021606969002920D0070938460299FFF761
:100410006FFE401E2062174DFF2040352863296B78
:100420003846491C4843216A029A491C5143FFF748
:100430005FFE296B401A401E686341204001A060A6
:100440000E48844202D1032009E0FEE70C488442B2
:1004500001D1042003E00B48844202D10520FFF7BC
:10046000B1FE0948E060206830432060FEBD000016
:10047000040000108080044020000010004006406E
:100480000080064000C006400508000070B500244A
:10049000074B042508E01E78F607FCD00E78491CAF
:1004A000C6611C70C560521E002AF4D170BD0000E8
:1004B0000400001070B516494A69521C4A618468EC
:1004C0000126E207002A1CD04269D30505D54368FE
:1004D0005B0702D5D305DB0D0B614B680D4DED18A5
:1004E0005B1C4B602A704A68202A02D100224A60B5
:1004F000CE60426803231B021A4342608A68521C82
:100500008A60620702D50E700421016170BD00008F
:1005100004000010AC0000100FB410B504A9074B84
:1005200002AA039800F028F8044602A9002000F06F
:1005300007F9204610BC08BC04B01847410700006A
:1005400030B47446641E2578641CAB4200D21D464C
:10055000635D5B00E31830BC184702E008C8121F57
:1005600008C1002AFAD17047002001E001C1121F22
:10057000002AFBD170470000FFB58DB00F4605463D
:100580000026D4E0252836D100246D1C6B4A0121B9
:1005900000942B780846203B98400346134202D033
:1005A00004436D1CF5E728782E2815D10420044358
:1005B0006D1C28782A280AD101CF6D1C00900BE011
:1005C00000990A225143303940186D1C0090287858
:1005D000014630390929F3D92878692843D006DC47
:1005E000002871D063280BD0642804D13BE0732825
:1005F00010D0752850D0109A0F999047761C95E02E
:100600003878694608720020487202A83F1D0190A0
:10061000012003E001CF01900020C04361070CD509
:10062000002400E0641C00998C420FDA8442F9DB5C
:100630000199095D0029F5D108E0002400E0641C5F
:100640008442FCDB0199095D0029F8D1361907E0E5
:10065000019801990078491C0191109A0F999047CF
:10066000641EF5D262E00A20019001CF002802DA70
:1006700040422D2102E0210504D52B216A4611724A
:10068000012103E0E10705D02021F7E70C910BA938
:100690000B910EE00021F9E70A20019001CFF9E764
:1006A0000199FFF725FD0A460B993032491E0B913F
:1006B0000A700028F4D10B9803A9081A2030019081
:1006C000600702D5009802E035E001200090019912
:1006D000884203DD01460198081A00E0002000244A
:1006E000009006E002A8109A005D0F999047761CD2
:1006F000641C0C988442F5DB04E0109A30200F99BA
:100700009047761C0099481E00900029F5DC08E00F
:100710000B980B990078491C0B91109A0F999047F0
:10072000761C0199481E01900029F1DC6D1C287887
:10073000002800D026E7304611B0F0BD092801009E
:100740000A68531C0B601070704700000FB4F0B5BE
:1007500091B01AA87D4D0026069018991798441854
:10076000285D1B284CD013DC072842D007DC03008F
:10077000FFF7E6FE0727C5C537393B3DC50008280A
:1007800039D0102876D012281DD01A281AD134E07A
:100790003E2871D00CDC3B284BD004DC1C2832D026
:1007A0001D28F3D132E03C284ED03D28EED156E052
:1007B00060286CD0B1287CD0B2287BD0B628E5D197
:1007C000A1E0641C9BE0281940780590142268463B
:1007D0000699FFF7A3FC17A90EC907A800F0B3FB01
:1007E00087E0059615E0012012E0022010E00320CA
:1007F0000EE004200CE005200AE01A98006807E0EB
:100800001A98406804E01A98806801E01A98C06855
:100810000590142268460699FFF780FC17A90EC9B7
:1008200007A800F063FB202207A917A8FFF776FCB2
:10083000C7E71BA80FC86F460FC717A80FC800F05F
:1008400003F91A990860BCE71BA80FC86F460FC7C9
:1008500017A80FC800F0F8F81A994860B1E71BA86C
:100860000FC86F460FC717A80FC800F0EDF81A9908
:100870008860A6E730E0FFE71BA80FC86F460FC7E8
:1008800017A80FC800F0E0F81A99C86099E71BA8EC
:100890000FC86F460FC717A80FC8641C00F0D4F824
:1008A00007461BA80FC803936B4607C317A80FC8BA
:1008B00001E040E00EE000F0C7F83818059014227F
:1008C00068460699FFF72AFC17A90EC907A800F089
:1008D0000DFB14E0E41C12E0281940780590142266
:1008E00068460699FFF71AFC17A90EC907A800F079
:1008F000FDFA202207A917A8FFF710FCA41C1798DF
:10090000201A189029E728194178807809020918D7
:100910000CA800F0BFFA14220CA907A8FFF7FEFBF1
:100920000B9804901BA80FC86F460FC717A80FC8D5
:1009300000F024F9CEE7202217A918961698FFF7A1
:10094000EDFB11B0F0BC08BC04B01847C80F0000A4
:1009500010B5002823D0124B001F0022196803E0B5
:10096000814203D80A4649680029F9D1002A0AD0F1
:100970001368841A9C4204D100681818106010464D
:1009800002E0506000E01860002907D002680B1AEE
:10099000934203D10B68D21802604968416010BDD0
:1009A00024000010F3B51B20244F85B00022012540
:1009B0000E463860002901D01B2E02DB002001907A
:1009C00034E01F4CA118887A009000F06FF8431CA7
:1009D00004D1C87A0B7B0002C01C1818B54205D0A0
:1009E0003B686D1C9D4201DA1218EBE7A018C07A33
:1009F0000B7B0002C0180190487B8B7B0002C01863
:100A0000029000980A3203920300FFF799FD070F46
:100A1000050F050505050F000D310A48019AFFF77E
:100A20007DFB0848019A00218154049014226946F4
:100A30000598FFF773FB07B0F0BD00001C00001025
:100A4000C80F0000CC00001070B58CB00020119CC5
:100A5000109A129904E08300E358002B10D0401C38
:100A60008142F8DC411E8000001F20580025032829
:100A700009D088002158012915D000200CB070BD84
:100A80000028FBD0EEE78E00915906A800F0E2F9AD
:100A9000142206A96846FFF741FBA5510198029967
:100AA00000044018EAE725501058E7E700B50300B6
:100AB000FFF746FD131411140D0D0F0F0B0B0D0D49
:100AC0000D0D14140D0B140B1400032000BD052094
:100AD00000BD092000BD0020C04300BD002000BDB6
:100AE00070B58CB00020119C109A129904E083001C
:100AF000E358002B10D0401C8142F8DC411E8000DE
:100B0000001F20580025032809D0880021580129FA
:100B100012D000200CB070BD0028FBD0EEE78E0094
:100B2000915906A800F096F9142206A901A8FFF72A
:100B3000F5FAA5510598EDE72550125802A1034892
:100B4000FFF7EAFC0148E5E725640000CC0000104F
:100B50000648016880221143016006490448086084
:100B60004C200549C0430860704700008080044065
:100B70000400FFFF00C00040C0C100400FB4F0B54A
:100B800095B01EACF0CC07220CA12298FFF7DFFA3B
:100B900000280DD16846F0C01AA80FC8FFF7A0FFC3
:100BA000024608A104A8FFF7B7FC04A800F000FA69
:100BB00015B0F0BC08BC04B0184700007072696E34
:100BC000746C6E00257300008EB0FFF7C1FF4B20E0
:100BD000C00100F0E5F920A000F0EAF923A000F040
:100BE000E7F9202000F058F80446042224A16846C2
:100BF00000F088F8202269462046FFF78FFAE06966
:100C0000800000F049F8E060A069800000F044F83E
:100C10006061A069800000F03FF8206161690020F8
:100C20000860214614220C316846FFF777FA214606
:100C30000EC905A8FFF78AFDE068FFF789FE606925
:100C4000FFF786FE2069FFF783FE2046FFF780FE50
:100C50000DA000F0ADF9FEE74C5043383178204A42
:100C6000564D2053746172740D0A0000706C6561FA
:100C7000736520776169742E2E2E0D0A0D0A00000F
:100C80006D61696E000000000D0A0D0A4A564D2084
:100C900046696E0D0A000000F0B50B30C108C900AE
:100CA000144F0026144A0FE003688B420BD38B428B
:100CB00005D95C1A431845685D601C6000E0436814
:100CC000136002C004E0021D10680028ECD1304619
:100CD000002803D13868002801D00020F0BD064A62
:100CE00006481060064A121AD208D20044C00120F9
:100CF0003860D7E72800001024000010F40000102E
:100D0000F0000010F7B598B000200D904F48016832
:100D100013A8491EFFF746FE142213A904A8FFF7E3
:100D2000FDF90498012826D0C0B2FFF7BFFE07994D
:100D30000818801D009046480099009A411849788B
:100D40008A180099415C0902891C511800914118C8
:100D50004978009A8A180099415C0902891C511847
:100D60000091009A415C8018407809020D18901C8F
:100D70000024009060E00598C01CD8E7801C344E29
:100D800000900099305C711849780002411813A84E
:100D9000FFF708FE142213A904A8FFF7BFF91A9A57
:100DA00019990898FFF7D3F984460098801C801C95
:100DB00000900099305C711849780002431800983F
:100DC000801C0021009034E0801C214A00901618FD
:100DD000105CF778000638187778B6783F0436024A
:100DE000BE1986190098001D0090604600281CD18D
:100DF0000098105C0702009812185078381811906B
:100E000090780702D078381812901079D7790006B8
:100E10003F185079927900041202801838180D900A
:100E2000009808300B9000200C9000988019491C05
:100E300000909942C8DB641CAC429FDB20220BA9C6
:100E40001898FFF76BF91BB0F0BD00001C000010F4
:100E5000C80F000010B58AB0044605A8FFF7A2FD30
:100E6000142205A96846FFF759F90098072801D010
:100E7000082808D105A80199FFF794FD142205A9B7
:100E80006846FFF74BF9142269462046FFF746F9FA
:100E90000AB010BD10B58AB0044605A8FFF782FD60
:100EA000142205A96846FFF739F90098092804D0EB
:100EB0000A2802D00C2812D108E005A80299FFF7F1
:100EC00071FD142205A96846FFF728F905A80199C4
:100ED000FFF7C0FF142205A96846FFF71FF9142287
:100EE00069462046FFF71AF90AB010BD0FB470B575
:100EF00000210D9B05E00A9A8C001259002A03D0AC
:100F0000491C0B9A8A42F6DC0B9A521E8A4204D183
:100F10000A9A8C001259002A0DD10A9D01248A00D8
:100F2000AC50099C491CA3500B9A8A4203D0002262
:100F30000A9B89005A50202205A9FFF7EFF870BCE0
:100F400008BC04B018470FB470B500210D9B05E034
:100F50000A9A8C001259002A03D0491C0B9A8A4223
:100F6000F6DC0B9A521E8A4204D10A9A8C0012595E
:100F7000002A0DD10A9D03248A00AC50099C491C0B
:100F8000A3500B9A8A4203D000220A9B89005A5030
:100F9000202205A9FFF7C2F870BC08BC04B01847AE
:100FA00010B501460148FFF71BFA10BD004006408E
:100FB00010B50446FFF7C4F8024621460148FFF782
:100FC00065FA10BD00400640CAFEBABE00000032FD
:100FD000001B0A0005000E09000F00100A00110096
:100FE000120700130700140100063C696E69743E85
:100FF000010003282956010004436F646501000FB6
:101000004C696E654E756D6265725461626C650106
:1010100000046D61696E010016285B4C6A6176619F
:101020002F6C616E672F537472696E673B2956018E
:10103000000A536F7572636546696C6501000A6842
:101040006F6765312E6A6176610C00060007070044
:10105000150C001600170700180C0019001A0100E3
:1010600005686F6765310100106A6176612F6C61F8
:101070006E672F4F626A6563740100106A61766162
:101080002F6C616E672F53797374656D0100036F68
:1010900075740100154C6A6176612F696F2F50726B
:1010A000696E7453747265616D3B0100136A6176F9
:1010B000612F696F2F5072696E7453747265616D20
:1010C0000100077072696E746C6E01000428492972
:1010D000560020000400050000000000020000008F
:1010E000060007000100080000001D0001000100CB
:1010F0000000052AB70001B100000001000900004E
:1011000000060001000000010009000A000B0001B8
:101110000008000000390002000400000011107BEC
:101120003C063D1C1B603EB200021DB60003B10030
:101130000000010009000000160005000000050085
:1011400003000600050007000900090010000A005E
:1011500001000C00000002000D0000007C110000E6
:10116000000000102C0000005A050000A81100002B
:101170002C000010C4020000680500000000000000
:10118000010000000000000000000000000000005E
:1011900000000000000000000000000000366E01AA
:0811A000000000000000000047
:04000005000000C136
:00000001FF
