:020000040000FA
:10000000200A0010D5000000E5000000DD0000001F
:1000100000000000000000000000000000000000E0
:10002000000000000000000000000000DF000000F1
:100030000000000000000000E1000000D902000004
:10004000E5000000E500000000000000E9020000FB
:10005000AD040000BD04000000000000000000002E
:10006000E5000000E500000091010000E50000004F
:10007000E5000000E500000000000000E5000000D1
:100080000000000000000000000000000000000070
:100090000000000000000000000000000000000060
:1000A000D9010000E3010000ED010000E5000000BF
:1000B000F7010000010200000B0200001502000021
:1000C0000348854600F052F8004800473D13000001
:1000D000200A00100448804704480047FEE7FEE776
:1000E000FEE7FEE7FEE7000059040000C100000043
:1000F00030B50B46014600202022012409E00D46C0
:10010000D5409D4205D31D469540491B2546954047
:1001100040191546521E002DF1DC30BD03460B433D
:100120009B0703D009E008C9121F08C0042AFAD2AD
:1001300003E00B78491C0370401C521EF9D2704733
:10014000421C0178401C0029FBD1801A704730B551
:1001500005460020034600E05B1C934205D2EC5CA0
:10016000C85C201A01D1002CF6D130BD064C012507
:10017000064E05E02046E36807C82B439847103435
:10018000B442F7D3FFF7A0FF3C2100005C21000040
:100190000548C168C90705D00121C160034801684D
:1001A000491C016070470000004000400000001042
:1001B000C106C90E0120884001490860704700004F
:1001C00080E100E0C106C90E0120884001490860B5
:1001D0007047000000E100E000B5002000F020F8CA
:1001E00000BD00B5012000F01BF800BD00B50220E5
:1001F00000F016F800BD00B5042000F011F800BDB5
:1002000000B5052000F00CF800BD00B5062000F098
:1002100007F800BD00B5072000F002F800BD00009F
:10022000F0B52B4A810053585B1C5350294CA26AED
:10023000274DD30740352E46203601228240002B21
:1002400024D0236B4700C0190830C3405807400F23
:10025000030000F029FA08130505052121131413E2
:10026000E069104204D0E2616858401C685003E025
:1002700022627058401C7050E06AE062F0BD68581D
:10028000401C68507058401C7050F0BD606A1042AD
:10029000FBD02068104205D00D4820304258521C37
:1002A0004250F0BDE069104206D06068104203D0B1
:1002B0006858401C6850E261206A104206D02069EC
:1002C000104203D07058401C705022626262F0BD30
:1002D0002C000010004000A002480168491C016089
:1002E000704700001C00001000B5024800F096F9AD
:1002F00000BD00000040064070470000FFFFFFFF08
:100300000A4910B5401E884201D9012010BD084994
:10031000486108480722C3691B021B0A4C04234397
:10032000C361002088610A6110BD0000FFFFFF006B
:1003300000E000E004ED00E070B5354D0020696A92
:10034000C905090F0B0000F0AFF91026090B0D0FBE
:1003500011131517191B1D1F212325262D481AE0DF
:100360002D4818E02D4816E02D4814E02D4812E0E5
:100370002D4810E02D480EE02D480CE02D480AE0F5
:100380002D4808E02D4806E02D4804E02D4802E005
:100390002D4800E02D48696AC906890E891CFFF7BF
:1003A000A7FE1B4940310A6B2A4C9607284AB60F14
:1003B00011D00023012E04D0022E0ED0032E1AD10C
:1003C0000DE008688007800F05D0012803D00228BF
:1003D00010D003280FD122600DE020600BE00868E8
:1003E0008007800F0DD001280BD0022802D00328EF
:1003F00001D106E02360896B2068FFF779FE206059
:1004000070BDA868124AC006C00E401C5043E4E705
:100410000080044020A1070000350C00E0C8100057
:10042000C05C1500006A180040771B0080841E0025
:10043000C0912100009F240040AC2700E032290039
:1004400020402C00604D2F0000D4300040E13300EC
:10045000001BB7002800001030B511480168114A90
:10046000114301600E4800214038016001214160C4
:100470004268D207FCD00A4A4123803A93600A4B73
:100480009C6B8025AC439C63D368DB07FCD00322C4
:1004900002634163426BD207FCD0816330BD000030
:1004A00080800440800004000082044000B50248BF
:1004B00000F0B4F800BD00000080064000B502481E
:1004C00000F0ACF800BD000000C0064070B51A4D49
:1004D00001216961184C194B803C194A194998420D
:1004E0000AD10320FFF764FE28680121890308432D
:1004F00028606168082018E090420AD10420FFF7C4
:1005000057FE28680121C90308432860616810204C
:100510000BE088420ED10520FFF74AFE2868012132
:100520000904084328606168202081436160616894
:100530000143616070BD00008080044000400640BF
:100540000080064000C00640F3B50446224881B052
:10055000012606702046FFF7B9FF204D6969204843
:100560000068FFF7C5FD042121606969002920D0DA
:10057000070938460299FFF7BBFD401E2062174D60
:10058000FF2040352863296B3846491C4843216ABF
:10059000029A491C5143FFF7ABFD296B401A401EDC
:1005A000686341204001A0600E48844202D10320CC
:1005B00009E0FEE70C48844201D1042003E00B4827
:1005C000844202D10520FFF7FDFD0948E060206864
:1005D00030432060FEBD0000040000108080044015
:1005E00028000010004006400080064000C0064081
:1005F0000508000070B50024074B042508E01E78AC
:10060000F607FCD00E78491CC6611C70C560521EEE
:10061000002AF4D170BD00000400001070B5164926
:100620004A69521C4A6184680126E207002A1CD0EC
:100630004269D30505D543685B0702D5D305DB0DB9
:100640000B614B680D4DED185B1C4B602A704A68BE
:10065000202A02D100224A60CE60426803231B0296
:100660001A4342608A68521C8A60620702D50E7083
:100670000421016170BD000004000010AC000010F6
:100680000FB410B504A9074B02AA039800F028F88C
:10069000044602A9002000F007F9204610BC08BC5F
:1006A00004B01847A908000030B47446641E2578C9
:1006B000641CAB4200D21D46635D5B00E31830BC96
:1006C000184702E008C8121F08C1002AFAD1704773
:1006D000002001E001C1121F002AFBD17047000079
:1006E000FFB58DB00F4605460026D4E0252836D14B
:1006F00000246D1C6B4A012100942B780846203B96
:1007000098400346134202D004436D1CF5E7287855
:100710002E2815D1042004436D1C28782A280AD1DC
:1007200001CF6D1C00900BE000990A225143303933
:1007300040186D1C00902878014630390929F3D9FA
:100740002878692843D006DC002871D063280BD0B4
:10075000642804D13BE0732810D0752850D0109A3B
:100760000F999047761C95E038786946087200200A
:10077000487202A83F1D0190012003E001CF0190C3
:100780000020C04361070CD5002400E0641C0099E0
:100790008C420FDA8442F9DB0199095D0029F5D119
:1007A00008E0002400E0641C8442FCDB0199095D40
:1007B0000029F8D1361907E0019801990078491C01
:1007C0000191109A0F999047641EF5D262E00A20B9
:1007D000019001CF002802DA40422D2102E02105DC
:1007E00004D52B216A461172012103E0E10705D0EF
:1007F0002021F7E70C910BA90B910EE00021F9E7FE
:100800000A20019001CFF9E70199FFF771FC0A4630
:100810000B993032491E0B910A700028F4D10B98C5
:1008200003A9081A20300190600702D5009802E061
:1008300035E0012000900199884203DD01460198CE
:10084000081A00E000200024009006E002A8109A98
:10085000005D0F999047761C641C0C988442F5DB70
:1008600004E0109A30200F999047761C0099481E9A
:1008700000900029F5DC08E00B980B990078491CE2
:100880000B91109A0F999047761C0199481E019080
:100890000029F1DC6D1C2878002800D026E73046BE
:1008A00011B0F0BD092801000A68531C0B601070DC
:1008B000704700000A46044910B509180348FFF7BD
:1008C0002DFC024810BD00003C1E0000EC00001092
:1008D0000FB410B50021119A05E00E9B8C001B5936
:1008E000002B03D0491C069B8B42F6DC89000E9B33
:1008F000091F5A50382203A9FFF710FC10BC08BC8E
:1009000004B018470FB4F0B59BB022992198441851
:1009100001212046FFF7CEFF00780022012724ADF9
:1009200025AE3B2873D02BDC192828D013DC0728F0
:100930006ED007DC0300FFF7B7FE075051518284E9
:1009400086885100082875D0102874D0122860D0ED
:10095000142843D143E02A283FD008DC1A287CD051
:100960001B287DD01C2869D01D28F2D182E02B28BD
:1009700033D02C2831D02D282FD03A28E9D16AE065
:10098000922870D014DC4C2827D008DC3C286BD08F
:100990003D286AD03E2869D04B28DAD11DE04D2889
:1009A0001BD04E2819D0592817D06028D1D1AAE0E1
:1009B000B52872D008DCA72870D0B1286FD0B22833
:1009C0000AD0B428C5D1C1E0B62869D0B72868D00C
:1009D000B82867D0BB28BCD1B6E0641C74E1012103
:1009E000601CFFF767FF007801210602A01CFFF7DB
:1009F00061FF00782C2230180B9029466846FFF7DB
:100A00008DFB21A90EC90CA801F0B3F954E14AE00D
:100A10001DE00121601CFFF74DFF00780B902C2298
:100A200029466846FFF77AFB21A90EC90CA801F0F8
:100A3000A0F9ECE00DE0DAE00FE011E017E00B9236
:100A40001BE00B9719E0022016E0032014E00420BD
:100A500012E0052010E0A41C36E12A9800680BE0A3
:100A60002A98406808E0A1E029E034E03FE02A98B5
:100A7000806801E02A98C0680B902C2229466846BD
:100A8000FFF74CFB21A90EC90CA801F045F938224B
:100A90000CA921A8FFF742FB9FE76FE098E011E166
:100AA000BBE0F2E0D1E0282231466846FFF736FB92
:100AB00021A80FC800F066FA2A9908608DE728225D
:100AC00031466846FFF72AFB21A80FC800F05AFA02
:100AD0002A99486081E7282231466846FFF71EFBC5
:100AE00021A80FC800F04EFA2A99886075E72822DD
:100AF00031466846FFF712FB21A80FC800F042FA02
:100B00002A99C86069E7641C282231466846FFF7C5
:100B100005FB21A80FC800F035FA07462822314608
:100B20006846FFF7FBFA21A80FC800F02BFA381827
:100B30000B902C2229466846FFF7F0FA21A90EC92E
:100B40000CA801F0E9F8BFE0E41CBDE00121601C45
:100B5000FFF7B0FE007801210602A01CFFF7AAFEF5
:100B600000782C2230180B9029466846FFF7D6FAF9
:100B700021A90EC90CA800F09DF99DE00121601C7F
:100B8000FFF798FE007801210602A01CFFF792FEF5
:100B900000782C2230180B9029466846FFF7BEFAE1
:100BA00021A90EC90CA800F0B3FE85E0641C2C221C
:100BB000294668460B97FFF7B1FA21A90EC90CA880
:100BC000FFF786FE38220CA921A8FFF7A7FA7BE0E1
:100BD0000121601CFFF76EFE007801210502A01CB8
:100BE000FFF768FE0078281800B204196CE00121B4
:100BF000601CFFF75FFE00780B902C2229466846A8
:100C0000FFF78CFA21A90EC90CA801F085F838224B
:100C10000CA921A8FFF782FA1DE70121601CFFF74C
:100C200049FE007801210602A01CFFF743FE007870
:100C30002C2230180B9029466846FFF76FFA21A93D
:100C40000EC90CA800F0E8FA36E00121601CFFF79D
:100C500031FE007801210602A01CFFF72BFE007870
:100C60002C2230180B9029466846FFF757FA21A925
:100C70000EC90CA800F078FA38220CA921A8FFF7B9
:100C80004DFA2299219844181EE00121601CFFF7BB
:100C900011FE007801210602A01CFFF70BFE007870
:100CA0002C2230180B9029466846FFF737FA21A905
:100CB0000EC90CA800F010FA38220CA921A8FFF7E1
:100CC0002DFA41E72292289221983822201A229068
:100CD00021A92098FFF722FA1BB0F0BC08BC04B091
:100CE00018470000F3B50E46012587B000242946B9
:100CF0000820FFF7DFFD0078012107020920FFF738
:100D0000D9FD007839186948002E016001D08E4263
:100D100001DB002086E020460A3001210746FFF76C
:100D2000C9FD0078029001213846FFF7C3FD007825
:100D300000F05DF9411C0ED1204601210C30FFF777
:100D4000B9FD0778204601210B30FFF7B3FD00788D
:100D50000002C01C3818B5420DD00299052908D0F0
:100D6000062906D06D1C514909688D4203DA241802
:100D7000D1E7AD1CF7E720460B3001210646FFF70F
:100D800099FD00780121050220460C300090FFF704
:100D900091FD007801212818039020460D30019024
:100DA000FFF788FD00780121070220460E30054636
:100DB000FFF780FD00783818049020460A3005902F
:100DC00002980300FFF770FC076A056A14143030BC
:100DD0006A0003990198FFF76DFD01463448039AB4
:100DE000FFF79CF93248039A00218154069055E0A0
:100DF00001212846FFF75EFD047801213046FFF708
:100E000059FD00780121000624180098FFF752FDD3
:100E10000078012105040198FFF74CFD00780002DD
:100E200028182018039039E001212846FFF742FDD9
:100E3000057801213046FFF73DFD007801210006CD
:100E40002D180098FFF736FD00780121060401985F
:100E5000FFF730FD007801210002301828180390B8
:100E600020461230FFF726FD0578204601210F307D
:100E7000FFF720FD0078012100062D1820461030D4
:100E8000FFF718FD00780121060420461130FFF716
:100E900011FD00780002301828180490142202A9CD
:100EA0000798FFF73BF909B0F0BD000020000010E3
:100EB000CC0000100FB430B5A3B0359C05462146D8
:100EC000684600F0D1FE1422694605A8FFF726F90E
:100ED00001221FA10998FFF73AF900281AD02CE047
:100EE000349982008958A14213D13399800008585F
:100EF0000B902C222AA96846FFF710F927A90EC9E2
:100F000014A800F009FF382214A927A8FFF706F952
:100F100013E0401C2C998142E2DC33980A460068B9
:100F2000009034980BA103680CA8FFF7A9FB0CA84C
:100F300000F070FF0EA000F06DFF382227A92846B0
:100F4000FFF7ECF823B030BC08BC04B01847000031
:100F500049000000466E756D3D25642C6D656D740D
:100F60007970653D25642C7265673D25640D0A0026
:100F70006765744669656C64206572726F720D0AEC
:100F80000000000070B58AB00020159C149A04E09F
:100F900081006158002910D0401C8342F8DC411EBA
:100FA0008000001F20580025042809D088002158FF
:100FB000022919D000200AB070BD0028FBD0EEE74E
:100FC0008E00915905A800F02FFE142205A968464D
:100FD000FFF7A4F8A5510098052803D0062801D0F2
:100FE0000198E8E70298E6E725501058E3E700B5D6
:100FF0000300FFF759FB131411140D0D0F0F0B0B0A
:101000000D0D0D0D14140D0B140B1400032000BD59
:10101000052000BD092000BD0020C04300BD002008
:1010200000BD000070B58CB00020179C169904E03C
:101030008200A258002A12D0401C8342F8DC421ED3
:101040008000001F2058002504280BD09000225853
:10105000022A14D0012A16D000200CB070BD00283E
:10106000FBD0ECE79600895906A800F0DDFD1422BC
:1010700006A901A8FFF752F8A5510598EDE72550FC
:101080000A5805A102E025500A5C04A10448FFF7B4
:10109000F7FA0348E1E7000025640000256300003B
:1010A000CC00001010B5FFF747F90748016880220F
:1010B000114301600649054808604C200549C043BA
:1010C000086000F083FE10BD808004400400FFFF34
:1010D00000C00040C0C100400FB430B58BB01D9DB2
:1010E00004462946684600F0EBFD1422694605A82F
:1010F000FFF714F8062219A10998FFF728F800282D
:101100001DD12946684600F0AFFD1422694605A8A6
:10111000FFF704F8022213A10998FFF718F8002836
:101120000DD105E01A9982008958002911D0401C80
:1011300012998142F6DC401E042116911790382244
:101140000FA92046FEF7EAFF0BB030BC08BC04B084
:1011500018470028EFD103201690F0E73C696E692C
:10116000743E0000284900000FB470B59AB00646DE
:1011700068462D9900F0A4FD1422694605A8FEF7E3
:10118000CDFF052222A10998FEF7E1FF002820D11A
:10119000282223A96846FEF7C1FF1FA80FC8FFF742
:1011A000F1FE0446269822AD012802D0072824D15A
:1011B00005E00720269000F01FFE27900DE000F0CC
:1011C0001BFE2799401AA04207DB01202690002031
:1011D00027902098C01C20900FE02C2229466846BA
:1011E0000B94FEF79BFF1FA90EC90CA800F094FDFD
:1011F00038220CA91FA8FEF791FF38221FA93046FC
:10120000FEF78CFF1AB070BC08BC04B01847000091
:10121000736C6565700000000FB470B59AB0054638
:1012200068462D9900F04CFD1422694605A8FEF78A
:1012300075FF099E072235A13046FEF788FF23ACD3
:1012400000281DD0052233A13046FEF780FF00287C
:1012500029D0042231A13046FEF779FF22AC0028C4
:1012600033D005222FA13046FEF771FF00282FD082
:1012700007222EA13046FEF76AFF00282BD03BE064
:10128000282221466846FEF749FF1FA80FC8FFF72E
:10129000C9FE024627A10AA8FFF7F2F90AA800F042
:1012A000B9FD25A00EE0282221466846FEF736FF4C
:1012B0001FA80FC8FFF7B6FE02461EA10AA8FFF737
:1012C000DFF90AA800F0A6FD16E000F0AFFD03E08C
:1012D0000220269010E025980B902C22214668468B
:1012E000FEF71CFF1FA90EC90CA800F015FD38223F
:1012F0000CA91FA8FEF712FF38221FA92846FEF7E7
:101300000DFF1AB070BC08BC04B018477072696E4B
:10131000746C6E007072696E7400000072656164B6
:101320000000000073746172740000006765744E01
:10133000616D6500257300000D0A00009EB0FFF787
:10134000B1FE4B20C00100F05DFD00F0B1FAF7A046
:1013500000F060FDFAA000F05DFD0025382000F0EF
:1013600079FA040002D1FBA000F054FD0421FBA097
:101370000C910B9021462C220C316846FEF7CEFED4
:1013800021460EC90DA800F033FB38220DA92046D6
:10139000FEF7C4FE0026266366612069800000F027
:1013A00059FA6062E068800000F054FAE062E06898
:1013B000800000F04FFAA062E06A06600120A6619A
:1013C000E06101E000263CE03820704300190B90FA
:1013D000C069012801D0072832D10B992C220C3189
:1013E0006846FEF79BFE0B98082141180A780746CD
:1013F00013464A78120213438A78C97812041343B9
:1014000009060B4301790A46417909020A438179A9
:1014100009040A43C179007809060A43014678782D
:1014200000020143B87800040143F8780006014344
:101430000CA8FFF767FA38220CA90B98FEF76EFE8E
:10144000761C681C8642BFDBE169022971D0042941
:1014500070D16D1C691C38204143204600F03CFAD5
:10146000040002D1BBA000F0D5FCBEA00B90382038
:101470006843062106190C9131460C312C2268462E
:101480000D91FEF74BFE08217218117837790B4643
:101490005178F07809020B439178000609040B4358
:1014A000D1783A46777909063F023A43B7790B4338
:1014B0003F04F1793A43090637780A433946777889
:1014C0003F023943B7783F04394301430EA800F087
:1014D0008FFA38220EA93046FEF720FE0027376328
:1014E00077613069800000F0B5F97062F0688000C3
:1014F00000F0B0F9F062F068800000F0ABF9B06283
:10150000F06A07600520F061276A7F1C13D020462F
:1015100010300A90282268460A99FEF7FFFD2046FF
:101520000FC8FFF72FFDB900726A7F1E5050F1D12E
:1015300031E037E0B4E02C2268460D99FEF7EEFD6D
:1015400008203018017837780B46417809020B43A0
:101550008178C07809040B43317900060A46717915
:10156000034309020A43B179F07909040A43394671
:10157000777800063F0239430243B778F0783F049A
:101580003943000601430EA8FFF7BCF938220EA923
:101590003046FEF7C3FDF0690028CCD10620F0618B
:1015A00001207CE0002607E031463822514309192A
:1015B000C969062979D0761C8642F5DD382070434A
:1015C0000019C069062870D068A000F023FC6D1CCB
:1015D000691C38204143204600F07EF9040002D106
:1015E0005CA000F017FC63A00B9038206843032137
:1015F00006190C9131460C312C226846FEF78EFDFF
:10160000082171180A78377913464A78F07812025F
:1016100013438A78C978120413433A467779090646
:101620003F023A43B7790B433F04F1793A43090645
:1016300037780A433946777800063F023943B7784E
:101640003F04394301430DA800F0D2F93046382257
:101650000DA9FEF763FD3069800000F0FBF87062B1
:10166000002802D13BA000F0D5FBF068800000F01C
:10167000F1F8F062002802D136A000F0CBFBF06850
:10168000800000F0E7F8B062002802D131A000F03D
:10169000C1FBF16A002008600120B561F061E061E2
:1016A000002108466E1CA7E0FFE732A00B9038200F
:1016B0007043001903210C9101460D900E900C31DE
:1016C0002C226846FEF72AFD0E98082141180A7858
:1016D000077913464A78120213438A78C9781204AC
:1016E00013433A46477909063F023A4387790B4349
:1016F0003F043A43C1790746090600780A43014688
:10170000787800020143B87800040143F8780006B5
:1017100001430FA800F06CF938220FA90E98FEF7CC
:10172000FDFC0E98406A002829D125E04C50433832
:101730003178204A564D2053746172740D0A0000AE
:10174000706C6561736520776169742E2E2E0D0AA9
:101750000D0A00006572726F722100006D61696E82
:10176000000000003C696E69743E00006E65770DF4
:101770000A00000072756E002EA000F04BFB0D9861
:10178000006981000D98406A00F0A6F80D990028C4
:10179000486202D127A000F03DFB0D98C06881008F
:1017A0000D98C06A00F098F80D990028C86202D11F
:1017B00020A000F02FFB0D98C06881000D98806A72
:1017C00000F08AF80D990028886202D119A000F073
:1017D00021FB0D990020C96A08600D990120C8619C
:1017E0000D998E615BE7382302465A431219D2697C
:1017F000002A00D0491C401CB042F4DB002900D074
:10180000E0E500250CE0382068430719786A00F00D
:1018100049F8F86A00F046F8B86A00F043F86D1C21
:10182000B542F0DB204600F03DF806A000F0F2FAE9
:10183000FEE70000706F696E7472206572726F72DD
:10184000210D0A000D0A0D0A4A564D2046696E0DFB
:101850000A00000038B50E49C01C8A688008121AB8
:10186000D21E8A60002A04DC0AA000F0D3FA00200D
:1018700038BD4A68012413460C3300936B469460CC
:10188000136050608200009812184A6038BD000052
:101890000C0500106D616C6C6F63206572726F7265
:1018A000210D0A00002802D00C3800218160704709
:1018B00010B50848064AFF2301240133C4601146CD
:1018C0008360103102604160101D1AC0126010BDAB
:1018D0000C0100100C05001070B5002809D004465A
:1018E0000C3CC91C656889088D4203DB20460C301E
:1018F000616070BD0020A0608800FFF7ABFF21464B
:1019000006460C31AA00FEF709FC304670BD000007
:101910000FB4F0B58BB01F9D07462946684600F00E
:10192000A3F91422694605A8FEF7F8FB01222FA1AE
:101930000998FEF70CFC00284ED1169815AE002829
:1019400001D000242AE00420FFF784FF1D9004202A
:10195000FFF780FF1E90012016902822314668462E
:10196000FEF7DCFB11A80FC8FFF70CFB1D99086000
:101970001E98056030E01E98A1004058A8420CD186
:10198000282231466846FEF7C9FB11A80FC8FFF7A9
:10199000F9FA1D99A20088501EE0641C1698A04216
:1019A000E9DC401C8400169021461D98FFF794FF47
:1019B0001D9021461E98FFF78FFF1E90282231466A
:1019C0006846FEF7ABFB11A80FC8FFF7DBFA1D99BD
:1019D000241F08511E980551382211A93846FEF7D8
:1019E0009DFB0BB0F0BC08BC04B0184749000000D8
:1019F0000FB4F0B58FB000208A4C1790216868466C
:101A0000491EFFF76FF91422694605A8FEF786FB09
:101A1000059801282AD0C0B2FFF7E9FA08990818FA
:101A2000801D01210090FEF745FF0078012105028D
:101A30000098401CFEF73EFF0078009928184000EF
:101A40004018801C01210090FEF734FF007801212E
:101A500005020098401CFEF72DFF00782E18009814
:101A6000801C0090002E19D0002515E00698C01C9F
:101A7000D4E7801D01210090FEF71CFF00780121B2
:101A800007020098401CFEF715FF007800993818EF
:101A9000891C08186D1C0090B542EADB0121FEF795
:101AA00009FF0078012105020098401CFEF702FFA3
:101AB0000078281860600098801C00250090A2E043
:101AC00000980121801C0090FEF7F4FE00780121AF
:101AD00004020098401CFEF7EDFE007821180AA8C9
:101AE000FFF700F914220AA905A8FEF717FB249AAC
:101AF00023990998FEF72BFB0A9000980121801C7E
:101B0000801C0090FEF7D6FE0078012104020098A8
:101B1000401CFEF7CFFE0078201802900098801C31
:101B2000002400906BE000980121801C0090C01CF4
:101B3000FEF7C0FE067801210098FEF7BBFE007894
:101B40000121000636180098401CFEF7B3FE00780D
:101B5000012107040098801CFEF7ACFE007800020B
:101B60003818301801900098001D00900A9800283D
:101B700040D101210098FEF79DFE00780121060268
:101B80000098401CFEF796FE00780121301818904E
:101B90000098801CFEF78EFE007801210602009856
:101BA000C01CFEF787FE00780121301819900098BC
:101BB000C01DFEF77FFE067800980121001DFEF78C
:101BC00079FE00780121000636180098401DFEF7C6
:101BD00071FE0078012107040098801DFEF76AFE5F
:101BE00000780002381830181790009808301590C7
:101BF00000201690009901980818641C0090029823
:101C0000844290DB6D1C07484068854200DA57E744
:101C1000382215A91498FEF781FA0FB0F0BC08BC61
:101C200004B018472000001010B58AB0044605A87B
:101C3000FFF758F8142205A96846FEF76FFA0098D6
:101C4000072801D0082808D105A80199FFF74AF80C
:101C5000142205A96846FEF761FA14226946204657
:101C6000FEF75CFA0AB010BD10B58AB0044605A8AC
:101C7000FFF738F8142205A96846FEF74FFA0098D6
:101C8000092804D00A2802D00C2812D108E005A89F
:101C90000299FFF727F8142205A96846FEF73EFAD5
:101CA00005A80299FFF7C0FF142205A96846FEF7B0
:101CB00035FA142269462046FEF730FA0AB010BD04
:101CC00010B58AB0044605A8FFF70CF8142205A940
:101CD0006846FEF723FA0098092804D00A2802D0A3
:101CE0000C2812D108E005A80299FEF7FBFF142288
:101CF00005A96846FEF712FA05A80199FFF794FFB7
:101D0000142205A96846FEF709FA142269462046FE
:101D1000FEF704FA0AB010BD0FB470B50021139B92
:101D200005E0109A8C001259002A03D0491C089A29
:101D30008A42F6DC089A521E8A4204D1109A8C001C
:101D40001259002A0DD1109D02248A00AC500F9C1C
:101D5000491CA350089A8A4203D00022109B890094
:101D60005A50382205A9FEF7D9F970BC08BC04B056
:101D700018470FB470B50021139B05E0109A8C0032
:101D80001259002A03D0491C089A8A42F6DC089AA4
:101D9000521E8A4204D1109A8C001259002A0DD189
:101DA000109D04248A00AC500F9C491CA350089A33
:101DB0008A4203D00022109B89005A50382205A97C
:101DC000FEF7ACF970BC08BC04B0184710B5084861
:101DD000016901221143016106487D21C9000068A3
:101DE000FEF786F9FEF78CFA002800D0FEE710BD5A
:101DF00000E000E028000010014800687047000083
:101E00001C00001010B501460148FEF79DFB10BDF7
:101E10000040064010B50446FEF792F902462146FE
:101E20000148FEF7E7FB10BD00400640024881680C
:101E3000C907FCD04069704700400640CAFEBABEE0
:101E40000000003200350A000F001B09001C001DB5
:101E500008001E0A001F00200A000B00210A001FB4
:101E600000220500000000000003E80A000B002328
:101E70000700240700250A000B001B0A000B0026A0
:101E80000800270700280100063C696E69743E01BE
:101E90000003282956010004436F646501000F4CBC
:101EA000696E654E756D6265725461626C650100A4
:101EB0000372756E01000D537461636B4D61705454
:101EC00061626C650700240100046D61696E0100A8
:101ED00016285B4C6A6176612F6C616E672F5374B4
:101EE00072696E673B295601000A536F757263650C
:101EF00046696C6501000A686F6765312E6A617614
:101F0000610C001000110700290C002A002B0100B1
:101F10000E746872656164204E756D6265723D076E
:101F2000002C0C002D002E0C002F00300C00310076
:101F30002E0C0032003301001E6A6176612F6C6145
:101F40006E672F496E74657272757074656445783A
:101F500063657074696F6E010005686F6765310CA9
:101F60000034001101000B546872656164207465CF
:101F700073740100106A6176612F6C616E672F5473
:101F800068726561640100106A6176612F6C616E30
:101F9000672F53797374656D0100036F75740100C9
:101FA000154C6A6176612F696F2F5072696E745398
:101FB000747265616D3B0100136A6176612F696F10
:101FC0002F5072696E7453747265616D01000570F3
:101FD00072696E74010015284C6A6176612F6C611C
:101FE0006E672F537472696E673B2956010007674D
:101FF00065744E616D6501001428294C6A61766133
:102000002F6C616E672F537472696E673B01000716
:102010007072696E746C6E010005736C6565700199
:102020000004284A29560100057374617274002067
:10203000000B000F00000000000300000010001162
:10204000000100120000001D000100010000000559
:102050002AB70001B10000000100130000000600D3
:102060000100000001000100140011000100120035
:10207000000060000200020000001FB20002120314
:10208000B60004B200022AB60005B6000614000726
:10209000B80009A7FFE84CA7FFE4000100120018F0
:1020A000001B000A000200130000001A00060000D6
:1020B000000500080006001200080018000A001BB6
:1020C0000009001C000A0015000000070002005A69
:1020D0000700160009001700180001001200000098
:1020E0004D0002000300000021BB000B59B7000C9B
:1020F0004CBB000B59B7000C4D2BB6000D2CB60095
:102100000DB20002120EB60006B10000000100136D
:102110000000001A00060000001100080012001064
:10212000001400140015001800170020001800010A
:10213000001900000002001A000000005C210000ED
:10214000000000102C000000C206000088210000E2
:102150002C000010F4090000D00600000000000070
:10216000010000000000000000000000000000006E
:10217000000000000000000000000000000000005F
:082180000000000000366E01B2
:04000005000000C136
:00000001FF
