:020000040000FA
:10000000200A0010D5000000E5000000DD0000001F
:1000100000000000000000000000000000000000E0
:10002000000000000000000000000000DF000000F1
:100030000000000000000000E1000000B10200002C
:10004000E5000000E500000000000000C102000023
:10005000D1020000E10200000000000000000000EA
:10006000E5000000E5000000E9010000E5000000F7
:10007000E5000000E500000000000000E5000000D1
:100080000000000000000000000000000000000070
:100090000000000000000000000000000000000060
:1000A000310200003B02000045020000E5000000B4
:1000B0004F02000059020000630200006D020000C0
:1000C0000348854600F052F8004800470914000034
:1000D000200A00100448804704480047FEE7FEE776
:1000E000FEE7FEE7FEE70000D9040000C1000000C3
:1000F00030B50B46014600202022012409E00D46C0
:10010000D5409D4205D31D469540491B2546954047
:1001100040191546521E002DF1DC30BD03460B433D
:100120009B0703D009E008C9121F08C0042AFAD2AD
:1001300003E00B78491C0370401C521EF9D2704733
:10014000421C0178401C0029FBD1801A704730B551
:1001500005460020034600E05B1C934205D2EC5CA0
:10016000C85C201A01D1002CF6D130BD064C012507
:10017000064E05E02046E36807C82B439847103435
:10018000B442F7D3FFF7A0FF90230000B023000094
:1001900007480168402211430160054880384268E1
:1001A00001158A43426042680A434260704700007A
:1001B0008080044001208840002A01D0024901E0EB
:1001C0000149803108607047002200A0054B0120E2
:1001D00088401968002A01D0014300E0814319607A
:1001E00070470000002000A00548C168C90705D07D
:1001F0000121C16003480168491C0160704700008B
:100200000040004000000010C106C90E01208840D7
:10021000014908607047000080E100E0C106C90E96
:1002200001208840014908607047000000E100E0BB
:1002300000B5002000F064F800BD00B5012000F01A
:100240005FF800BD00B5022000F05AF800BD00B50F
:10025000042000F055F800BD00B5052000F050F86E
:1002600000BD00B5062000F04BF800BD00B507202A
:1002700000F046F800BD00000A4910B5401E884253
:1002800001D9012010BD0849486108480722C36907
:100290001B021B0A4C042343C361002088610A61CE
:1002A00010BD0000FFFFFF0000E000E004ED00E0F3
:1002B00002480168491C0160704700001C000010E2
:1002C00000B5024800F0DAF900BD00000040064029
:1002D00000B5024800F0D2F900BD000000800640E1
:1002E00000B5024800F0CAF900BD000000C0064099
:1002F00070470A68531C0B6010707047FFFFFFFFC8
:10030000F0B52B4A810053585B1C5350294CA26A0C
:10031000274DD30740352E46203601228240002B40
:1003200024D0236B4700C0190830C3405807400F42
:10033000030000F0E9F90813050505212113141342
:10034000E069104204D0E2616858401C685003E044
:1003500022627058401C7050E06AE062F0BD68583C
:10036000401C68507058401C7050F0BD606A1042CC
:10037000FBD02068104205D00D4820304258521C56
:100380004250F0BDE069104206D06068104203D0D0
:100390006858401C6850E261206A104206D020690B
:1003A000104203D07058401C705022626262F0BD4F
:1003B0002C000010004000A070B5354D0020696A87
:1003C000C905090F0B0000F09FF91026090B0D0F4E
:1003D00011131517191B1D1F212325262D481AE05F
:1003E0002D4818E02D4816E02D4814E02D4812E065
:1003F0002D4810E02D480EE02D480CE02D480AE075
:100400002D4808E02D4806E02D4804E02D4802E084
:100410002D4800E02D48696AC906890E891CFFF73E
:1004200067FE1B4940310A6B2A4C9607284AB60FD3
:1004300011D00023012E04D0022E0ED0032E1AD18B
:100440000DE008688007800F05D0012803D002283E
:1004500010D003280FD122600DE020600BE0086867
:100460008007800F0DD001280BD0022802D003286E
:1004700001D106E02360896B2068FFF739FE206018
:1004800070BDA868124AC006C00E401C5043E4E785
:100490000080044020A1070000350C00E0C81000D7
:1004A000C05C1500006A180040771B0080841E00A5
:1004B000C0912100009F240040AC2700E0322900B9
:1004C00020402C00604D2F0000D4300040E133006C
:1004D000001BB7002800001030B511480168114A10
:1004E000114301600E480021403801600121416044
:1004F0004268D207FCD00A4A4123803A93600A4BF3
:100500009C6B8025AC439C63D368DB07FCD0032243
:1005100002634163426BD207FCD0816330BD0000AF
:1005200080800440800004000082044070B51A4DB1
:1005300001216961184C194B803C194A19499842AC
:100540000AD10320FFF760FE2868012189030843D0
:1005500028606168082018E090420AD10420FFF763
:1005600053FE28680121C9030843286061681020F0
:100570000BE088420ED10520FFF746FE28680121D6
:100580000904084328606168202081436160616834
:100590000143616070BD000080800440004006405F
:1005A0000080064000C00640F3B50446224881B0F2
:1005B000012606702046FFF7B9FF204D69692048E3
:1005C0000068FFF795FD042121606969002920D0AA
:1005D000070938460299FFF78BFD401E2062174D30
:1005E000FF2040352863296B3846491C4843216A5F
:1005F000029A491C5143FFF77BFD296B401A401EAC
:10060000686341204001A0600E48844202D103206B
:1006100009E0FEE70C48844201D1042003E00B48C6
:10062000844202D10520FFF7F9FD0948E060206807
:1006300030432060FEBD00000400001080800440B4
:1006400028000010004006400080064000C0064020
:100650000508000070B50024074B042508E01E784B
:10066000F607FCD00E78491CC6611C70C560521E8E
:10067000002AF4D170BD00000400001070B51649C6
:100680004A69521C4A6184680126E207002A1CD08C
:100690004269D30505D543685B0702D5D305DB0D59
:1006A0000B614B680D4DED185B1C4B602A704A685E
:1006B000202A02D100224A60CE60426803231B0236
:1006C0001A4342608A68521C8A60620702D50E7023
:1006D0000421016170BD000004000010AC00001096
:1006E0000FB410B504A9074B02AA039800F028F82C
:1006F000044602A90020FFF7FCFD204610BC08BC00
:1007000004B01847F302000030B47446641E257824
:10071000641CAB4200D21D46635D5B00E31830BC35
:10072000184702E008C8121F08C1002AFAD1704712
:10073000002001E001C1121F002AFBD17047000018
:10074000FFB58DB00F4605460026D4E0252836D1EA
:1007500000246D1C6B4A012100942B780846203B35
:1007600098400346134202D004436D1CF5E72878F5
:100770002E2815D1042004436D1C28782A280AD17C
:1007800001CF6D1C00900BE000990A2251433039D3
:1007900040186D1C00902878014630390929F3D99A
:1007A0002878692843D006DC002871D063280BD054
:1007B000642804D13BE0732810D0752850D0109ADB
:1007C0000F999047761C95E03878694608720020AA
:1007D000487202A83F1D0190012003E001CF019063
:1007E0000020C04361070CD5002400E0641C009980
:1007F0008C420FDA8442F9DB0199095D0029F5D1B9
:1008000008E0002400E0641C8442FCDB0199095DDF
:100810000029F8D1361907E0019801990078491CA0
:100820000191109A0F999047641EF5D262E00A2058
:10083000019001CF002802DA40422D2102E021057B
:1008400004D52B216A461172012103E0E10705D08E
:100850002021F7E70C910BA90B910EE00021F9E79D
:100860000A20019001CFF9E70199FFF741FC0A4600
:100870000B993032491E0B910A700028F4D10B9865
:1008800003A9081A20300190600702D5009802E001
:1008900035E0012000900199884203DD014601986E
:1008A000081A00E000200024009006E002A8109A38
:1008B000005D0F999047761C641C0C988442F5DB10
:1008C00004E0109A30200F999047761C0099481E3A
:1008D00000900029F5DC08E00B980B990078491C82
:1008E0000B91109A0F999047761C0199481E019020
:1008F0000029F1DC6D1C2878002800D026E730465E
:1009000011B0F0BD092801000A46044910B50918C4
:100910000348FFF703FC024810BD0000BC1F0000A5
:10092000EC0000100FB410B50021119A05E00E9BE9
:100930008C001B59002B03D0491C069B8B42F6DC14
:1009400089000E9B091F5A50382203A9FFF7E6FBC6
:1009500010BC08BC04B018470FB4F0B59BB0229986
:100960002198441801212046FFF7CEFF007800228D
:10097000012724AD25AE3B2870D024DC142855D0A7
:100980000DDC0300FFF7C0FE135051517C7E8082C6
:10099000848651515151515151FDFC6B51002A280F
:1009A00042D007DC19380300FFF7AEFE0576787BEE
:1009B0007E843F002B2837D02C2835D02D2833D0EB
:1009C0003A2832D168E0922871D018DC4D282BD01B
:1009D0000CDC3E286CD004DC3C286AD03D28F0D1E9
:1009E0009AE04B2820D04C28EBD11DE04E281BD09C
:1009F000592819D0602870D08528E2D114E0B52894
:100A00006CD008DCA7286AD0B12869D0B2280AD0F7
:100A1000B428D6D1BEE0B6286FD0B7286ED0B8289B
:100A20006DD0BB28CDD1B3E0641C89E10121601CED
:100A3000FFF76AFF007801210602A01CFFF764FFA0
:100A400000782C2230180B9029466846FFF766FB89
:100A500021A90EC90CA801F04CFA69E141E001217D
:100A6000601CFFF751FF00780B902C222946684646
:100A7000FFF754FB21A90EC90CA801F03AFAEAE0ED
:100A80000B921AE00B9718E0022015E0032013E008
:100A9000042011E005200FE0A41C51E12A98006811
:100AA0000AE02A98406807E02A98806804E0A1E0FC
:100AB0003EE025E02A98C0680B902C222946684623
:100AC000FFF72CFB21A90EC90CA801F0E5F938228B
:100AD0000CA921A8FFF722FBA6E735E072E09BE016
:100AE0002CE1282231466846FFF718FB21A80FC8E1
:100AF00000F084FA2A99086096E7CAE001E1E0E094
:100B0000282231466846FFF709FB21A80FC800F0EC
:100B100075FA2A99486087E7282231466846FFF728
:100B2000FDFA21A80FC800F069FA2A9988607BE7CE
:100B3000282231466846FFF7F1FA21A80FC800F0D5
:100B40005DFA2A99C8606FE7641C2822314668461E
:100B5000FFF7E4FA21A80FC800F050FA0746282250
:100B600031466846FFF7DAFA21A80FC800F046FAC6
:100B700038180B902C2229466846FFF7CFFA01E07F
:100B80006FE058E021A90EC90CA801F085F9D7E063
:100B9000E41CD5E00121601CFFF7B6FE00780121BE
:100BA0000602A01CFFF7B0FE00782C2230180B9034
:100BB00029466846FFF7B2FA21A90EC90CA800F031
:100BC000B5F9B5E00121601CFFF79EFE0078012118
:100BD0000602A01CFFF798FE00782C2230180B901C
:100BE00029466846FFF79AFA21A90EC90CA800F019
:100BF0004FFF9DE0641C2C22294668460B97FFF7A7
:100C00008DFA21A90EC90CA8FFF78CFE38220CA979
:100C100021A8FFF783FA93E00121601CFFF774FE1F
:100C2000007801210502A01CFFF76EFE007828184D
:100C300000B2041984E00121601CFFF765FE007812
:100C40000B902C2229466846FFF768FA21A90EC9A5
:100C50000CA801F021F938220CA921A8FFF75EFAAF
:100C60001AE70121601CFFF74FFE00780121060200
:100C7000A01CFFF749FE00782C2230180B90294663
:100C80006846FFF74BFA21A90EC90CA801F004F938
:100C90004EE00121601CFFF737FE007801210602BB
:100CA000A01CFFF731FE00782C2230180B9029464B
:100CB0006846FFF733FA21A90EC90CA800F012FB11
:100CC00036E00121601CFFF71FFE007801210602BB
:100CD000A01CFFF719FE00782C2230180B90294633
:100CE0006846FFF71BFA21A90EC90CA800F07AFA92
:100CF00038220CA921A8FFF711FA2299219844184B
:100D00001EE00121601CFFF7FFFD007801210602B3
:100D1000A01CFFF7F9FD00782C2230180B90294613
:100D20006846FFF7FBF921A90EC90CA800F012FADA
:100D300038220CA921A8FFF7F1F929E7229228927D
:100D400021983822201A229021A92098FFF7E6F94D
:100D50001BB0F0BC08BC04B018470000F3B50E4649
:100D6000012587B0002429460820FFF7CDFD007833
:100D7000012107020920FFF7C7FD007839186948EB
:100D8000002E016001D08E4201DB002086E020466B
:100D90000A3001210746FFF7B7FD007802900121D4
:100DA0003846FFF7B1FD007800F05DF9411C0ED127
:100DB000204601210C30FFF7A7FD077820460121CE
:100DC0000B30FFF7A1FD00780002C01C3818B542B7
:100DD0000DD00299052908D0062906D06D1C51496D
:100DE00009688D4203DA2418D1E7AD1CF7E72046E5
:100DF0000B3001210646FFF787FD0078012105022F
:100E000020460C300090FFF77FFD00780121281864
:100E1000039020460D300190FFF776FD0078012108
:100E2000070220460E300546FFF76EFD00783818A1
:100E3000049020460A30059002980300FFF764FCF6
:100E4000076A056A141430306A0003990198FFF7A5
:100E50005BFD01463448039AFFF760F93248039A74
:100E600000218154069055E001212846FFF74CFDF2
:100E7000047801213046FFF747FD00780121000684
:100E800024180098FFF740FD00780121050401981F
:100E9000FFF73AFD0078000228182018039039E087
:100EA00001212846FFF730FD057801213046FFF784
:100EB0002BFD0078012100062D180098FFF724FD76
:100EC0000078012106040198FFF71EFD007801213A
:100ED000000230182818039020461230FFF714FD46
:100EE0000578204601210F30FFF70EFD0078012123
:100EF00000062D1820461030FFF706FD007801216E
:100F0000060420461130FFF7FFFC0078000230187D
:100F100028180490142202A90798FFF7FFF809B0D7
:100F2000F0BD000020000010CC0000100FB430B560
:100F3000A3B0359C05462146684600F055FF1422B3
:100F4000694605A8FFF7EAF801221FA10998FFF7F3
:100F5000FEF800281AD02CE0349982008958A1426A
:100F600013D13399800008580B902C222AA9684687
:100F7000FFF7D4F827A90EC914A800F08DFF382276
:100F800014A927A8FFF7CAF813E0401C2C99814246
:100F9000E2DC33980A460068009034980BA103689D
:100FA0000CA8FFF79DFB0CA800F0F4FF0EA000F0CA
:100FB000F1FF382227A92846FFF7B0F823B030BC4C
:100FC00008BC04B01847000049000000466E756D6B
:100FD0003D25642C6D656D747970653D25642C72BA
:100FE00065673D25640D0A006765744669656C6434
:100FF000206572726F720D0A0000000070B58AB031
:101000000020159C149A04E081006158002910D03A
:10101000401C8342F8DC411E8000001F2058002540
:10102000042809D088002158022919D000200AB0CC
:1010300070BD0028FBD0EEE78E00915905A800F0A6
:10104000B3FE142205A96846FFF768F8A551009879
:10105000052803D0062801D00198E8E70298E6E7C2
:1010600025501058E3E700B50300FFF74DFB1314BC
:1010700011140D0D0F0F0B0B0D0D0D0D14140D0B89
:10108000140B1400032000BD052000BD092000BD85
:101090000020C04300BD002000BD000070B58CB032
:1010A0000020179C169904E08200A258002A12D052
:1010B000401C8342F8DC421E8000001F205800259F
:1010C00004280BD090002258022A14D0012A16D0EE
:1010D00000200CB070BD0028FBD0ECE796008959C9
:1010E00006A800F061FE142206A901A8FFF716F871
:1010F000A5510598EDE725500A5805A102E02550B5
:101100000A5C04A10448FFF7EBFA0348E1E700009A
:101110002564000025630000CC00001010B5FFF727
:101120004BF90848016880221143016007490648CD
:1011300008604C200649C043086000F007FFFFF735
:1011400027F810BD808004400400FFFF00C000406D
:10115000C0C100400FB430B58BB01D9D0446294678
:10116000684600F06DFE1422694605A8FEF7D6FF1A
:10117000062219A10998FEF7EAFF00281DD1294689
:10118000684600F031FE1422694605A8FEF7C6FF46
:10119000022213A10998FEF7DAFF00280DD105E01D
:1011A0001A9982008958002911D0401C1299814255
:1011B000F6DC401E04211691179038220FA9204614
:1011C000FEF7ACFF0BB030BC08BC04B018470028D9
:1011D000EFD103201690F0E73C696E69743E000081
:1011E000284900000FB470B59AB0064668462D999C
:1011F00000F026FE1422694605A8FEF78FFF099C21
:10120000052233A12046FEF7A2FF23AD002807D018
:10121000092231A12046FEF79AFF00283CD053E076
:10122000282229466846FEF779FF1FA80FC8FFF756
:10123000E5FE0446269822AD012802D0072821D1D8
:1012400005E00720269000F097FE27900AE000F0C6
:1012500093FE2799401AA04204DB0120269000202B
:10126000279031E02C22294668460B94FEF756FF62
:101270001FA90EC90CA800F00FFE38220CA91FA848
:10128000FEF74CFF38221FA93046FEF747FF1AB081
:1012900070BC08BC04B01847282229466846FEF7EF
:1012A0003DFF1FA80FC8FFF7A9FE044628222946C4
:1012B0006846FEF733FF1FA80FC8FFF79FFE0146E1
:1012C0002246002000F0D7FB2098C01C2090D9E7D0
:1012D000736C656570000000706F7274577269748A
:1012E000650000000FB470B59AB0054668462D99A8
:1012F00000F0A6FD1422694605A8FEF70FFF099E1F
:10130000072235A13046FEF722FF23AC00281DD06E
:10131000052233A13046FEF71AFF002829D0042207
:1013200031A13046FEF713FF22AC002833D005224E
:101330002FA13046FEF70BFF00282FD007222EA149
:101340003046FEF704FF00282BD03BE02822214640
:101350006846FEF7E3FE1FA80FC8FFF79FFE024690
:1013600027A10AA8FFF7BCF90AA800F013FE25A0E0
:101370000EE0282221466846FEF7D0FE1FA80FC8BF
:10138000FFF78CFE02461EA10AA8FFF7A9F90AA8DA
:1013900000F000FE16E000F009FE03E002202690B7
:1013A00010E025980B902C2221466846FEF7B6FEE9
:1013B0001FA90EC90CA800F06FFD38220CA91FA8A8
:1013C000FEF7ACFE38221FA92846FEF7A7FE1AB08A
:1013D00070BC08BC04B018477072696E746C6E0003
:1013E0007072696E74000000726561640000000034
:1013F00073746172740000006765744E616D6500FE
:10140000257300000D0A00009CB0FFF787FE4B20FB
:10141000C00100F0B7FD00F0FFFAF7A000F0BAFD40
:10142000FAA000F0B7FD0024382000F0C7FA0D90B4
:10143000002802D1FAA000F0ADFD04210C910D9915
:10144000F9A00B900D462C220C316846FEF766FE83
:101450000ECD0EA800F08CFB38220EA90D98FEF7D9
:101460005DFE0D980025056345610069800000F070
:10147000A5FA0D994862C868800000F09FFA0D999E
:10148000C862C868800000F099FA0D998862C86A3D
:10149000012105600D988561C16101E000253DE0F5
:1014A00038202F4647430D983E18F069012801D097
:1014B000072832D131460C312C226846FEF72EFE29
:1014C00008203118087803464878000203438878DA
:1014D00000040343C878317900060A467179034352
:1014E00009020A43B179F07909040A43000602436C
:1014F0003046367831464678360231438678C078B1
:1015000036043143000601430EA8FFF725FA0D9873
:10151000382238180EA9FEF701FE6D1C621C954298
:10152000BEDB0D98C16902297ED004297DD1641CDF
:10153000611C3822514300F083FA0D90002802D13B
:10154000B7A000F027FDBAA00B90382025464543F0
:101550000D9806212E180C9131460C312C2268462C
:10156000FEF7DCFD08203018027831461346427839
:10157000120213438278C078120413430006034317
:10158000301D367932464678360232438678C07846
:101590003604324300060243084606783146467850
:1015A000360231438678C078360431430006014361
:1015B0000EA800F0DDFA0D98382228180EA9FEF7C3
:1015C000ADFD0D980026281806630D982818466171
:1015D0000D9828180069800000F0F0F90D9969183D
:1015E00048620D982818C068800000F0E7F90D994E
:1015F0006918C8620D982818C068800000F0DEF9EC
:101600000D99691888620D9805212818C06A06602E
:101610000D982818C1610D98066A761C14D00D9992
:1016200028220F46103101E04BE0E0E06846FEF76B
:1016300075FD0FCFFFF7E2FC0D99B2006918496AFA
:10164000761E8850EBD133E00D982C222E183146AF
:101650000C316846FEF762FD082031180878034611
:10166000487800020343887800040343C87831793E
:1016700000060A467179034309020A43B179F079F9
:1016800009040A43000602433078014670780002DC
:101690000143B07800040143F078000601430EA82E
:1016A000FFF75AF90D98382228180EA9FEF736FDD3
:1016B0000D982918C8690028C6D10620C8610120E4
:1016C00093E0002507E02946382359430918C969E2
:1016D00006297DD06D1C9542F5DD38216943091836
:1016E000C9690629F5D0641C611C3822514300F0F9
:1016F000A7F90D90002802D149A000F04BFC4EA0A4
:101700000B903820254645430D9803212E180C9147
:1017100031460C312C226846FEF700FD08203018B7
:101720000278314613464278120213438278C07819
:101730001204134300060343301D367932464678BF
:10174000360232438678C0783604324300060243BC
:101750000846067831464678360231438678C078A6
:1017600036043143000601430EA800F001FA0D983B
:10177000382228180EA9FEF7D1FC0D982818006908
:10178000800000F01BF90D9969184862002802D109
:1017900023A000F0FFFB0D982818C068800000F01F
:1017A0000DF90D996918C862002802D11CA000F03B
:1017B000F1FB0D982818C068800000F0FFF80D9923
:1017C00069188862002802D115A000F0E3FB00E050
:1017D00034E00D9900206918C96A08600D9901204C
:1017E0006918C8610D9AAA1894610D99C861002101
:1017F0000846651C0D9AA8E04C5043383178204AC1
:10180000564D2053746172740D0A0000706C65614E
:10181000736520776169742E2E2E0D0A0D0A000063
:101820006572726F722100006D61696E00000000C8
:101830003C696E69743E000072756E0056490B91EA
:1018400038212E464E43371803220C9239460C316C
:101850002C226846FEF762FC0820381802783946C8
:1018600013464278120213438278C078120413435D
:1018700000060343381D3F793A4647783F023A4312
:101880008778C0783F043A43000602430846077849
:10189000394647783F0239438778C0783F04394357
:1018A000000601430EA800F063F90D9838223018A5
:1018B0000EA9FEF733FC0D983018406A002802D1BB
:1018C00036A000F067FB0D9830180169406A890066
:1018D00000F0B6F80D9971184862002802D12FA0C7
:1018E00000F058FB0D983018C168C06A890000F0FC
:1018F000A7F80D997118C862002802D127A000F03E
:1019000049FB0D983018C168806A890000F098F88A
:101910000D9971188862002802D120A000F03AFBCE
:101920000D9900207118C96A08600D99012071187D
:10193000C8610D9971188D6157E7382343439B188F
:10194000DB69002B00D0491C401CA842F5DB0029B4
:1019500000D0A3E5002413E02046382148430D9928
:1019600006464018406A00F051F80D983018C06AD9
:1019700000F04CF80D983018806A00F047F8641CAD
:10198000AC42E9DB0DA800F041F800200D9007A063
:1019900000F000FBFEE7000038180000706F696E71
:1019A0007472206572726F72210D0A000D0A0D0AA1
:1019B0004A564D2046696E0D0A00000038B50E49A2
:1019C000C01C8A688008121AD21E8A60002A04DCB1
:1019D0000AA000F0DFFA002038BD4A68012413464F
:1019E0000C3300936B469460136050608200009843
:1019F00012184A6038BD00000C0500106D616C6C57
:101A00006F63206572726F72210D0A00002802D088
:101A10000C3800218160704710B50848064AFF2342
:101A200001240133C46011468360103102604160BB
:101A3000101D1AC0126010BD0C0100100C05001022
:101A400070B5002809D004460C3CC91C656889089B
:101A50008D4203DB20460C30616070BD0020A06029
:101A60008800FFF7ABFF214606460C31AA00FEF7BF
:101A700055FB304670BD70B514460D460646012232
:101A8000FEF7A4FB224629463046FEF793FB70BDC5
:101A90000FB4F0B58BB01F9D07462946684600F08D
:101AA000A3F91422694605A8FEF738FB01222FA1ED
:101AB0000998FEF74CFB00284ED1169815AE002869
:101AC00001D000242AE00420FFF778FF1D900420B5
:101AD000FFF774FF1E9001201690282231466846B9
:101AE000FEF71CFB11A80FC8FFF788FA1D990860C4
:101AF0001E98056030E01E98A1004058A8420CD105
:101B0000282231466846FEF709FB11A80FC8FFF7E7
:101B100075FA1D99A20088501EE0641C1698A04218
:101B2000E9DC401C8400169021461D98FFF788FFD1
:101B30001D9021461E98FFF783FF1E9028223146F4
:101B40006846FEF7EBFA11A80FC8FFF757FA1D9980
:101B5000241F08511E980551382211A93846FEF756
:101B6000DDFA0BB0F0BC08BC04B018474900000017
:101B70000FB4F0B58FB000208A4C179021686846EA
:101B8000491EFFF7EBF81422694605A8FEF7C6FACE
:101B9000059801282AD0C0B2FFF765FA08990818FD
:101BA000801D01210090FEF7AFFE007801210502A3
:101BB0000098401CFEF7A8FE007800992818400005
:101BC0004018801C01210090FEF79EFE0078012144
:101BD00005020098401CFEF797FE00782E1800982A
:101BE000801C0090002E19D0002515E00698C01C1E
:101BF000D4E7801D01210090FEF786FE00780121C8
:101C000007020098401CFEF77FFE00780099381804
:101C1000891C08186D1C0090B542EADB0121FEF713
:101C200073FE0078012105020098401CFEF76CFE4F
:101C30000078281860600098801C00250090A2E0C1
:101C400000980121801C0090FEF75EFE00780121C3
:101C500004020098401CFEF757FE007821180AA8DD
:101C6000FFF77CF814220AA905A8FEF757FA249A70
:101C700023990998FEF76BFA0A9000980121801CBD
:101C8000801C0090FEF740FE0078012104020098BD
:101C9000401CFEF739FE0078201802900098801C46
:101CA000002400906BE000980121801C0090C01C73
:101CB000FEF72AFE067801210098FEF725FE00783F
:101CC0000121000636180098401CFEF71DFE007822
:101CD000012107040098801CFEF716FE0078000220
:101CE0003818301801900098001D00900A980028BC
:101CF00040D101210098FEF707FE0078012106027D
:101D00000098401CFEF700FE007801213018189062
:101D10000098801CFEF7F8FD00780121060200986B
:101D2000C01CFEF7F1FD00780121301819900098D1
:101D3000C01DFEF7E9FD067800980121001DFEF7A1
:101D4000E3FD00780121000636180098401DFEF7DB
:101D5000DBFD0078012107040098801DFEF7D4FD0B
:101D60000078000238183018179000980830159045
:101D700000201690009901980818641C00900298A1
:101D8000844290DB6D1C07484068854200DA57E7C3
:101D9000382215A91498FEF7C1F90FB0F0BC08BCA1
:101DA00004B018472000001010B58AB0044605A8FA
:101DB000FEF7D4FF142205A96846FEF7AFF9009894
:101DC000072801D0082808D105A80199FEF7C6FF09
:101DD000142205A96846FEF7A1F914226946204697
:101DE000FEF79CF90AB010BD10B58AB0044605A8EC
:101DF000FEF7B4FF142205A96846FEF78FF9009894
:101E0000092804D00A2802D00C2812D108E005A81D
:101E10000299FEF7A3FF142205A96846FEF77EF992
:101E200005A80299FFF7C0FF142205A96846FEF72E
:101E300075F9142269462046FEF770F90AB010BD04
:101E400010B58AB0044605A8FEF788FF142205A93C
:101E50006846FEF763F90098092804D00A2802D0E2
:101E60000C2812D108E005A80299FEF777FF14228A
:101E700005A96846FEF752F905A80199FFF794FFF6
:101E8000142205A96846FEF749F91422694620463E
:101E9000FEF744F90AB010BD0FB470B50021139BD2
:101EA00005E0109A8C001259002A03D0491C089AA8
:101EB0008A42F6DC089A521E8A4204D1109A8C009B
:101EC0001259002A0DD1109D02248A00AC500F9C9B
:101ED000491CA350089A8A4203D00022109B890013
:101EE0005A50382205A9FEF719F970BC08BC04B095
:101EF00018470FB470B50021139B05E0109A8C00B1
:101F00001259002A03D0491C089A8A42F6DC089A22
:101F1000521E8A4204D1109A8C001259002A0DD107
:101F2000109D04248A00AC500F9C491CA350089AB1
:101F30008A4203D00022109B89005A50382205A9FA
:101F4000FEF7ECF870BC08BC04B0184710B50848A0
:101F5000016901221143016106487D21C900006821
:101F6000FEF7C6F8FEF788F9002800D0FEE710BD9E
:101F700000E000E028000010014800687047000001
:101F80001C00001010B501460148FEF70DFB10BD06
:101F90000040064010B50446FEF7D2F8024621463E
:101FA0000148FEF757FB10BD00400640024881681B
:101FB000C907FCD04069704700400640CAFEBABE5F
:101FC0000000003200410A00100021090004002234
:101FD00009000400230700240A0004002507002646
:101FE0000A000600270A000600280A000600290742
:101FF000002A0A002B002C09002D002E08002F0AB1
:1020000000300031080032070033070034010001BE
:102010007801000149010001790100063C696E69FF
:10202000743E0100052849492956010004436F64A4
:102030006501000F4C696E654E756D626572546185
:10204000626C650100046D61696E010016285B4CCD
:102050006A6176612F6C616E672F537472696E6767
:102060003B295601000372756E01000328295601B1
:10207000000D537461636B4D61705461626C650750
:10208000002A01000A536F7572636546696C650129
:102090000015536F6674426C696E6B4C4544546511
:1020A00073742E6A6176610C0015001C0C0012001E
:1020B000130C00140013010010536F6674426C6916
:1020C0006E6B4C4544546573740C0015001601008A
:1020D000106A6176612F6C616E672F54687265615A
:1020E000640C001500350C0036001C0C003700385D
:1020F0000100136A6176612F6C616E672F4578630A
:10210000657074696F6E0700390C003A001607009D
:102110003B0C003C003D0100064C45445F6F6E07E0
:10212000003E0C003F00400100074C45445F6F66D5
:10213000660100106A6176612F6C616E672F4F62D5
:102140006A6563740100126A6176612F6C616E6763
:102150002F52756E6E61626C65010017284C6A61C2
:1021600076612F6C616E672F52756E6E61626C6561
:102170003B29560100057374617274010005736C8C
:10218000656570010004284A29560100066C7063D9
:10219000383030010009706F7274577269746501CC
:1021A00000106A6176612F6C616E672F53797374CA
:1021B000656D0100036F75740100154C6A617661ED
:1021C0002F696F2F5072696E7453747265616D3B25
:1021D0000100136A6176612F696F2F5072696E7406
:1021E00053747265616D0100077072696E746C6E74
:1021F000010015284C6A6176612F6C616E672F5360
:102200007472696E673B29560021000400100001BA
:10221000001100020002001200130000000200146E
:102220000013000000030001001500160001001754
:1022300000000033000200030000000F2AB7000175
:102240002A1BB500022A1CB50003B10000000100E2
:102250001800000012000400000004000400060042
:10226000090007000E000900090019001A0001000A
:1022700017000000660004000500000036BB0004E3
:102280005910071028B700054CBB00045910101155
:1022900003E8B700054DBB0006592BB700074EBB3E
:1022A0000006592CB700073A042DB600081904B6E9
:1022B0000008B10000000100180000001E00070027
:1022C00000000D000C000E0019001000220011008B
:1022D0002C001300300014003500150001001B0015
:1022E0001C0001001700000098000200040000001C
:1022F000392AB400023C2AB400033D1C85B8000909
:10230000A700044E1B04B8000BB2000C120DB6005F
:102310000E1C85B80009A700044E1B03B8000BB2C1
:10232000000C120FB6000EA7FFD40002000A000F27
:102330000012000A002000250028000A00020018F0
:1023400000000026000900000019000A001D000F0F
:10235000001E00130020001800210020002400258A
:10236000002500290027002E0028001D0000001174
:102370000005FD000A01014707001E005407001E6A
:10238000000001001F00000002002000000000000B
:10239000B0230000000000102C0000002207000005
:1023A000DC2300002C000010F409000030070000BE
:1023B000000000000100000000000000000000001C
:1023C000000000000000000000000000000000000D
:0C23D000000000000000000000366E015C
:04000005000000C136
:00000001FF
