:020000040000FA
:10000000200A0010D5000000E5000000DD0000001F
:1000100000000000000000000000000000000000E0
:10002000000000000000000000000000DF000000F1
:100030000000000000000000E10000009D02000040
:10004000E5000000E500000000000000AD02000037
:10005000BD020000CD020000000000000000000012
:10006000E5000000E5000000E9010000E5000000F7
:10007000E5000000E500000000000000E5000000D1
:100080000000000000000000000000000000000070
:100090000000000000000000000000000000000060
:1000A0001D0200002702000031020000E5000000F0
:1000B0003B020000450200004F0200005902000010
:1000C0000348854600F052F800480047F11300004D
:1000D000200A00100448804704480047FEE7FEE776
:1000E000FEE7FEE7FEE70000D9040000C1000000C3
:1000F00030B50B46014600202022012409E00D46C0
:10010000D5409D4205D31D469540491B2546954047
:1001100040191546521E002DF1DC30BD03460B433D
:100120009B0703D009E008C9121F08C0042AFAD2AD
:1001300003E00B78491C0370401C521EF9D2704733
:10014000421C0178401C0029FBD1801A704730B551
:1001500005460020034600E05B1C934205D2EC5CA0
:10016000C85C201A01D1002CF6D130BD064C012507
:10017000064E05E02046E36807C82B439847103435
:10018000B442F7D3FFF7A0FF3C2300005C2300003C
:1001900007480168402211430160054880384268E1
:1001A00001158A43426042680A434260704700007A
:1001B0008080044001208840002A01D0024901E0EB
:1001C0000149803108607047002200A0054B0120E2
:1001D00088401968002A01D0014300E0814319607A
:1001E00070470000002000A00548C168C90705D07D
:1001F0000121C16003480168491C0160704700008B
:100200000040004000000010C106C90E01208840D7
:10021000014908607047000080E100E000B500205F
:1002200000F06EF800BD00B5012000F069F800BDD7
:1002300000B5022000F064F800BD00B5042000F015
:100240005FF800BD00B5052000F05AF800BD00B50C
:10025000062000F055F800BD00B5072000F050F86A
:1002600000BD00000A4910B5401E884201D9012096
:1002700010BD0849486108480722C3691B021B0AD0
:100280004C042343C361002088610A6110BD000053
:10029000FFFFFF0000E000E004ED00E0024801681D
:1002A000491C0160704700001C00001000B50248A6
:1002B00000F0D2F900BD00000040064000B5024841
:1002C00000F0CAF900BD00000080064000B50248F9
:1002D00000F0C2F900BD000000C0064006E08368DF
:1002E0005B07FCD50B78491CC361521E002AF6D16E
:1002F000704770470000000000000000FFFFFFFF94
:10030000F0B52B4A810053585B1C5350294CA26A0C
:10031000274DD30740352E46203601228240002B40
:1003200024D0236B4700C0190830C3405807400F42
:10033000030000F0D7F90813050505212113141354
:10034000E069104204D0E2616858401C685003E044
:1003500022627058401C7050E06AE062F0BD68583C
:10036000401C68507058401C7050F0BD606A1042CC
:10037000FBD02068104205D00D4820304258521C56
:100380004250F0BDE069104206D06068104203D0D0
:100390006858401C6850E261206A104206D020690B
:1003A000104203D07058401C705022626262F0BD4F
:1003B0002C000010004000A070B5354D0020696A87
:1003C000C905090F0B0000F08DF91026090B0D0F60
:1003D00011131517191B1D1F212325262D481AE05F
:1003E0002D4818E02D4816E02D4814E02D4812E065
:1003F0002D4810E02D480EE02D480CE02D480AE075
:100400002D4808E02D4806E02D4804E02D4802E084
:100410002D4800E02D48696AC906890E891CFFF73E
:1004200067FE1B4940310A6B2A4C9607284AB60FD3
:1004300011D00023012E04D0022E0ED0032E1AD18B
:100440000DE008688007800F05D0012803D002283E
:1004500010D003280FD122600DE020600BE0086867
:100460008007800F0DD001280BD0022802D003286E
:1004700001D106E02360896B2068FFF739FE206018
:1004800070BDA868124AC006C00E401C5043E4E785
:100490000080044020A1070000350C00E0C81000D7
:1004A000C05C1500006A180040771B0080841E00A5
:1004B000C0912100009F240040AC2700E0322900B9
:1004C00020402C00604D2F0000D4300040E133006C
:1004D000001BB7002800001030B511480168114A10
:1004E000114301600E480021403801600121416044
:1004F0004268D207FCD00A4A4123803A93600A4BF3
:100500009C6B8025AC439C63D368DB07FCD0032243
:1005100002634163426BD207FCD0816330BD0000AF
:1005200080800440800004000082044070B51A4DB1
:1005300001216961184C194B803C194A19499842AC
:100540000AD10320FFF760FE2868012189030843D0
:1005500028606168082018E090420AD10420FFF763
:1005600053FE28680121C9030843286061681020F0
:100570000BE088420ED10520FFF746FE28680121D6
:100580000904084328606168202081436160616834
:100590000143616070BD000080800440004006405F
:1005A0000080064000C00640F3B50446224881B0F2
:1005B000012606702046FFF7B9FF204D69692048E3
:1005C0000068FFF795FD042121606969002924D0A6
:1005D000070938460299FFF78BFD401E2062174D30
:1005E000FF2040352863296B3846491C4843216A5F
:1005F000029A491C5143FFF77BFD296B401A401EAC
:10060000686341204001A0600E4884420BD00E492F
:100610000E488C4202D1102104E0FEE70C498C42C6
:1006200001D1202101600B48E06004202061206896
:1006300030432060FEBD00000400001080800440B4
:1006400028000010004006400080064000E100E065
:1006500000C006400108000070B516494A69521CE6
:100660004A6184680126E207002A1CD04269D3054A
:1006700005D543685B0702D5D305DB0D0B614B68DD
:100680000D4DED185B1C4B602A704A68202A02D180
:1006900000224A60CE60426803231B021A43426074
:1006A0008A68521C8A60620702D50E7004210161BB
:1006B00070BD000004000010AC0000100FB410B5B5
:1006C00004A9074B02AA039800F028F8044602A9DF
:1006D000002000F007F9204610BC08BC04B0184701
:1006E000E508000030B47446641E2578641CAB42F3
:1006F00000D21D46635D5B00E31830BC184702E082
:1007000008C8121F08C1002AFAD17047002001E072
:1007100001C1121F002AFBD170470000FFB58DB048
:100720000F4605460026D4E0252836D100246D1C4E
:100730006B4A012100942B780846203B98400346E1
:10074000134202D004436D1CF5E728782E2815D1FA
:10075000042004436D1C28782A280AD101CF6D1C7F
:1007600000900BE000990A225143303940186D1C6B
:1007700000902878014630390929F3D9287869286A
:1007800043D006DC002871D063280BD0642804D144
:100790003BE0732810D0752850D0109A0F999047DD
:1007A000761C95E03878694608720020487202A8E5
:1007B0003F1D0190012003E001CF01900020C043C4
:1007C00061070CD5002400E0641C00998C420FDA0C
:1007D0008442F9DB0199095D0029F5D108E0002484
:1007E00000E0641C8442FCDB0199095D0029F8D11A
:1007F000361907E0019801990078491C0191109A77
:100800000F999047641EF5D262E00A20019001CF53
:10081000002802DA40422D2102E0210504D52B21D7
:100820006A461172012103E0E10705D02021F7E7B4
:100830000C910BA90B910EE00021F9E70A20019021
:1008400001CFF9E70199FFF753FC0A460B993032C3
:10085000491E0B910A700028F4D10B9803A9081ABD
:1008600020300190600702D5009802E035E00120B9
:1008700000900199884203DD01460198081A00E0C2
:1008800000200024009006E002A8109A005D0F9955
:100890009047761C641C0C988442F5DB04E0109AA7
:1008A00030200F999047761C0099481E009000292F
:1008B000F5DC08E00B980B990078491C0B91109A15
:1008C0000F999047761C0199481E01900029F1DC90
:1008D0006D1C2878002800D026E7304611B0F0BD06
:1008E000092801000A68531C0B6010707047000053
:1008F0000A46044910B509180348FFF70FFC0248DF
:1009000010BD0000F01F0000EC0000100FB410B587
:100910000021119A05E00E9B8C001B59002B03D07F
:10092000491C069B8B42F6DC89000E9B091F5A501E
:10093000382203A9FFF7F2FB10BC08BC04B018472B
:100940000FB4F0B59BB0229921984418012120469C
:10095000FFF7CEFF00780022012724AD25AE3B280B
:1009600070D024DC142855D00DDC0300FFF7BAFE4C
:10097000135051517C7E8082848651515151515186
:1009800051FDFC6B51002A2842D007DC19380300C6
:10099000FFF7A8FE0576787B7E843F002B2837D0B2
:1009A0002C2835D02D2833D03A2832D168E092282F
:1009B00071D018DC4D282BD00CDC3E286CD004DC28
:1009C0003C286AD03D28F0D19AE04B2820D04C2812
:1009D000EBD11DE04E281BD0592819D0602870D0CB
:1009E0008528E2D114E0B5286CD008DCA7286AD0AD
:1009F000B12869D0B2280AD0B428D6D1BEE0B62832
:100A00006FD0B7286ED0B8286DD0BB28CDD1B3E059
:100A1000641C89E10121601CFFF76AFF0078012155
:100A20000602A01CFFF764FF00782C2230180B9000
:100A300029466846FFF772FB21A90EC90CA801F0F0
:100A400072FA69E141E00121601CFFF751FF007873
:100A50000B902C2229466846FFF760FB21A90EC99E
:100A60000CA801F060FAEAE00B921AE00B9718E08C
:100A7000022015E0032013E0042011E005200FE020
:100A8000A41C51E12A9800680AE02A98406807E00F
:100A90002A98806804E0A1E03EE025E02A98C0683A
:100AA0000B902C2229466846FFF738FB21A90EC976
:100AB0000CA801F00BFA38220CA921A8FFF72EFB95
:100AC000A6E735E072E09BE02CE12822314668463B
:100AD000FFF724FB21A80FC800F084FA2A990860C8
:100AE00096E7CAE001E1E0E0282231466846FFF7D8
:100AF00015FB21A80FC800F075FA2A99486087E70E
:100B0000282231466846FFF709FB21A80FC800F0EC
:100B100069FA2A9988607BE7282231466846FFF700
:100B2000FDFA21A80FC800F05DFA2A99C8606FE7A6
:100B3000641C282231466846FFF7F0FA21A80FC846
:100B400000F050FA0746282231466846FFF7E6FAD9
:100B500021A80FC800F046FA38180B902C2229461D
:100B60006846FFF7DBFA01E06FE058E021A90EC903
:100B70000CA801F0ABF9D7E0E41CD5E00121601C22
:100B8000FFF7B6FE007801210602A01CFFF7B0FEB9
:100B900000782C2230180B9029466846FFF7BEFAE1
:100BA00021A90EC90CA800F0B5F9B5E00121601C1F
:100BB000FFF79EFE007801210602A01CFFF798FEB9
:100BC00000782C2230180B9029466846FFF7A6FAC9
:100BD00021A90EC90CA800F075FF9DE0641C2C2211
:100BE000294668460B97FFF799FA21A90EC90CA868
:100BF000FFF78CFE38220CA921A8FFF78FFA93E0AB
:100C00000121601CFFF774FE007801210502A01C81
:100C1000FFF76EFE0078281800B2041984E0012165
:100C2000601CFFF765FE00780B902C222946684671
:100C3000FFF774FA21A90EC90CA801F047F9382270
:100C40000CA921A8FFF76AFA1AE70121601CFFF737
:100C50004FFE007801210602A01CFFF749FE007834
:100C60002C2230180B9029466846FFF757FA21A925
:100C70000EC90CA801F02AF94EE00121601CFFF713
:100C800037FE007801210602A01CFFF731FE007834
:100C90002C2230180B9029466846FFF73FFA21A90D
:100CA0000EC90CA800F012FB36E00121601CFFF712
:100CB0001FFE007801210602A01CFFF719FE007834
:100CC0002C2230180B9029466846FFF727FA21A9F5
:100CD0000EC90CA800F07AFA38220CA921A8FFF757
:100CE0001DFA2299219844181EE00121601CFFF78B
:100CF000FFFD007801210602A01CFFF7F9FD007836
:100D00002C2230180B9029466846FFF707FA21A9D4
:100D10000EC90CA800F012FA38220CA921A8FFF77E
:100D2000FDF929E72292289221983822201A229050
:100D300021A92098FFF7F2F91BB0F0BC08BC04B061
:100D400018470000F3B50E46012587B00024294658
:100D50000820FFF7CDFD0078012107020920FFF7E9
:100D6000C7FD007839186948002E016001D08E4215
:100D700001DB002086E020460A3001210746FFF70C
:100D8000B7FD0078029001213846FFF7B1FD0078E9
:100D900000F05DF9411C0ED1204601210C30FFF717
:100DA000A7FD0778204601210B30FFF7A1FD007851
:100DB0000002C01C3818B5420DD00299052908D090
:100DC000062906D06D1C514909688D4203DA2418A2
:100DD000D1E7AD1CF7E720460B3001210646FFF7AF
:100DE00087FD00780121050220460C300090FFF7B6
:100DF0007FFD007801212818039020460D300190D6
:100E0000FFF776FD00780121070220460E300546E7
:100E1000FFF76EFD00783818049020460A300590E0
:100E200002980300FFF75EFC076A056A141430306D
:100E30006A0003990198FFF75BFD01463448039A65
:100E4000FFF76CF93248039A00218154069055E06F
:100E500001212846FFF74CFD047801213046FFF7B9
:100E600047FD00780121000624180098FFF740FD97
:100E70000078012105040198FFF73AFD007800028F
:100E800028182018039039E001212846FFF730FD8B
:100E9000057801213046FFF72BFD0078012100067F
:100EA0002D180098FFF724FD007801210604019811
:100EB000FFF71EFD0078012100023018281803906A
:100EC00020461230FFF714FD0578204601210F302F
:100ED000FFF70EFD0078012100062D182046103086
:100EE000FFF706FD00780121060420461130FFF7C8
:100EF000FFFC00780002301828180490142202A980
:100F00000798FFF70BF909B0F0BD000020000010B2
:100F1000CC0000100FB430B5A3B0359C0546214677
:100F2000684600F07BFF1422694605A8FFF7F6F833
:100F300001221FA10998FFF70AF900281AD02CE016
:100F4000349982008958A14213D1339980000858FE
:100F50000B902C222AA96846FFF7E0F827A90EC9B2
:100F600014A800F0B3FF382214A927A8FFF7D6F879
:100F700013E0401C2C998142E2DC33980A46006859
:100F8000009034980BA103680CA8FFF797FB0CA8FE
:100F900001F01AF80EA001F017F8382227A9284608
:100FA000FFF7BCF823B030BC08BC04B01847000001
:100FB00049000000466E756D3D25642C6D656D74AD
:100FC0007970653D25642C7265673D25640D0A00C6
:100FD0006765744669656C64206572726F720D0A8C
:100FE0000000000070B58AB00020159C149A04E03F
:100FF00081006158002910D0401C8342F8DC411E5A
:101000008000001F20580025042809D0880021589E
:10101000022919D000200AB070BD0028FBD0EEE7ED
:101020008E00915905A800F0D9FE142205A9684642
:10103000FFF774F8A5510098052803D0062801D0C1
:101040000198E8E70298E6E725501058E3E700B575
:101050000300FFF747FB131411140D0D0F0F0B0BBB
:101060000D0D0D0D14140D0B140B1400032000BDF9
:10107000052000BD092000BD0020C04300BD0020A8
:1010800000BD000070B58CB00020179C169904E0DC
:101090008200A258002A12D0401C8342F8DC421E73
:1010A0008000001F2058002504280BD090002258F3
:1010B000022A14D0012A16D000200CB070BD0028DE
:1010C000FBD0ECE79600895906A800F087FE1422B1
:1010D00006A901A8FFF722F8A5510598EDE72550CC
:1010E0000A5805A102E025500A5C04A10448FFF754
:1010F000E5FA0348E1E700002564000025630000ED
:10110000CC00001010B5FFF757F90848016880229D
:10111000114301600749064808604C200649C04356
:10112000086000F02DFFFFF733F810BD8080044009
:101130000400FFFF00C00040C0C100400FB430B544
:101140008BB01D9D04462946684600F093FE14228C
:10115000694605A8FEF7E2FF062219A10998FEF7E5
:10116000F6FF00281DD12946684600F057FE1422DC
:10117000694605A8FEF7D2FF022213A10998FEF7DF
:10118000E6FF00280DD105E01A9982008958002950
:1011900011D0401C12998142F6DC401E04211691A8
:1011A000179038220FA92046FEF7B8FF0BB030BCCD
:1011B00008BC04B018470028EFD103201690F0E7D0
:1011C0003C696E69743E0000284900000FB470B598
:1011D0009AB0064668462D9900F04CFE14226946E6
:1011E00005A8FEF79BFF099C052233A12046FEF7C8
:1011F000AEFF23AD002807D0092231A12046FEF71B
:10120000A6FF00283CD053E0282229466846FEF776
:1012100085FF1FA80FC8FFF7E5FE0446269822ADFC
:10122000012802D0072821D105E00720269000F0F0
:10123000BDFE27900AE000F0B9FE2799401AA042AF
:1012400004DB012026900020279031E02C22294643
:1012500068460B94FEF762FF1FA90EC90CA800F0A8
:1012600035FE38220CA91FA8FEF758FF38221FA907
:101270003046FEF753FF1AB070BC08BC04B01847E4
:10128000282229466846FEF749FF1FA80FC8FFF726
:10129000A9FE0446282229466846FEF73FFF1FA8FC
:1012A0000FC8FFF79FFE01462246002000F0FDFB1D
:1012B0002098C01C2090D9E7736C65657000000011
:1012C000706F727457726974650000000FB470B566
:1012D0009AB0054668462D9900F0CCFD1422694667
:1012E00005A8FEF71BFF099E072235A13046FEF731
:1012F0002EFF23AC00281DD0052233A13046FEF777
:1013000026FF002829D0042231A13046FEF71FFF16
:1013100022AC002833D005222FA13046FEF717FF5C
:1013200000282FD007222EA13046FEF710FF0028FC
:101330002BD03BE0282221466846FEF7EFFE1FA88F
:101340000FC8FFF79FFE024627A10AA8FFF7B6F9CC
:101350000AA800F039FE25A00EE0282221466846A2
:10136000FEF7DCFE1FA80FC8FFF78CFE02461EA189
:101370000AA8FFF7A3F90AA800F026FE16E000F07D
:101380002FFE03E00220269010E025980B902C22DF
:1013900021466846FEF7C2FE1FA90EC90CA800F040
:1013A00095FD38220CA91FA8FEF7B8FE38221FA908
:1013B0002846FEF7B3FE1AB070BC08BC04B018474C
:1013C0007072696E746C6E007072696E74000000E9
:1013D0007265616400000000737461727400000043
:1013E0006765744E616D6500257300000D0A00008D
:1013F0009CB0FFF787FE4B20C00100F0DDFD00F040
:1014000005FBF7A000F0E0FDFAA000F0DDFD0024F0
:10141000382000F0C7FA0D90002802D1FAA000F0A1
:10142000D3FD04210C910D99F9A00B900D462C22AF
:101430000C316846FEF772FE0ECD0EA800F0B2FB2E
:1014400038220EA90D98FEF769FE0D980025056358
:1014500045610069800000F0A5FA0D994862C868EE
:10146000800000F09FFA0D99C862C868800000F003
:1014700099FA0D998862C86A012105600D98856105
:10148000C16101E000253DE038202F4647430D981B
:101490003E18F069012801D0072832D131460C31BD
:1014A0002C226846FEF73AFE0820311808780346D9
:1014B000487800020343887800040343C8783179F0
:1014C00000060A467179034309020A43B179F079AB
:1014D00009040A430006024330463678314646780E
:1014E000360231438678C078360431430006014322
:1014F0000EA8FFF725FA0D98382238180EA9FEF726
:101500000DFE6D1C621C9542BEDB0D98C16902295F
:101510007ED004297DD1641C611C3822514300F027
:10152000A9FA0D90002802D1B7A000F04DFDBAA095
:101530000B903820254645430D9806212E180C9116
:1015400031460C312C226846FEF7E8FD08203018A1
:101550000278314613464278120213438278C078EB
:101560001204134300060343301D36793246467891
:10157000360232438678C07836043243000602438E
:101580000846067831464678360231438678C07878
:1015900036043143000601430EA800F003FB0D980A
:1015A000382228180EA9FEF7B9FD0D980026281834
:1015B00006630D98281846610D9828180069800068
:1015C00000F0F0F90D99691848620D982818C06864
:1015D000800000F0E7F90D996918C8620D98281885
:1015E000C068800000F0DEF90D99691888620D98D6
:1015F00005212818C06A06600D982818C1610D9849
:10160000066A761C14D00D9928220F46103101E08D
:101610004BE0E0E06846FEF781FD0FCFFFF7E2FC0C
:101620000D99B2006918496A761E8850EBD133E0F3
:101630000D982C222E1831460C316846FEF76EFDAF
:101640000820311808780346487800020343887858
:1016500000040343C878317900060A4671790343D0
:1016600009020A43B179F07909040A4300060243EA
:1016700030780146707800020143B07800040143DD
:10168000F078000601430EA8FFF75AF90D983822AA
:1016900028180EA9FEF742FD0D982918C8690028E0
:1016A000C6D10620C861012093E0002507E0294645
:1016B000382359430918C96906297DD06D1C954204
:1016C000F5DD382169430918C9690629F5D0641C7C
:1016D000611C3822514300F0CDF90D90002802D151
:1016E00049A000F071FC4EA00B90382025464543E0
:1016F0000D9803212E180C9131460C312C2268468E
:10170000FEF70CFD08203018027831461346427867
:10171000120213438278C078120413430006034375
:10172000301D367932464678360232438678C078A4
:1017300036043243000602430846067831464678AE
:10174000360231438678C0783604314300060143BF
:101750000EA800F027FA0D98382228180EA9FEF7D7
:10176000DDFC0D9828180069800000F01BF90D9928
:1017700069184862002802D123A000F025FC0D98CA
:101780002818C068800000F00DF90D996918C8622A
:10179000002802D11CA000F017FC0D982818C06882
:1017A000800000F0FFF80D9969188862002802D1C6
:1017B00015A000F009FC00E034E00D990020691844
:1017C000C96A08600D9901206918C8610D9AAA18A4
:1017D00094610D99C86100210846651C0D9AA8E026
:1017E0004C5043383178204A564D205374617274FE
:1017F0000D0A0000706C6561736520776169742E55
:101800002E2E0D0A0D0A00006572726F7221000003
:101810006D61696E000000003C696E69743E0000F5
:1018200072756E0056490B9138212E464E4337187B
:1018300003220C9239460C312C226846FEF76EFCCE
:1018400008203818027839461346427812021343AA
:101850008278C0781204134300060343381D3F7991
:101860003A4647783F023A438778C0783F043A4384
:101870000006024308460778394647783F02394355
:101880008778C0783F043943000601430EA800F072
:1018900089F90D98382230180EA9FEF73FFC0D98F3
:1018A0003018406A002802D136A000F08DFB0D9858
:1018B00030180169406A890000F0DCF80D99711850
:1018C0004862002802D12FA000F07EFB0D9830184E
:1018D000C168C06A890000F0CDF80D997118C8621E
:1018E000002802D127A000F06FFB0D983018C168C6
:1018F000806A890000F0BEF80D997118886200288E
:1019000002D120A000F060FB0D9900207118C96A77
:1019100008600D9901207118C8610D9971188D61C9
:1019200057E7382343439B18DB69002B00D0491C41
:10193000401CA842F5DB002900D0A3E5002413E0F9
:101940002046382148430D9906464018406A00F069
:1019500057F80D983018C06A00F052F80D983018FA
:10196000806A00F04DF8641CAC42E9DB0DA800F081
:1019700047F800200D9007A000F026FBFEE70000CE
:1019800020180000706F696E7472206572726F7239
:10199000210D0A000D0A0D0A4A564D2046696E0DAA
:1019A0000A00000038B5044600F044F80090002812
:1019B0000CD10E49E41C8A68A008121AD21E8A6053
:1019C000002A04DC0AA000F0FFFA002038BD4A68B3
:1019D000012314460C3400946C46146093605060EC
:1019E0008200009812184A6038BD00000C050010F3
:1019F0006D616C6C6F63206572726F72210D0A00ED
:101A0000002802D00C3800218160704710B50848CA
:101A1000064AFF2301240133C4601146836010315C
:101A200002604160101D1AC0126010BD0C01001050
:101A30000C050010C01C10B582080D490B48086049
:101A40004B68103041688468002901D0834201D876
:101A5000002010BD002C05D1914203DB01218160E3
:101A60000C3010BD890008180C30EBE70C01001099
:101A70000C05001070B5002809D004460C3CC91CA8
:101A8000656889088D4203DB20460C30616070BDBB
:101A90000020A0608800FFF785FF214606460C3134
:101AA000AA00FEF73BFB304670BD70B514460D46EC
:101AB00006460122FEF78AFB224629463046FEF7FB
:101AC00079FB70BD0FB4F0B58BB01F9D074629465A
:101AD000684600F0A3F91422694605A8FEF71EFB2C
:101AE00001222FA10998FEF732FB00284ED116984B
:101AF00015AE002801D000242AE00420FFF752FF91
:101B00001D900420FFF74EFF1E9001201690282202
:101B100031466846FEF702FB11A80FC8FFF762FACC
:101B20001D9908601E98056030E01E98A10040587D
:101B3000A8420CD1282231466846FEF7EFFA11A8D8
:101B40000FC8FFF74FFA1D99A20088501EE0641CD1
:101B50001698A042E9DC401C8400169021461D988E
:101B6000FFF788FF1D9021461E98FFF783FF1E9008
:101B7000282231466846FEF7D1FA11A80FC8FFF7B0
:101B800031FA1D99241F08511E980551382211A9B8
:101B90003846FEF7C3FA0BB0F0BC08BC04B01847D7
:101BA000490000000FB4F0B58FB000208A4C1790A8
:101BB00021686846491EFFF7C5F81422694605A842
:101BC000FEF7ACFA059801282AD0C0B2FFF73FFA19
:101BD00008990818801D01210090FEF789FE007801
:101BE000012105020098401CFEF782FE0078009952
:101BF000281840004018801C01210090FEF778FE54
:101C00000078012105020098401CFEF771FE007863
:101C10002E180098801C0090002E19D0002515E089
:101C20000698C01CD4E7801D01210090FEF760FEDD
:101C30000078012107020098401CFEF759FE007849
:101C400000993818891C08186D1C0090B542EADB11
:101C50000121FEF74DFE0078012105020098401C8D
:101C6000FEF746FE0078281860600098801C00256A
:101C70000090A2E000980121801C0090FEF738FE41
:101C80000078012104020098401CFEF731FE007824
:101C900021180AA8FFF756F814220AA905A8FEF78A
:101CA0003DFA249A23990998FEF751FA0A90009870
:101CB0000121801C801C0090FEF71AFE0078012193
:101CC00004020098401CFEF713FE007820180290D2
:101CD0000098801C002400906BE000980121801C7B
:101CE0000090C01CFEF704FE067801210098FEF764
:101CF000FFFD00780121000636180098401CFEF711
:101D0000F7FD0078012107040098801CFEF7F0FD24
:101D1000007800023818301801900098001D0090DB
:101D20000A98002840D101210098FEF7E1FD0078D3
:101D3000012106020098401CFEF7DAFD007801211F
:101D4000301818900098801CFEF7D2FD0078012111
:101D500006020098C01CFEF7CBFD00780121301868
:101D600019900098C01DFEF7C3FD06780098012168
:101D7000001DFEF7BDFD0078012100063618009811
:101D8000401DFEF7B5FD0078012107040098801D75
:101D9000FEF7AEFD00780002381830181790009852
:101DA0000830159000201690009901980818641CBE
:101DB00000900298844290DB6D1C07484068854281
:101DC00000DA57E7382215A91498FEF7A7F90FB0E3
:101DD000F0BC08BC04B018472000001010B58AB051
:101DE000044605A8FEF7AEFF142205A96846FEF7D3
:101DF00095F90098072801D0082808D105A801996D
:101E0000FEF7A0FF142205A96846FEF787F9142201
:101E100069462046FEF782F90AB010BD10B58AB0B7
:101E2000044605A8FEF78EFF142205A96846FEF7B2
:101E300075F90098092804D00A2802D00C2812D17C
:101E400008E005A80299FEF77DFF142205A968465F
:101E5000FEF764F905A80299FFF7C0FF142205A94F
:101E60006846FEF75BF9142269462046FEF756F9EC
:101E70000AB010BD10B58AB0044605A8FEF762FF8F
:101E8000142205A96846FEF749F90098092804D0EC
:101E90000A2802D00C2812D108E005A80299FEF702
:101EA00051FF142205A96846FEF738F905A80199E3
:101EB000FFF794FF142205A96846FEF72FF91422B4
:101EC00069462046FEF72AF90AB010BD0FB470B576
:101ED0000021139B05E0109A8C001259002A03D0B0
:101EE000491C089A8A42F6DC089A521E8A4204D19A
:101EF000109A8C001259002A0DD1109D02248A00DC
:101F0000AC500F9C491CA350089A8A4203D000226F
:101F1000109B89005A50382205A9FEF7FFF870BCC3
:101F200008BC04B018470FB470B50021139B05E03E
:101F3000109A8C001259002A03D0491C089A8A4230
:101F4000F6DC089A521E8A4204D1109A8C0012596B
:101F5000002A0DD1109D04248A00AC500F9C491C0E
:101F6000A350089A8A4203D00022109B89005A503D
:101F7000382205A9FEF7D2F870BC08BC04B0184797
:101F800010B50848016901221143016106487D210D
:101F9000C9000068FEF7ACF8FEF764F9002800D02D
:101FA000FEE710BD00E000E02800001001480068D6
:101FB000704700001C00001010B501460148FEF7F4
:101FC000F3FA10BD0040064010B50446FEF7B8F81D
:101FD000024621460148FEF781F910BD0040064047
:101FE00002488168C907FCD040697047004006403C
:101FF000CAFEBABE0000003200310A000C001D0902
:102000000004001E090004001F0700200A0004004D
:10201000210700220A000600230A000600240A0005
:102020000600250700260A002700280700290700C8
:102030002A0100017801000149010001790100062F
:102040003C696E69743E0100052849492956010022
:1020500004436F646501000F4C696E654E756D62D7
:1020600065725461626C650100046D61696E010006
:1020700016285B4C6A6176612F6C616E672F537412
:1020800072696E673B295601000372756E01000389
:1020900028295601000D537461636B4D61705461C2
:1020A000626C6507002601000A536F75726365460E
:1020B000696C65010015536F6674426C696E6B4CF8
:1020C0004544546573742E6A6176610C00110018E2
:1020D0000C000E000F0C0010000F010010536F6673
:1020E00074426C696E6B4C4544546573740C0011FA
:1020F00000120100106A6176612F6C616E672F54C7
:1021000068726561640C0011002B0C002C00180C27
:10211000002D002E0100136A6176612F6C616E67DD
:102120002F457863657074696F6E07002F0C00305F
:1021300000120100106A6176612F6C616E672F4F8B
:10214000626A6563740100126A6176612F6C616E68
:10215000672F52756E6E61626C65010017284C6ABC
:102160006176612F6C616E672F52756E6E61626C65
:10217000653B295601000573746172740100057393
:102180006C656570010004284A29560100066C70D0
:1021900063383030010009706F727457726974656A
:1021A00000210004000C0001000D00020002000EDE
:1021B000000F000000020010000F000000030001EB
:1021C00000110012000100130000003300020003A0
:1021D0000000000F2AB700012A1BB500022A1CB517
:1021E0000003B10000000100140000001200040010
:1021F0000000040004000600090007000E000900AA
:1022000009001500160001001300000091000400F1
:102210000700000055BB00045910071102BCB700AD
:10222000054CBB00045910101105DCB700054DBB6F
:102230000004591011110384B700054EBB00065964
:102240002BB700073A04BB0006592CB700073A0524
:10225000BB0006592DB700073A061904B600081945
:1022600005B600081906B60008B100000001001408
:102270000000002A000A0000000D000D000E001AE8
:10228000000F0027001200310013003B001400452E
:102290000016004A0017004F0018005400190001F2
:1022A0000017001800010013000000800002000465
:1022B000000000292AB400023C2AB400033D1C851A
:1022C000B80009A700044E1B04B8000B1C85B80019
:1022D00009A700044E1B03B8000BA7FFE40002008F
:1022E0000A000F0012000A0018001D0020000A005A
:1022F0000200140000001E00070000001D000A007C
:1023000021000F00220013002400180028001D00E7
:10231000290021002B0019000000110005FD000A12
:1023200001014707001A004C07001A000001001BBA
:1023300000000002001C0000000000005C23000000
:10234000000000102C000000FE06000088230000A2
:102350002C000010F40900000C0700000000000031
:10236000010000000000000000000000000000006C
:10237000000000000000000000000000000000005D
:082380000000000000366E01B0
:04000005000000C136
:00000001FF
